:100000000C9455010C947D010C947D010C947D01A0
:100010000C947D010C947D010C947D010C947D0168
:100020000C947D010C947D010C943C070C94AB075F
:100030000C947D010C947D010C947D010C947D0148
:100040000C947D010C947D010C947D010C947D0138
:100050000C947D010C947D010C947D010C94F206AE
:100060000C947D010C947D010C947D010C947D0118
:100070000C947D010C947D010C947D010C947D0108
:100080000C947D010C947D010C947D010C947D01F8
:100090000C947D010C947D010C947D010C947D01E8
:1000A0000C947D010C947D010C947D0100407A102C
:1000B000F35A00A0724E18090010A5D4E80000E819
:1000C0007648170000E40B54020000CA9A3B000077
:1000D00000E1F505000080969800000040420F0006
:1000E0000000A08601000000102700000000E803C7
:1000F000000000006400000000000A000000000092
:100100000100000000002C76D888DC674F0823DF50
:10011000C1DFAE59E1B1B796E5E3E453C63AE65123
:10012000997696E8E6C28426EB898C9B62ED407C4A
:100130006FFCEFBC9C9F40F2BAA56FA5F490055AE6
:100140002AF75C936B6CF9676DC11BFCE0E40D470B
:10015000FEF520E6B500D0ED902E0300943577052E
:100160000080841E080000204E0A000000C80C33E6
:100170003333330F986E12831141EF8D2114893B75
:10018000E65516CFFEE6DB18D1844B381BF77C1DF5
:10019000901DA4BBE424203284725E228100C9F148
:1001A00024ECA1E53D270A0B0C0D0E0F080B0002F5
:1001B0000202000009040000010202000005240000
:1001C0001001052401010104240206052406000192
:1001D0000705810310004009040100020A00000025
:1001E00007050202400000070583024000000403E7
:1001F000090412010002EF02014041234180000185
:100200000102030141726475696E6F204C4C43001A
:1002100041726475696E6F2059756E00070605049A
:100220000100080A0B0C0D090000000200090F0074
:1002300000030401000C00000000000000000000AA
:10024000000000000000000001020304050000009F
:1002500000250028002B002E0031000000000024A3
:100260000027002A002D00300004040404040304C5
:100270000502020202040302020202060606060644
:100280000604040202020404040802011040804033
:1002900010204080408008020401804020100201AC
:1002A0001080102040402000DD0911241FBECFEF38
:1002B000DAE0DEBFCDBF11E0A0E0B1E0ECE7FFE2A5
:1002C00002C005900D92A437B107D9F722E0A4E748
:1002D000B1E001C01D92A531B207E1F711E0C5E51B
:1002E000D1E004C02197FE010E94BB16C435D1079E
:1002F000C9F70E94190A0C94BC170C94000090E0F6
:10030000FC01E857FD4F249187599D4FFC018491D2
:10031000882399F090E0880F991FFC01E55AFD4F62
:10032000A591B491FC01E35BFD4F859194918FB74A
:10033000F894EC91E22BEC938FBF0895FC0180912F
:100340009B01882311F13FB7F89482E08093E90084
:100350002091F200822F90E01816190614F481E023
:1003600090E0882339F0289844E640939A01409120
:10037000F1004083222339F02091F200211103C0C3
:100380002BE62093E8003FBF08958FEF9FEF08957D
:100390002FB7F89483E08093E9009091E800892FCB
:1003A000807295FF04C09091F20080E4891B2FBFFA
:1003B00008958091920181110DC082E080938E0199
:1003C00084E080938F01109291011092900181E05E
:1003D000809392018EE891E00895282F30E0F90192
:1003E000E85DFD4F9491F901E857FD4F849127593D
:1003F0003D4FF9012491222309F430C09923E9F0FB
:1004000091509F30D0F4E92FF0E0E75FFD4F0C945E
:10041000BB1637023B0218022F0233021D021D02D7
:100420001D023E02440248024C0252021D025602C4
:10043000909180009F7790938000E22FF0E0EE0F84
:10044000FF1FE35BFD4FA591B4919FB7F894EC912A
:10045000611132C080958E238C939FBF0895909137
:1004600080009F7DE8CF90918000977FE4CF94B586
:100470009F7794BDE2CF94B59F7DFBCF9091900084
:100480009F7790939000D9CF909190009F7DF9CF66
:1004900090919000977FF5CF9091C0009F779093B7
:1004A000C000CBCF9091C0009F7DF9CF9091C2004A
:1004B000977F9093C200C1CF8E2BCECF682F8091B3
:1004C000F5010E94ED0180910D0290910E028230A3
:1004D000910538F0880F991F880F991F059701978C
:1004E000F1F7089581E00C945E022091F3013091C0
:1004F000F4014091F5015091F6012417350721F0E0
:10050000682F822F0C94ED0108958251E82FF0E0BE
:10051000E45EFD4FE49190917B008E2F880F880F51
:1005200080729F7D892B80937B00E770E064E0936D
:100530007C0080917A00806480937A0080917A00B8
:1005400086FDFCCF809178009091790008953FB7A7
:10055000F89480918A0190918B01A0918C01B091C7
:100560008D0126B5A89B05C02F3F19F00196A11D4E
:10057000B11D3FBFBA2FA92F982F8827BC01CD01ED
:10058000620F711D811D911D42E0660F771F881F4C
:10059000991F4A95D1F708958F929F92AF92BF927B
:1005A000CF92DF92EF92FF924B015C010E94A70273
:1005B0006B017C010E94A7026C197D098E099F09BD
:1005C000683E734081059105A8F321E0821A9108E5
:1005D000A108B10888EEC80E83E0D81EE11CF11C0A
:1005E00081149104A104B10429F7FF90EF90DF90EA
:1005F000CF90BF90AF909F908F90089508954091B5
:100600008301509184012091810130918201421730
:100610005307B4F49091E8009570E1F39091E800ED
:1006200092FD19C08093F100809183019091840123
:1006300001968F739927892B19F48EEF8093E80028
:10064000809183019091840101969093840180931D
:10065000830181E0089580E00895EF92FF920F9367
:100660001F93CF93DF93F82E192FE62E042F81E0EE
:10067000860F880F0E94FF0283E00E94FF02CF2DA9
:10068000D12FEC0EFD2EF11CCE15DF05B9F007FFC2
:1006900013C0FE0184910E94FF02182F80E00E9487
:1006A000FF02812321968111EFCFDF91CF911F911E
:1006B0000F91FF90EF9008958881EDCF81E0F5CF05
:1006C000DF92EF92FF920F931F93CF93DF93D82E79
:1006D0008A01EB017B01E40EF51ECE15DF0559F012
:1006E000D7FE12C0FE0184910E94FF022196811163
:1006F000F4CF0FEF1FEFC801DF91CF911F910F9142
:10070000FF90EF90DF9008958881EECF0F931F93B5
:10071000CF93DF931F92CDB7DEB782E0898342E4A7
:1007200050E06CEA71E080E80E9460030E94D90109
:10073000DC0112960D911C910115110589F0D8016B
:10074000ED91FC910280F381E02DBE016F5F7F4F40
:10075000C801099597FD04C0F80100851185ECCF0B
:1007600089810F90DF91CF911F910F910895615072
:1007700030F02091F100FC0120830196F8CF2898F9
:1007800084E680939A0108958F929F92AF92BF92D0
:10079000CF92DF92EF92FF920F931F93CF93DF934D
:1007A0006C017B018A0180910B01882309F45CC0F4
:1007B00080919B01882309F457C08091870180FFB5
:1007C00005C08091E00082608093E000E801B12CD8
:1007D0008AEFA82E93E0892E2AE3922E209711F417
:1007E000BB20D9F10E94C80181110AC0AA94AA2095
:1007F000D9F161E070E080E090E00E94CC02EECFA1
:100800008C171D0611F00CF08C2F9FB7F894809276
:10081000E9002091E80025FD02C09FBFDFCF282F0F
:1008200030E0C21BD30BF701815020F0419140937F
:10083000F100FACFE20EF31EBB2021F09092E80007
:10084000B12CEBCF8091E80085FDE7CF9092E800D6
:10085000BB24B394209709F3F3CF5D9884E680938B
:100860008801101611063CF081E090E0F6019383B8
:10087000828310E000E0C801DF91CF911F910F91BA
:10088000FF90EF90DF90CF90BF90AF909F908F90B0
:100890000895CF93DF931F92CDB7DEB76983DC0154
:1008A000ED91FC910280F381E02D41E050E0BE012A
:1008B0006F5F7F4F09950F90DF91CF91089583E08F
:1008C0008093E9008091F200882319F08AE38093F5
:1008D000E80008950E94C80190E00895CF93DF9347
:1008E0001F92CDB7DEB7FC018485958597FD08C0C2
:1008F0002FEF3FEF358724870F90DF91CF91089539
:10090000CE0101960E949E01019719F4898190E021
:10091000F3CF8FEF9FEFF0CF0F931F93CF93DF9322
:100920001F92CDB7DEB78C01FC018485958597FFBA
:100930000BC0CE0101960E949E01019771F489813E
:1009400090E0F80195878487F801848595850F905C
:10095000DF91CF911F910F9108958FEF9FEFF1CF0E
:10096000FC018485958597FD0BC09FB7F89482E0C4
:100970008093E9008091F2009FBF90E00196089576
:100980009FB7F89482E08093E9008091F2009FBFC6
:1009900090E008958EBD00000DB407FEFDCF8EB52A
:1009A00008950F931F930091F7011091F801209182
:1009B000F9013091FA0140E052E16AE770E080E02D
:1009C000041715072607370740F47695679557955E
:1009D00047958F5F8630A1F787E0982F906A9695AC
:1009E000809581709CBD8DBD80E01F910F910C940E
:1009F0005E02CF93C82F0E94D1048C2F80620E9488
:100A0000CA048093FB01CF910C947202CF93C82F3C
:100A10000E94D1048C2F0E94CA048093FB018FEFA7
:100A20000E94CA04C82F0E9472028C2FCF91089591
:100A3000FF920F931F93CF93DF93C82FF62E072FAC
:100A4000142F0E94D1048C2F80620E94CA048093CC
:100A5000FB01CF2DD02F115020F089910E94CA04A4
:100A6000FACFDF91CF911F910F91FF900C947202FA
:100A70000E94D10480E50E94CA048093FB0183E7B1
:100A80000E94CA040C947202CF93DF93D82FC62F12
:100A90000E94D1048D2F80620E94CA048093FB01C2
:100AA0008C2F0E94CA04DF91CF910C94720280E0D7
:100AB0000E9475028091090290910A02823091058C
:100AC00038F0880F991F880F991F05970197F1F744
:100AD00080910502882319F081EE0E94F90460914B
:100AE00002026E7F6093020280E00E94440582E071
:100AF0000E940605E7E4F2E0E49161E070E001C0E5
:100B0000660FEA95EAF7682B82E00C944405609141
:100B1000020261FD0AC062606093020280E00E94EE
:100B200044058BE19EE40197F1F70895CF92DF929F
:100B3000EF92FF920F931F93CF93DF937C018091ED
:100B40000702C0E0D8E1811107C0C091FC01DC2F91
:100B5000C93108F0D8E1CD1B0E94D10480EA0E947F
:100B6000CA048093FB018701D15030F0F8018191D4
:100B70008F010E94CA04F8CFC15020F080E00E948B
:100B8000CA04FACF0E94720281E00E9475028FB7F8
:100B9000F894C0909C01D0909D01E0909E01F0904F
:100BA0009F018FBF8FEF0E94F9048091FB0180733A
:100BB00009F52FB7F89480919C0190919D01A09127
:100BC0009E01B0919F012FBF8C199D09AE09BF09ED
:100BD00080369105A105B10528F381E080930802D4
:100BE00080E0DF91CF911F910F91FF90EF90DF9008
:100BF000CF90089580E00E94750260E787E00E9430
:100C000044058091FB0184FF04C081EE0E94F90439
:100C1000E7CF81E0E6CFCF93DF93EC018881998124
:100C2000009711F00E947712198218821D821C828F
:100C30001B821A82DF91CF910895FC0180819181FE
:100C4000009711F00C94771208950F931F93CF9390
:100C5000DF938C01EB01FC01808191810097E1F031
:100C60006881798161157105A9F0428153812C81D8
:100C70003D814217530770F00E9492178C819D812D
:100C8000F801958384831D821C82DF91CF911F918F
:100C90000F9108950E94771288819981F8019183BC
:100CA00080838A819B81938382838C819D819583BC
:100CB0008483198218821B821A82E5CFEF92FF92F9
:100CC0000F931F93CF93DF93EC017B018A018881FF
:100CD0009981009729F02A813B812417350788F4F0
:100CE000B8016F5F7F4F0E94C1160097C9F09983CA
:100CF00088831B830A832C813D81232B11F4FC0103
:100D000010821D830C83B701888199810E949217FC
:100D1000CE01DF91CF911F910F91FF90EF90089539
:100D2000CE010E940B06F4CFAF92BF92CF92DF921A
:100D3000EF92FF920F931F93CF93DF93EC016B0120
:100D40005A0179012417350720F48B2D5901E42E1F
:100D5000F82E198218821B821A821D821C8250E092
:100D600040E065E471E0CE010E945E06D601149673
:100D70000D911C91A016B10628F5E016F10608F4B5
:100D80008701D601ED91FC911197E00FF11FF080E2
:100D900010826D917C916A0D7B1D61157105F1F0DA
:100DA000FB0101900020E9F73197AF01461B570B7B
:100DB000CE010E945E06F60180819181080F191F05
:100DC000D801FC92CE01DF91CF911F910F91FF903E
:100DD000EF90DF90CF90BF90AF900895CE010E942A
:100DE0000B06E9CF1F920F920FB60F9211242F938B
:100DF0003F938F939F93AF93BF9380919C0190916A
:100E00009D01A0919E01B0919F013091890123E045
:100E1000230F2D3758F50196A11DB11D209389018F
:100E200080939C0190939D01A0939E01B0939F019C
:100E300080918A0190918B01A0918C01B0918D01DC
:100E40000196A11DB11D80938A0190938B01A093FF
:100E50008C01B0938D01BF91AF919F918F913F9184
:100E60002F910F900FBE0F901F90189526E8230F1B
:100E70000296A11DB11DD2CF1F920F920FB60F92F5
:100E800011248F939F938091E1009091E100937FD3
:100E90009093E10083FF0FC01092E90091E09093DE
:100EA000EB001092EC0092E39093ED0010929B0106
:100EB00098E09093F00082FF22C093E09093E900C5
:100EC0009091F200992319F09AE39093E8009091A1
:100ED0008801992341F09091880191509093880165
:100EE000911101C05D9A90919A01992341F09091DE
:100EF0009A01915090939A01911101C0289A84FF10
:100F000018C08091E2008E7E81608093E200809123
:100F1000E1008F7E8093E100809187018E7E806169
:100F2000809387019F918F910F900FBE0F901F901C
:100F3000189580FFF7CF8091E2008E7E80618093CC
:100F4000E2008091E1008E7E8093E1008091870134
:100F50008E7E8160E5CF1F920F920FB60F92112403
:100F6000CF92DF92EF92FF920F931F932F933F93B5
:100F70004F935F936F937F938F939F93AF93BF93A1
:100F8000EF93FF93CF93DF93CDB7DEB76C97DEBFC0
:100F9000CDBF1092E9008091E80083FF25C068E092
:100FA000CE0145960E94B70382EF8093E8008D89B9
:100FB00087FF39C09091E80090FFFCCF982F907682
:100FC00009F034C19E894F89588D2F89F88C911171
:100FD00031C0803861F5809186018093F1001092D4
:100FE000F1008EEF8093E8006C960FB6F894DEBFA8
:100FF0000FBECDBFDF91CF91FF91EF91BF91AF9128
:101000009F918F917F916F915F914F913F912F9120
:101010001F910F91FF90EF90DF90CF900F900FBE38
:101020000F901F9018959EEF9093E800C7CF1092F5
:10103000F100D5CF913059F48111D3CF4130510512
:1010400081F6809186018D7F80938601CACF93308F
:1010500049F48111C6CF4130510519F680918601BE
:101060008260F2CF953041F48091E80080FFFCCFA0
:1010700020682093E300B5CF963009F0A9C00B8D0E
:101080001C8D22E01092E9001092840110928301DD
:10109000F2122EC010928201109281010E948603EA
:1010A0001F8299E09983FA8291E09E8390EA988763
:1010B0009AEF99872091830130918401275F3F4FF8
:1010C0003C832B838D831092E9001092840110924F
:1010D0008301109382010093810149E050E0BE0139
:1010E0006F5F7F4F80E00E9460030E94860379CF8C
:1010F00010938201009381010E94D901DC011296B4
:101100000D911C910115110509F451C1D801ED9102
:10111000FC910480F581E02DBE016B5E7F4FC8011C
:101120000995009709F03EC1F80100851185EACFC5
:10113000F3E0FF120EC08F89882309F440C082308B
:1011400061F440E86BE080E192E00E942D038111A0
:1011500048CF81E28093EB0047CF813029F440E80B
:101160006BE084E092E0F1CF833099F70E94D901DF
:10117000DC011296ED90FC908E010F5F1F4F68010D
:10118000E114F10479F0D701ED91FC910680F7812B
:10119000E02DB801C7010995080F111DF701E08482
:1011A000F184EECFD8011C92F60101900020E9F7FE
:1011B0003197BF016C197D0940E0C601C6CF6EEEC4
:1011C00071E0FB01449150E080E80E94600309CF88
:1011D000973009F4BECF983021F481E08093F1007C
:1011E00000CF993009F0FDCE837009F0B2CFEFE166
:1011F000F1E081E031E096E32191222371F08093C8
:10120000E9003093EB00DF0111972C912093EC0063
:101210009093ED008F5F873079F78EE78093EA0037
:101220001092EA008F8980939B01DBCE8B8D9C8D81
:101230001092E90010928401109283019093820130
:1012400080938101898D811192C08E899D89913A07
:1012500049F4813209F07DCF47E050E064E071E06D
:1012600080E0B3CF913209F074CF833269F48F8973
:10127000988DB0E0A0E08093000190930101A093CD
:101280000201B0930301ADCE803269F48091E80091
:1012900082FFFCCF67E084E091E00E94B7038BEF10
:1012A0008093E8009ECE823209F09BCE8F89809396
:1012B0000B01EEEFFFE7859194918B3F9C4D51F12F
:1012C000E0E0F8E08091040190910501A091060111
:1012D000B0910701803B9440A105B105F1F48091E4
:1012E0000B0180FD1AC0EE3F8AE0F80789F587E719
:1012F00097E791838083809160008093850188E1E6
:101300009BE00FB6F894A895809360000FBE909371
:10131000600067CEEEEFFAE0D5CF8081918187370C
:10132000974709F05ECEA895809160008861809310
:1013300060008091850180936000EE3F2AE0F20713
:1013400089F08091FE0A9091FF0A9183808349CEB3
:10135000808191818737980751F29093FF0A80939B
:10136000FE0AC5CF1092FF0A1092FE0A3ACE0E94E2
:10137000D901DC0112960D911C910115110509F49A
:10138000E8CED801ED91FC910190F081E02DBE01F5
:101390006B5E7F4FC8010995811123CEF80100854E
:1013A0001185EBCF181619060CF41BCED2CEF1E046
:1013B000FF12BECE62EF71E004CFE0EAF1E01382EB
:1013C000128288EE93E0A0E0B0E084839583A68348
:1013D000B78389E291E0918380838FEF9FEF9587B8
:1013E0008487E1EFF1E089E090E0938382838AE0F3
:1013F00090E09583848380E896E9A8E9B0E086834D
:101400009783A087B18780E28387128A138A85E059
:10141000858B81E0868B85E090E0A0E0B0E0848F52
:10142000958FA68FB78F80EF91E09183808314868C
:101430000895CF93DF93CDB7DEB7CA56D1090FB663
:10144000F894DEBF0FBECDBF789484B5826084BDB2
:1014500084B5816084BD85B5826085BD85B58160B8
:1014600085BD80916E00816080936E001092810036
:1014700080918100826080938100809181008160F1
:1014800080938100809180008160809380008091B2
:10149000910082608093910080919100816080939F
:1014A0009100809190008160809390008091C100B4
:1014B00084608093C1008091C10082608093C100EC
:1014C0008091C10081608093C1008091C3008160E0
:1014D0008093C3008091C00082608093C00080919F
:1014E000C20081608093C20080917A008460809302
:1014F0007A0080917A00826080937A0080917A00ED
:10150000816080937A0080917A00806880937A006D
:1015100010929B0110928601109287018091D70052
:1015200081608093D70080EA8093D80089B580617C
:1015300089BD89B5826089BD89B5182F117080FF7A
:10154000FBCF61E070E080E090E00E94CC028091EF
:10155000D8008F7C80618093D8008091E000807FEC
:101560008093E0008091E1008E7E8093E1008DE029
:101570008093E200559A209A0FB7F89480917401F5
:10158000811124C0EAE7F2E08491E9E9F2E0949164
:10159000E82FF0E0EE0FFF1FE55AFD4FA591B49143
:1015A000EC91E92321F461E081E10E94ED0181E108
:1015B0000E947F018CB580618CBD8CB580648CBD30
:1015C0008FE00E947F0180E10E947F018091740181
:1015D0008F5F809374010FBF8091F3019091F401AC
:1015E0008F3F980709F484C02091F5013091F601EE
:1015F0002F3F320709F47CC08217930731F00E9415
:101600007F018091F5010E947F0180E00E947502B8
:1016100081E00E945E0265E070E080E090E00E9460
:10162000CC026FE584E00E94440585E590E0A0E0EF
:10163000B0E08093090290930A02A0930B02B0934A
:101640000C0267E086E00E9444058DE10E940605D9
:10165000082F0E9438058DE10E94060591E00813CD
:1016600090E090930302882341F0081302C00E9487
:10167000380560E08DE10E9444051092050260E0AB
:101680008CE10E944405109207026FE381E00E9402
:10169000440563E082E00E94440580E28093FC01FF
:1016A00001E16091FC01802F0E9444050F5F07312A
:1016B000C1F763E083E00E94440585E08093060261
:1016C0006CE40E94440560E787E00E94440582EED6
:1016D0000E94F90481EE0E94F9046CE080E00E940F
:1016E000440580E00E940605809302020E9487055F
:1016F0004091060268E171E08AE00E94180540917D
:10170000060268E171E080E10E941805E7EAF1E075
:1017100084914091060262E171E00E94180582E026
:101720000E940605E8E4F2E0E49161E070E001C0A7
:10173000660FEA95EAF7682B82E00E9444058091E3
:101740000502882351F08DE10E940605682F6D6F18
:101750008DE10E9444051092050286E00E94060574
:10176000682F676086E00E9444050E945705812F1C
:101770000E947F0160E0812F0E94ED011F5F193000
:10178000B1F73E018DE3680E711CFE0131962F0109
:101790000E9487056091020261606093020280E00E
:1017A0000E94440560E787E00E94440581E00E94B2
:1017B0007502809104028823E9F1409106026DEFE1
:1017C00071E08AE00E9418056FE070E080E090E030
:1017D0000E94CC028FEF0E94F9048091FB0190E0FF
:1017E000959587958770863008F0D9C0809107025B
:1017F000811135C08091FC01C82E813210F090E239
:10180000C92ED82EDC180E94D10481E60E94CA0499
:101810008093FB017E01FDE3EF0EF11C8701CA946A
:101820002FEFC21601F18FEF0E94CA04F7018193D6
:101830007F01F5CF82E00E940605E7E4F2E0949193
:1018400021E030E001C0220F9A95EAF72095622F3F
:10185000682382E00E94440510920402B5CFD12C87
:1018600080E2C82ED0CFDA94FFEFDF1621F08FEFA1
:101870000E94CA04F8CF0E94720260E487E00E94CE
:101880004405CE0101966C017C01AB969FAF8EAFF3
:10189000AB97F70111821082138212821582148293
:1018A00050E040E065E471E0C7010E945E06F6E0AA
:1018B000EF0EF11CE016F10661F7A5961FAE1EAE05
:1018C000A597A7961FAE1EAEA797A9961FAE1EAEF0
:1018D000A997F80101900020E9F73197AF01401B6B
:1018E000510BB801CE018D599F4F0E945E06A996FB
:1018F0008EAD9FADA997029708F440C0A9968EAC13
:101900009FACA9978114910401F1A596AEACBFAC30
:10191000A59760E270E0C5010E9487171601009745
:1019200059F07C01EA18FB0826E0C20ED11C4FEFEB
:10193000E416F40609F05BC1A114B10409F453C123
:10194000A401B501C1010E945E068D859E850097A8
:1019500009F480C10E94660EFF24F394672B682B64
:10196000692B09F0F12C8F819885009709F476C1D5
:101970000E94660E862F6F2D0E94ED01CE018D59BB
:101980009F4F0E941D0606501109C8010E941D06A6
:10199000AB968EAD9FADAB9780179107A1F70E94D4
:1019A00057056AE070E080E090E00E94CC0208EE0B
:1019B00013E0812C912C54017501640182E10E9495
:1019C0008502BC01990F880B990B0E9483142AE0B1
:1019D00038E240EA5BE30E94E2149B01AC01C701DC
:1019E000B6010E94D8156B017C0184E10E9485023A
:1019F000BC01990F880B990B0E9483142AE038E2EE
:101A000040EA5BE30E94E2149B01AC01C501B40112
:101A10000E94D8154B015C010150110979F620E0B4
:101A200030E04AE754E40E944416609375017093D5
:101A30007601809377019093780120E030E040E2D6
:101A400050E40E94D71526EA3BE944E45CE30E9497
:101A5000D81522E03BE247E85DE30E94441660931C
:101A6000790170937A0180937B0190937C0120E04F
:101A700030E04AE754E4C701B6010E94441620E072
:101A800030E040E250E40E94D71526EA3BE944E406
:101A90005CE30E94D81522E03BE247E85DE30E9448
:101AA00044166B017C0120E030E0A9010E94B616CB
:101AB00018160CF0D5C02DEC3CEC4CE45DE3C701EE
:101AC000B6010E94B61618160CF0D9C0C0927D015E
:101AD000D0927E01E0927F01F092800160917D01C1
:101AE00070917E0180917F0190918001830122E0BD
:101AF00041E00E94480E7F926F92E7E3F1E0FF938E
:101B0000EF935F924F920E949917C2010E9496052F
:101B100083E10E948502BC01990F880B990B0E94FA
:101B2000831420E030E040EA50E40E94E21420E018
:101B300030E040E85AE30E94E2142DEC3CEC4CE427
:101B40005EE30E94441622E044E00E94480E7F9229
:101B50006F9286E491E09F938F935F924F920E94E1
:101B60009917C2010E9496056091790170917A01DE
:101B700080917B0190917C0122E044E00E94480E1C
:101B80007F926F9285E591E09F938F935F924F9242
:101B90000E949917C2010E9496056091750170918B
:101BA0007601809177019091780122E044E00E94D3
:101BB000480E7F926F9284E691E09F938F935F929D
:101BC0004F920E949917C2010E9496050FB6F89491
:101BD000DEBF0FBECDBF80E090E0892B09F4D8CDE9
:101BE0000E940000D2CDC1010E940B06AECE97012B
:101BF00050E040E0BE016D597F4FCE01835A9F4FA8
:101C00000E949406BE01635A7F4FC1010E942506BF
:101C1000CE01835A9F4F0E941D06A9962EAD3FAD5F
:101C2000A997A7014F5F5F4FBE016D597F4FCE014E
:101C3000835A9F4F0E949406BE01635A7F4FCE0184
:101C40008D599F4F0E942506CE01835A9F4F0E94B7
:101C50001D0654CE60E070E0CB017ECE80E08BCEDE
:101C60002DEC3CEC4CE45DEBC701B6010E947C140A
:101C700087FF05C0F7FAF094F7F8F09427CF109299
:101C80007D0110927E0110927F011092800126CF7B
:101C9000EF920F931F93CF93DF93E80134E047FD5A
:101CA00034E1042E000C550B57FF03C051954195AC
:101CB0005109E32E022F242FAE010E947C10CE0189
:101CC000DF91CF911F910F91EF9008951F93FC0129
:101CD00099278827BC01E89411911032E9F3193053
:101CE00010F01E30C8F31B3251F01D3249F46894D5
:101CF00006C00E948D0E610F711D811D911D1191F5
:101D000010531A30B0F33EF490958095709561951C
:101D10007F4F8F4F9F4F1F910895592F482F372F77
:101D2000262F660F771F881F991F660F771F881F42
:101D3000991F620F731F841F951F660F771F881FDF
:101D4000991F0895ABE0B0E0E8EAFEE00C94A0151E
:101D50007C013B018A01FC0117821682838181FF8D
:101D6000C8C1CE0101965C01F7019381F30193FD97
:101D7000859193FF81913F01882309F453C18532F6
:101D800039F493FD859193FF81913F01853229F4C8
:101D9000B70190E00E94EE13E7CF912C212C312C5B
:101DA000FFE1F31538F08B3211F190F4803209F134
:101DB000833229F137FC3CC020ED280F2A3050F542
:101DC00036FE20C08AE0989E200D1124922E06C077
:101DD0008D3291F0803371F7689430F8F30193FD00
:101DE000859193FF81913F018111DACF21C06894E1
:101DF00031F8689432F8F2CF689433F8EFCF6894F2
:101E000034F8ECCFEAE02E9E200D1124222E6894A7
:101E100035F8E4CF8E3229F436FC04C1689436F8E4
:101E2000DDCF8C3619F4689437F8D8CF8836B1F204
:101E3000982F9F7D95549330E0F08336A1F183373E
:101E4000C1F1833509F063C02801F2E04F0E511C47
:101E5000F801C080D180692D70E036FC02C06FEFC0
:101E60007FEFC6010E94D8134C01689437F88201B5
:101E70000AC00C5F1F4FFFE3F98388248394912CE1
:101E80006501E89437F833FE2DC0522C811491047B
:101E900071F5552009F468CFB70180E290E00E9407
:101EA000EE135A94F6CFF801808189830E5F1F4F9D
:101EB000E4CF2801F2E04F0E511CF801C080D18020
:101EC000692D70E036FC02C06FEF7FEFC6010E9403
:101ED000E3134C018201D5CFB70180E290E00E946C
:101EE000EE132A942814190409F0B0F7CECFF601A6
:101EF00037FC859137FE81916F01B70190E00E9418
:101F0000EE1351105A94F1E08F1A9108BFCF843626
:101F100019F0893609F077C0F80137FE6BC060818F
:101F20007181828193810C5F1F4FF32DFF763F2ECD
:101F300097FF09C090958095709561957F4F8F4F61
:101F40009F4F689437F82AE030E0A5010E941E14E4
:101F5000C82ECA188C2C432C36FE0CC0E89440F8CE
:101F6000C91440F434FE05C032FC03C0F32DFE7EDC
:101F70004F2E892C44FE95C0FE01EC0DF11D808191
:101F8000803309F087C0242D297E422E842D88704D
:101F9000582E43FC95C040FE8FC09C2C821418F430
:101FA0002C0C922C981844FE91C0B70180E390E06D
:101FB0000E94EE1342FE09C088E790E041FE02C095
:101FC00088E590E0B7010E94EE13C91408F48AC0B6
:101FD000CA94D12C9FEFC91AD90ACA0CDB1CF6018E
:101FE00082916F01B70190E00E94EE13AC14BD0422
:101FF000B1F74FCF60817181072E000C880B990BD0
:102000000E5F1F4F92CFD32CE894D4F82AE030E033
:10201000853739F1232D297FD22E8F3601F148F4EF
:102020008835A9F0F701868197812B96E2E10C941F
:10203000BC15803749F08837A9F7D4FE02C06894F0
:10204000D2F820E130E00DC06894D4F8F6CF34FE29
:1020500003C0822F8660D82E20E132E002C028E043
:1020600030E0F801D7FE0FC06081718182819381D9
:102070000C5F1F4FA5010E941E14C82ECA183D2CCC
:10208000E89437F867CF6081718190E080E00E5F5F
:102090001F4FF0CF42FC02C0839478CF8394839487
:1020A00075CF842D867809F471CFF6CFB70180E221
:1020B00090E00E94EE1383948214C0F3512C73CFEE
:1020C000522C5818821408F46ECFF8CF842D8678DD
:1020D00009F47BCF8BE241FE80E247FC8DE2B70141
:1020E00090E071CFB70180E390E00E94EE139A94E4
:1020F0006CCF8FEF9FEF99CFA9E0B0E0E2E8F0E17D
:102100000C94A6156A01F22EB02E102FFBE3AF2E11
:10211000A01608F41BE31F5F012F27E0AE014F5FFD
:102120005F4F0E940013BC018981982F99709130F4
:1021300009F43FC09BE2E1FC04C09E2D9170E0FCDD
:102140003AC05E2D5071E82FE87083FF46C084E0EE
:10215000911101C083E0EF2DE81B8F1508F0E0E03E
:10216000D6018E2F20E2552351F1992329F0D60173
:102170009C93C60101966C0196012D5F3F4FE2FED4
:1021800024C08EE4D6018C9391E411969C93119710
:1021900012968C93D9018E2F90E281111BC0E20F11
:1021A000F32FF11D10828EEF9FEF2996ECE00C9437
:1021B000C2159DE2C6CF90E2C4CF2D93815081110C
:1021C000FCCFCE0ED11CE0E0D0CF8EE6D6018C93B2
:1021D00091E6DBCF9D938150E0CF482F447082FF82
:1021E0003DC084E0911101C083E08F1510F4EF2D04
:1021F000E81BD6018E2F20E2552309F1992329F0FF
:10220000D6019C93C60101966C0196012D5F3F4F4C
:10221000E2FE1BC089E4D6018C938EE411968C9368
:10222000119786E412968C93D9018E2F90E2882321
:1022300009F4B5CF9D938150FACF2D938150811130
:10224000FCCFCE0ED11CE0E0D9CF89E6D6018C932D
:102250008EE611968C93119786E6E4CF9B0177FF6B
:1022600002C030E020E0A1E0B0E0911102C0B0E097
:10227000A0E0F9013196AE0FBF1F8B2C912CBB2033
:1022800009F461C05401EFEFAE1ABE0AAA0DBB1DDE
:10229000FA161B0619F014F04F2D4A1B511188C075
:1022A000E3FC59C07601A42FB0E2A1114FC0C40EC7
:1022B000D11C992309F45BC040E0D6011196F601C8
:1022C00090836D01552309F448C0012F060F9A81B0
:1022D000582F507184FF03C0913309F40150101638
:1022E0000CF047C0093008F008E0EEE2FE2E5B017A
:1022F000A01AB10885019194819491082F3F32076B
:1023000029F4D601FC92F60131966F01621773072A
:1023100094F1021713077CF5DB01A21BB30BAA246F
:10232000A394B12CAC0EBD1EAA0DBB1D11968C91B1
:1023300021503109D601119628153905F4F0F6011E
:1023400080836D01DBCFB12CA12CA0CFF701B1931D
:102350007F01A150AACF9111B0CFD601942F50E3A5
:1023600002C05D9391509111FCCFC40ED11C40E08E
:10237000ACCF01E0BACF80E3DBCF6217730731F453
:10238000963388F4953311F4552369F0F601808370
:10239000FD01842F90E2811108C0A40FB11D1C9291
:1023A00090E080E002CF81E3F1CF91938150F3CFB1
:1023B000911183CF8ACF0F931F93CF93DF938230F6
:1023C000910510F482E090E0E0911302F091140284
:1023D00030E020E0B0E0A0E0309799F4211531051D
:1023E00009F44AC0281B390B24303105D8F58A81FD
:1023F0009B816115710589F1FB0193838283FE0145
:1024000011C0408151810281138148175907E0F0C2
:102410004817590799F4109761F012960C93129788
:1024200013961C933296CF01DF91CF911F910F919C
:1024300008950093130210931402F4CF211531056F
:1024400051F04217530738F0A901DB019A01BD0191
:10245000DF01F801C1CFEF01F9CF9093140280930F
:102460001302CDCFFE01E20FF31F8193919322500F
:10247000310939832883D7CF20911102309112027C
:10248000232B41F420910E0130910F013093120261
:102490002093110220910C0130910D01211531057D
:1024A00041F42DB73EB74091100150911101241B0A
:1024B000350BE0911102F0911202E217F307A0F43C
:1024C0002E1B3F0B2817390778F0AC014E5F5F4F8A
:1024D0002417350748F04E0F5F1F509312024093A8
:1024E0001102819391939FCFF0E0E0E09CCFCF93D6
:1024F000DF930097E9F0FC01329713821282A091DA
:102500001302B0911402ED0130E020E01097A1F425
:1025100020813181820F931F20911102309112028C
:102520002817390709F061C0F0931202E0931102F5
:10253000DF91CF910895EA01CE17DF07E8F54A81D0
:102540005B819E0141155105B1F7E901FB83EA83E7
:1025500049915991C40FD51FEC17FD0761F4808193
:1025600091810296840F951FE90199838883828166
:1025700093819B838A83F0E0E0E012968D919C9199
:1025800013970097B9F52D913C911197CD010296C3
:10259000820F931F209111023091120228173907E0
:1025A00039F6309751F51092140210921302B0933D
:1025B0001202A0931102BCCFD383C2834081518108
:1025C000840F951FC817D90761F44E5F5F4F88814C
:1025D0009981480F591F518340838A819B8193833E
:1025E00082832115310509F0B0CFF0931402E093F6
:1025F00013029ECFFD01DC01C0CF13821282D7CF20
:10260000283008F027E03327DA01990F311D87FDC4
:10261000916000966105710539F432602E5F3D933B
:1026200030E32A95E1F708959F3F30F08038710537
:10263000610509F03C5F3C5F3D93913008F0806894
:10264000911DDF93CF931F930F93FF92EF92192F5A
:10265000987F9695E92F96959695E90FFF27EA5F63
:10266000FE4F99273327EE24FF24A701E7010590A9
:102670000894079428F4360FE71EF81E491F511DD1
:10268000660F771F881F991F0694A1F7059007947E
:1026900028F4E70EF81E491F561FC11D770F881F2B
:1026A000991F661F0694A1F70590079428F4F80E69
:1026B000491F561FC71FD11D880F991F661F771FFF
:1026C0000694A1F70590079420F4490F561FC71FE1
:1026D000D81F990F661F771F881F0694A9F784914A
:1026E0001095177041F0D695C79557954795F79473
:1026F000E7941A95C1F7ECEAF0E06894159015910B
:1027000035916591959105907FE27395E118F10AF5
:10271000430B560BC90BD009C0F7E10CF11E431F48
:10272000561FC91FD01D7EF4703311F48A95E6CF71
:10273000E894015030F0080F0AF40027021708F45B
:10274000202F2395022F7A3328F079E37D932A9561
:10275000E9F710C07D932A9589F6069497956795B9
:10276000379517951794E118F10A430B560BC90BCF
:10277000D00998F023957E9173957A3308F070E331
:102780007C932013B8F77E9170617D9330F0839530
:1027900071E37D9370E32A95E1F71124EF90FF90A8
:1027A0000F911F91CF91DF91992787FD9095089503
:1027B000FC010590615070400110D8F7809590950C
:1027C0008E0F9F1F0895FC01615070400190011011
:1027D000D8F7809590958E0F9F1F08950F931F93A4
:1027E000CF93DF93182F092FEB018B8181FD09C057
:1027F0001FEF0FEF812F902FDF91CF911F910F913E
:10280000089582FF14C02E813F818C819D812817FD
:1028100039073CF4E881F981CF01019699838883D7
:1028200010838E819F8101969F838E83E3CFE885FD
:10283000F985812F0995892BA1F3DACFFA01AA270F
:10284000283051F1203181F1E8946F936E7F6E5FF3
:102850007F4F8F4F9F4FAF4FB1E03ED0B4E03CD0A1
:10286000670F781F891F9A1FA11D680F791F8A1F84
:10287000911DA11D6A0F711D811D911DA11D20D0EB
:1028800009F468943F912AE0269F11243019305DA5
:102890003193DEF6CF010895462F4770405D419396
:1028A000B3E00FD0C9F7F6CF462F4F70405D4A33E3
:1028B00018F0495D31FD4052419302D0A9F7EACFAB
:1028C000B4E0A6959795879577956795BA95C9F7DA
:1028D00000976105710508959B01AC010A2E0694CD
:1028E0005795479537952795BA95C9F7620F731F86
:1028F000841F951FA01D08950E94BE1408F481E056
:102900000895E89409C097FB3EF4909580957095E2
:1029100061957F4F8F4F9F4F9923A9F0F92F96E92B
:10292000BB279395F695879577956795B795F111A0
:10293000F8CFFAF4BB0F11F460FF1BC06F5F7F4F3D
:102940008F4F9F4F16C0882311F096E911C077234F
:1029500021F09EE8872F762F05C0662371F096E858
:10296000862F70E060E02AF09A95660F771F881F27
:10297000DAF7880F9695879597F90895990F0008CB
:10298000550FAA0BE0E8FEEF16161706E807F90741
:10299000C0F012161306E407F50798F0621B730BDC
:1029A000840B950B39F40A2661F0232B242B252B5D
:1029B00021F408950A2609F4A140A6958FEF811D00
:1029C000811D08950E94F5140C9466150E945815F7
:1029D00038F00E945F1520F0952311F00C944F15EC
:1029E0000C94551511240C949A150E94771570F3C8
:1029F000959FC1F3950F50E0551F629FF001729FA4
:102A0000BB27F00DB11D639FAA27F00DB11DAA1FB2
:102A1000649F6627B00DA11D661F829F2227B00DFF
:102A2000A11D621F739FB00DA11D621F839FA00D8A
:102A3000611D221F749F3327A00D611D231F849FDA
:102A4000600D211D822F762F6A2F11249F57504031
:102A50009AF0F1F088234AF0EE0FFF1FBB1F661FAC
:102A6000771F881F91505040A9F79E3F510580F075
:102A70000C944F150C949A155F3FE4F3983ED4F3F1
:102A8000869577956795B795F795E7959F5FC1F719
:102A9000FE2B880F911D9695879597F9089597F9C4
:102AA0009F6780E870E060E008959FEF80EC0895F4
:102AB00000240A941616170618060906089500241D
:102AC0000A9412161306140605060895092E039497
:102AD000000C11F4882352F0BB0F40F4BF2B11F40B
:102AE00060FF04C06F5F7F4F8F4F9F4F089557FD6A
:102AF0009058440F551F59F05F3F71F04795880F6C
:102B000097FB991F61F09F3F79F087950895121602
:102B100013061406551FF2CF4695F1DF08C01616AE
:102B200017061806991FF1CF86957105610508945F
:102B30000895E894BB2766277727CB0197F9089576
:102B40002F923F924F925F926F927F928F929F92BD
:102B5000AF92BF92CF92DF92EF92FF920F931F93AB
:102B6000CF93DF93CDB7DEB7CA1BDB0B0FB6F8945C
:102B7000DEBF0FBECDBF09942A88398848885F849C
:102B80006E847D848C849B84AA84B984C884DF800D
:102B9000EE80FD800C811B81AA81B981CE0FD11DF1
:102BA0000FB6F894DEBF0FBECDBFED0108955058AB
:102BB000BB27AA270E94EF150C9466150E94581592
:102BC00038F00E945F1520F039F49F3F19F426F485
:102BD0000C9455150EF4E095E7FB0C944F15E92F76
:102BE0000E94771558F3BA17620773078407950791
:102BF00020F079F4A6F50C9499150EF4E0950B2EBF
:102C0000BA2FA02D0B01B90190010C01CA01A0013E
:102C10001124FF27591B99F0593F50F4503E68F199
:102C20001A16F040A22F232F342F4427585FF3CFDA
:102C3000469537952795A795F0405395C9F77EF4AB
:102C40001F16BA0B620B730B840BBAF09150A1F0F4
:102C5000FF0FBB1F661F771F881FC2F70EC0BA0F7A
:102C6000621F731F841F48F4879577956795B79502
:102C7000F7959E3F08F0B0CF9395880F08F09927FD
:102C8000EE0F9795879508950E9458160C94661537
:102C90000E945F1558F00E94581540F029F45F3FDC
:102CA00029F00C944F1551110C949A150C9455154C
:102CB0000E94771568F39923B1F3552391F3951B7F
:102CC000550BBB27AA2762177307840738F09F5F4D
:102CD0005F4F220F331F441FAA1FA9F335D00E2EBA
:102CE0003AF0E0E832D091505040E695001CCAF727
:102CF0002BD0FE2F29D0660F771F881FBB1F2617EA
:102D000037074807AB07B0E809F0BB0B802DBF01C0
:102D1000FF2793585F4F3AF09E3F510578F00C948F
:102D20004F150C949A155F3FE4F3983ED4F38695C3
:102D300077956795B795F7959F5FC9F7880F911DB0
:102D40009695879597F90895E1E0660F771F881F9C
:102D5000BB1F621773078407BA0720F0621B730B4F
:102D6000840BBA0BEE1F88F7E09508950E94BE14FD
:102D700008F48FEF0895EE0FFF1F0590F491E02DFA
:102D80000994B0E0A0E0E7ECF6E10C94A2158C0108
:102D9000009751F4CB010E94DB118C01C801CDB723
:102DA000DEB7E0E10C94BE15FC01E60FF71F9C01B5
:102DB00022503109E217F30708F49DC0D901CD91E3
:102DC000DC911197C617D70798F0C530D10530F3BD
:102DD000CE0104978617970708F3C61BD70B2297D7
:102DE000C193D1936D937C93CF010E947712D6CF7C
:102DF0005B01AC1ABD0A4C018C0E9D1EA091130202
:102E0000B0911402512C412CF12CE12C109731F58A
:102E100080911102909112028815990509F05CC009
:102E20004616570608F058C080910C0190910D018C
:102E3000009741F48DB79EB7409110015091110158
:102E4000841B950BE817F90708F055C0F0931202A0
:102E5000E0931102F90171836083A0CF8D919C9161
:102E6000119712966C90129713967C901397A81551
:102E7000B90559F56C0142E0C40ED11CCA14DB043B
:102E800020F1AC014A195B09DA011296159780F01E
:102E90006282738251834083D9016D937C93E114E4
:102EA000F10471F0D7011396FC93EE93129776CF4D
:102EB00022968C0F9D1FF90191838083F301EFCF40
:102EC000F0931402E093130269CF4816590608F4F0
:102ED0002C017D01D3019ACFCB010E94DB117C0133
:102EE000009749F0AE01B8010E947E17C8010E9408
:102EF0007712870153CF10E000E050CFFB01DC01D7
:102F000002C001900D9241505040D8F70895FC0145
:102F10008191861721F08823D9F799270895319751
:102F2000CF010895FB01DC0101900D920020E1F733
:102F30000895AEE0B0E0EFE9F7E10C94AE150D892D
:102F40001E8986E08C831A8309838FEF9FE79E8317
:102F50008D83AE01475E5F4F6F89788DCE010196FC
:102F60000E94A20E2F813885020F131FF8011082D4
:0C2F70002E96E4E00C94CA15F894FFCFF4
:102F7C00FFFFFFFF00E10000000000000000150251
:102F8C00800032363935370031343836330000C1E1
:102F9C008081000000000000004904C4036A045F43
:102FAC0004B0046E048C0473657473656E736F7275
:102FBC0020312025730073657473656E736F7220F6
:102FCC00322025730073657473656E736F722033D2
:102FDC002025730073657473656E736F72203420D3
:042FEC002573000049
:00000001FF
