:100000000C9463000C948B000C948B000C948B006C
:100010000C948B000C948B000C948B000C948B0034
:100020000C948B000C948B000C948B000C948B0024
:100030000C948B000C948B000C948B000C948B0014
:100040000C948C040C948B000C94FC040C94D6043B
:100050000C948B000C948B000C948B000C948B00F4
:100060000C948B000C948B000A0B0C0D0E0F0000EF
:100070000008000201000003040700000000000067
:100080000000000102030405000000002500280014
:100090002B0000000000240027002A0004040404B0
:1000A0000404040402020202020203030303030322
:1000B00001020408102040800102040810200102FF
:1000C000040810202E0511241FBECFEFD8E0DEBF9C
:1000D000CDBF11E0A0E0B1E0ECE5FCE102C005908D
:1000E0000D92A833B107D9F722E0A8E3B1E001C02F
:1000F0001D92A430B207E1F710E0C3E6D0E004C0DF
:100100002197FE010E942B0DC236D107C9F70E942C
:1001100082050C942C0E0C94000090E0FC01E0553C
:10012000FF4F249184569F4FFC018491882399F0BE
:1001300090E0880F991FFC01EE56FF4FA591B491F6
:10014000FC01E857FF4F859194918FB7F894EC919B
:10015000E22BEC938FBF089590E0FC01E259FF4F32
:100160002491FC01E055FF4F3491FC01E456FF4F10
:10017000E491EE23C9F0222339F0233001F1A8F4F1
:10018000213019F1223029F1F0E0EE0FFF1FE8577E
:10019000FF4FA591B4918FB7F894EC91611126C0EF
:1001A00030953E233C938FBF08952730A9F0283027
:1001B000C9F0243049F7809180008F7D03C0809181
:1001C00080008F7780938000DFCF84B58F7784BDE8
:1001D000DBCF84B58F7DFBCF8091B0008F7780938C
:1001E000B000D2CF8091B0008F7DF9CF3E2BDACF17
:1001F000682F8091E4010E94AC008091FC019091F5
:10020000FD018230910538F0880F991F880F991FE2
:1002100005970197F1F7089581E00C94F80020917B
:10022000E2013091E3014091E4015091E50124178E
:10023000350721F0682F822F0C94AC0008953FB74A
:10024000F89480913A0190913B01A0913C01B091CA
:100250003D0126B5A89B05C02F3F19F00196A11DB1
:10026000B11D3FBFBA2FA92F982F8827BC01CD0100
:10027000620F711D811D911D42E0660F771F881F5F
:10028000991F4A95D1F708958F929F92AF92BF928E
:10029000CF92DF92EF92FF924B015C010E941F010F
:1002A0006B017C010E941F016C197D098E099F0959
:1002B000683E734081059105A8F321E0821A9108F8
:1002C000A108B10888EEC80E83E0D81EE11CF11C1D
:1002D00081149104A104B10429F7FF90EF90DF90FD
:1002E000CF90BF90AF909F908F9008950895AF9258
:1002F000BF92CF92DF92EF92FF920F931F93CF9313
:10030000DF936C017B018B01040F151FEB015E0174
:10031000AE18BF08C017D10759F06991D601ED9109
:10032000FC910190F081E02DC6010995892B79F7A8
:10033000C501DF91CF911F910F91FF90EF90DF905A
:10034000CF90BF90AF900895FC01538D448D252F21
:1003500030E0842F90E0821B930B541710F0CF965F
:10036000089501970895FC01918D828D981761F091
:10037000A28DAE0FBF2FB11D5D968C91928D9F5FA8
:100380009F73928F90E008958FEF9FEF08952FB79E
:10039000F89480913E0190913F01A0914001B0916D
:1003A00041012FBF80934A0190934B01A0934C01D0
:1003B000B0934D0182E491E00E94B30197FF26C003
:1003C0002FB7F89480913E0190913F01A091400198
:1003D000B09141012FBF40914A0150914B01609172
:1003E0004C0170914D01841B950BA60BB70B4091EE
:1003F000460150914701609148017091490184176D
:100400009507A607B707B0F28FEF9FEF0895FC019D
:10041000918D828D981731F0828DE80FF11D858DB9
:1004200090E008958FEF9FEF0895FC01918D228D4C
:10043000892F90E0805C9F4F821B91098F739927D1
:10044000089582E491E00E94150221E0892B09F4CD
:1004500020E0822F089580E090E0892B29F00E940F
:10046000210281110C9400000895FC01A48DA80FB5
:10047000B92FB11DA35ABF4F2C91848D90E00196E6
:100480008F739927848FA689B7892C93A089B18906
:100490008C91837080648C93938D848D981306C0A7
:1004A0000288F389E02D80818F7D80830895EF920B
:1004B000FF920F931F93CF93DF93EC0181E0888F1E
:1004C0009B8D8C8D98131AC0E889F989808185FFEE
:1004D00015C09FB7F894EE89FF896083E889F98990
:1004E00080818370806480839FBF81E090E0DF9192
:1004F000CF911F910F91FF90EF900895F62E0B8DE5
:1005000010E00F5F1F4F0F731127E02E8C8D8E119F
:100510000CC00FB607FCFACFE889F989808185FF06
:10052000F5CFCE010E943502F1CFEB8DEC0FFD2F00
:10053000F11DE35AFF4FF0829FB7F8940B8FEA89C1
:10054000FB8980818062CFCFCF93DF93EC01888DD0
:100550008823B9F0AA89BB89E889F9898C9185FD3E
:1005600003C0808186FD0DC00FB607FCF7CF8C91CC
:1005700085FFF2CF808185FFEDCFCE010E9435024D
:10058000E9CFDF91CF9108958EBD00000DB407FE35
:10059000FDCF8EB508950F931F930091E601109142
:1005A000E7012091E8013091E90140E052E16AE77A
:1005B00070E080E0041715072607370740F47695AA
:1005C0006795579547958F5F8630A1F787E0982FFD
:1005D000906A9695809581709CBD8DBD80E01F913D
:1005E0000F910C94F800CF93C82F0E94CB028C2F50
:1005F00080620E94C4028093EA01CF910C940C01A6
:10060000CF93C82F0E94CB028C2F0E94C4028093EC
:10061000EA018FEF0E94C402C82F0E940C018C2FA8
:10062000CF910895FF920F931F93CF93DF93C82F1D
:10063000F62E072F142F0E94CB028C2F80620E946F
:10064000C4028093EA01CF2DD02F115020F0899160
:100650000E94C402FACFDF91CF911F910F91FF90BA
:100660000C940C010E94CB0280E50E94C40280938E
:10067000EA0183E70E94C4020C940C01CF93DF933C
:10068000D82FC62F0E94CB028D2F80620E94C402F9
:100690008093EA018C2F0E94C402DF91CF910C94C9
:1006A0000C0180E00E940F018091F8019091F90106
:1006B0008230910538F0880F991F880F991F059790
:1006C0000197F1F78091F401882319F081EE0E94DF
:1006D000F3026091F1016E7F6093F10180E00E946E
:1006E0003E0382E00E940003E2E8F0E0E49161E072
:1006F00070E001C0660FEA95EAF7682B82E00C947F
:100700003E036091F10161FD0AC062606093F101F6
:1007100080E00E943E038BE19EE40197F1F708958B
:10072000CF93DF93EC0188819981009711F00E94AB
:10073000C70B198218821D821C821B821A82DF91CC
:10074000CF910895FC0180819181009711F00C9464
:10075000C70B08950F931F93CF93DF938C01EB0189
:10076000FC01808191810097E1F0688179816115B8
:100770007105A9F0428153812C813D8142175307B5
:1007800070F00E94020E8C819D81F8019583848314
:100790001D821C82DF91CF911F910F9108950E94BD
:1007A000C70B88819981F801918380838A819B811D
:1007B000938382838C819D8195838483198218829F
:1007C0001B821A82E5CF0F931F93CF93DF93EC0127
:1007D00088819981009759F02A813B812617370734
:1007E00030F081E0DF91CF911F910F9108958B013F
:1007F0006F5F7F4F0E94310D009759F09983888376
:100800001B830A832C813D81232B59F7FC01108225
:10081000E8CF80E0E7CFEF92FF920F931F93CF9343
:10082000DF93EC017B018A01BA010E94E30381118D
:100830000BC0CE010E949003CE01DF91CF911F919A
:100840000F91FF90EF9008951D830C83B70188816D
:1008500099810E94020EF0CF50E040E066E371E023
:100860000C940B04AF92BF92CF92DF92EF92FF9263
:100870000F931F93CF93DF93EC016B015A01790122
:100880002417350720F48B2D5901E42EF82E1982F8
:1008900018821B821A821D821C82CE010E942C04A7
:1008A000D60114960D911C91A016B10628F5E016FC
:1008B000F10608F48701D601ED91FC911197E00F44
:1008C000F11FF08010826D917C916A0D7B1D611586
:1008D0007105F1F0FB0101900020E9F73197AF01BC
:1008E000461B570BCE010E940B04F60180819181BB
:1008F000080F191FD801FC92CE01DF91CF911F91F3
:100900000F91FF90EF90DF90CF90BF90AF90089540
:10091000CE010E949003E9CF1F920F920FB60F9263
:1009200011242F933F938F939F93AF93BF93809105
:100930003E0190913F01A0914001B0914101309161
:10094000390123E0230F2D3758F50196A11DB11D64
:100950002093390180933E0190933F01A093400181
:10096000B093410180913A0190913B01A0913C01EB
:10097000B0913D010196A11DB11D80933A01909364
:100980003B01A0933C01B0933D01BF91AF919F917A
:100990008F913F912F910F900FBE0F901F90189540
:1009A00026E8230F0296A11DB11DD2CF1F920F92F0
:1009B0000FB60F9211242F933F934F935F936F9332
:1009C0007F938F939F93AF93BF93EF93FF9382E4B3
:1009D00091E00E943502FF91EF91BF91AF919F91FD
:1009E0008F917F916F915F914F913F912F910F90D8
:1009F0000FBE0F901F9018951F920F920FB60F9277
:100A000011242F938F939F93EF93FF93E0915201C3
:100A1000F09153018081E0915801F091590182FDDC
:100A20001BC0908180915B018F5F8F7320915C016F
:100A3000821741F0E0915B01F0E0EE5BFE4F958F95
:100A400080935B01FF91EF919F918F912F910F9078
:100A50000FBE0F901F9018958081F4CFE2E4F1E073
:100A60001382128288EE93E0A0E0B0E08483958345
:100A7000A683B78386E191E09183808385EC90E043
:100A80009587848784EC90E09787868780EC90E058
:100A9000918B808B81EC90E0938B828B82EC90E049
:100AA000958B848B86EC90E0978B868B118E128EC3
:100AB000138E148EE0EEF1E089E090E09383828360
:100AC0008AE090E09583848380E896E9A8E9B0E025
:100AD00086839783A087B18780E28387128A138AEF
:100AE00085E0858B81E0868B85E090E0A0E0B0E03A
:100AF000848F958FA68FB78F8FED91E09183808340
:100B000014860895CF93DF93CDB7DEB7CA55D109C8
:100B10000FB6F894DEBF0FBECDBF789484B5826067
:100B200084BD84B5816084BD85B5826085BD85B591
:100B3000816085BD80916E00816080936E0010920F
:100B4000810080918100826080938100809181008A
:100B5000816080938100809180008160809380001B
:100B60008091B10084608093B1008091B000816079
:100B70008093B00080917A00846080937A008091A5
:100B80007A00826080937A0080917A0081608093FD
:100B90007A0080917A00806880937A001092C10078
:100BA000E0915201F091530182E08083E0914E0187
:100BB000F0914F011082E0915001F09151018FECC2
:100BC000808310925A01E0915601F091570186E01E
:100BD0008083E0915401F091550180818061808390
:100BE000E0915401F0915501808188608083E0910B
:100BF0005401F0915501808180688083E091540117
:100C0000F091550180818F7D80831FB7F89480918A
:100C10003801811124C0E6EAF0E08491EAEBF0E0CB
:100C20009491E82FF0E0EE0FFF1FEE56FF4FA591D5
:100C3000B491EC91E92321F461E08AE00E94AC00D8
:100C40008AE00E948D008CB580618CBD8CB580647B
:100C50008CBD8DE00E948D008BE00E948D00809104
:100C600038018F5F809338011FBF8091E20190911E
:100C7000E3018F3F980709F484C02091E40130918B
:100C8000E5012F3F320709F47CC08217930731F04A
:100C90000E948D008091E4010E948D0080E00E94FE
:100CA0000F0181E00E94F80065E070E080E090E0D4
:100CB0000E9444016FE584E00E943E0385E590E0D8
:100CC000A0E0B0E08093F8019093F901A093FA01BD
:100CD000B093FB0167E086E00E943E038DE10E9435
:100CE0000003182F0E9432038DE10E94000391E05F
:100CF000181390E09093F201882341F0181302C07A
:100D00000E94320360E08DE10E943E031092F401E4
:100D100060E08CE10E943E031092F6016FE381E0F7
:100D20000E943E0363E082E00E943E0380E28093E3
:100D3000EB0111E16091EB01812F0E943E031F5FE7
:100D40001731C1F763E083E00E943E0385E08093A2
:100D5000F5016CE40E943E0360E787E00E943E03D9
:100D600082EE0E94F30281EE0E94F3026CE080E0CA
:100D70000E943E0380E00E9400038093F1010E94E4
:100D800081034091F5016CE071E08AE00E9412035A
:100D90004091F5016CE071E080E10E941203E9E608
:100DA000F0E084914091F50166E071E00E94120349
:100DB00082E00E940003E3E8F0E0E49161E070E08B
:100DC00001C0660FEA95EAF7682B82E00E943E03B5
:100DD0008091F401882351F08DE10E940003682F77
:100DE0006D6F8DE10E943E031092F40186E00E9437
:100DF0000003682F676086E00E943E030E94510353
:100E000012E0812F0E948D0060E0812F0E94AC00D3
:100E10001F5F1530B1F761E082E00E94AC008E01E7
:100E2000035C1F4F50E0452E50E0552E0E945103A9
:100E30006AE070E080E090E00E944401CE010196FB
:100E40006C017C015C01F701118210821382128215
:100E500015821482C7010E942C04F6E0EF0EF11CEB
:100E6000E016F10681F767961FAE1EAE679769968A
:100E70001FAE1EAE69976B961FAE1EAE6B97CE016E
:100E80008B5A9F4F0E942C040E94C7016B96EEACB8
:100E9000FFAC6B9797FD22C08A309105F9F08DAFBA
:100EA0001EAE2FEFE21AF20AB701CE018B5A9F4F06
:100EB0000E94E303882341F367962EAD3FAD679709
:100EC0006B968EAD9FAD6B97B801820F931F0E94FA
:100ED000020E6B96FFAEEEAE6B97D6CF42E0E416F5
:100EE000F10408F4DFC061E084E00E94AC006B967E
:100EF0006EAC7FAC6B976114710401F167968EAC98
:100F00009FAC679760E270E0C4010E94F70D160184
:100F1000009759F07C01E818F90886E0C80ED11C4A
:100F20009FEFE916F90609F057C08114910409F4FE
:100F30004FC0A301B401C1010E940B048D859E85A1
:100F4000009709F470C00E94150921E0E12C672B7D
:100F5000682B692B09F420E0F22E8F81988560E0E0
:100F600070E0009711F00E941509EF92FF927F93B5
:100F70006F93E4E2F1E0FF93EF931F930F930E94CE
:100F8000090E0FB6F894DEBF0FBECDBF8091F601FB
:100F9000D12C38E1C32E811109C08091EB01C82EFC
:100FA000893110F048E1C42ED82EDC180E94CB0203
:100FB00080EA0E94C4028093EA017801CA949FEFFC
:100FC000C916A9F1F70181917F010E94C402F6CFF1
:100FD000C1010E949003B2CF970150E040E0BE01F2
:100FE0006B5A7F4FC8010E943204B801C1010E94B0
:100FF000AA03C8010E94A2036B962EAD3FAD6B976A
:10100000A7014F5F5F4FBE016B5A7F4FC8010E941F
:101010003204B801CE018B5A9F4F0E94AA03C80127
:101020000E94A20364CF60E070E0CB018ECFDA941F
:10103000FFEFDF1621F080E00E94C402F8CF0E948B
:101040000C0181E00E940F018FB7F894C0903E011F
:10105000D0903F01E0904001F09041018FBF8FEFB1
:101060000E94F3028091EA01807309F083C02FB7D8
:10107000F89480913E0190913F01A0914001B09180
:1010800041012FBF8C199D09AE09BF09803691051A
:10109000A105B10520F381E08093F70160E084E0D1
:1010A0000E94AC00CE018B5A9F4F0E94A203780190
:1010B00026E0E21AF108C7010E94A203AE14BF04A1
:1010C000B9F761E070E080E090E00E94440161E0E7
:1010D00083E00E94AC000E9481036091F101616095
:1010E0006093F10180E00E943E0360E787E00E9488
:1010F0003E0381E00E940F018091F301882309F4EF
:1011000048C04091F5016CEE71E08AE00E94120344
:101110006DE070E080E090E00E9444018FEF0E945B
:10112000F3028091EA0190E095958795877086306B
:1011300008F06BC08091F601811140C08091EB01F5
:10114000C82E893110F098E1C92ED82EDC180E94E3
:10115000CB0281E60E94C4028093EA017501CA9421
:10116000FFEFCF1679F18FEF0E94C402F701819350
:101170007F01F5CF80E00E940F0160E787E00E94C9
:101180003E038091EA0184FF89CF81EE0E94F30241
:1011900085CF82E00E940003E2E8F0E0949121E034
:1011A00030E001C0220F9A95EAF72095622F68235C
:1011B00082E00E943E031092F301AACFD12C88E175
:1011C000C82EC5CFDA94FFEFDF1621F08FEF0E9413
:1011D000C402F8CF0E940C0160E487E00E943E0345
:1011E000F50101900020E9F73197AF014A195B0939
:1011F000B50182E491E00E94770142E050E064E3AF
:1012000071E082E491E00E94770160E083E00E9457
:10121000AC004114510409F409CE0E942102882334
:1012200009F404CE0E940000FDCD1F93FC01992714
:101230008827BC01E89411911032E9F3193010F0BD
:101240001E30C8F31B3251F01D3249F4689406C0B9
:101250000E943C09610F711D811D911D1191105358
:101260001A30B0F33EF490958095709561957F4F5C
:101270008F4F9F4F1F910895592F482F372F262F9B
:10128000660F771F881F991F660F771F881F991F8A
:10129000620F731F841F951F660F771F881F991F8A
:1012A0000895ABE0B0E0E7E5F9E00C94F40C7C01C4
:1012B0003B018A01FC0117821682838181FFC8C12C
:1012C000CE0101965C01F7019381F30193FD8591B5
:1012D00093FF81913F01882309F453C1853239F48A
:1012E00093FD859193FF81913F01853229F4B701E8
:1012F00090E00E94660CE7CF912C212C312CFFE16D
:10130000F31538F08B3211F190F4803209F1833209
:1013100029F137FC3CC020ED280F2A3050F536FE6D
:1013200020C08AE0989E200D1124922E06C08D3296
:1013300091F0803371F7689430F8F30193FD859153
:1013400093FF81913F018111DACF21C0689431F878
:10135000689432F8F2CF689433F8EFCF689434F899
:10136000ECCFEAE02E9E200D1124222E689435F851
:10137000E4CF8E3229F436FC04C1689436F8DDCF10
:101380008C3619F4689437F8D8CF8836B1F2982F94
:101390009F7D95549330E0F08336A1F18337C1F1FE
:1013A000833509F063C02801F2E04F0E511CF801AB
:1013B000C080D180692D70E036FC02C06FEF7FEFF6
:1013C000C6010E94500C4C01689437F882010AC093
:1013D0000C5F1F4FFFE3F98388248394912C6501F0
:1013E000E89437F833FE2DC0522C8114910471F526
:1013F000552009F468CFB70180E290E00E94660CA6
:101400005A94F6CFF801808189830E5F1F4FE4CF95
:101410002801F2E04F0E511CF801C080D180692DE7
:1014200070E036FC02C06FEF7FEFC6010E945B0CDC
:101430004C018201D5CFB70180E290E00E94660C9A
:101440002A942814190409F0B0F7CECFF60137FC1E
:10145000859137FE81916F01B70190E00E94660C83
:1014600051105A94F1E08F1A9108BFCF843619F0C9
:10147000893609F077C0F80137FE6BC06081718151
:10148000828193810C5F1F4FF32DFF763F2E97FFD4
:1014900009C090958095709561957F4F8F4F9F4FB4
:1014A000689437F82AE030E0A5010E94960CC82E17
:1014B000CA188C2C432C36FE0CC0E89440F8C91492
:1014C00040F434FE05C032FC03C0F32DFE7E4F2EE7
:1014D000892C44FE95C0FE01EC0DF11D8081803306
:1014E00009F087C0242D297E422E842D8870582E25
:1014F00043FC95C040FE8FC09C2C821418F42C0C29
:10150000922C981844FE91C0B70180E390E00E94AD
:10151000660C42FE09C088E790E041FE02C088E503
:1015200090E0B7010E94660CC91408F48AC0CA94FE
:10153000D12C9FEFC91AD90ACA0CDB1CF601829183
:101540006F01B70190E00E94660CAC14BD04B1F7C6
:101550004FCF60817181072E000C880B990B0E5FB5
:101560001F4F92CFD32CE894D4F82AE030E085378F
:1015700039F1232D297FD22E8F3601F148F4883599
:10158000A9F0F701868197812B96E2E10C94100D6A
:10159000803749F08837A9F7D4FE02C06894D2F8A2
:1015A00020E130E00DC06894D4F8F6CF34FE03C0DB
:1015B000822F8660D82E20E132E002C028E030E0A1
:1015C000F801D7FE0FC060817181828193810C5F29
:1015D0001F4FA5010E94960CC82ECA183D2CE894F6
:1015E00037F867CF6081718190E080E00E5F1F4F18
:1015F000F0CF42FC02C0839478CF8394839475CF5C
:10160000842D867809F471CFF6CFB70180E290E09F
:101610000E94660C83948214C0F3512C73CF522C19
:101620005818821408F46ECFF8CF842D867809F408
:101630007BCF8BE241FE80E247FC8DE2B70190E078
:1016400071CFB70180E390E00E94660C9A946CCF52
:101650008FEF9FEF99CF0F931F93CF93DF9382303C
:10166000910510F482E090E0E0910202F091030213
:1016700030E020E0B0E0A0E0309799F4211531058A
:1016800009F44AC0281B390B24303105D8F58A816A
:101690009B816115710589F1FB0193838283FE01B2
:1016A00011C0408151810281138148175907E0F030
:1016B0004817590799F4109761F012960C931297F6
:1016C00013961C933296CF01DF91CF911F910F910A
:1016D00008950093020210930302F4CF21153105FF
:1016E00051F04217530738F0A901DB019A01BD01FF
:1016F000DF01F801C1CFEF01F9CF9093030280938E
:101700000202CDCFFE01E20FF31F8193919322508D
:10171000310939832883D7CF20910002309101020B
:10172000232B41F4209102013091030130930102F7
:101730002093000220910001309101012115310513
:1017400041F42DB73EB74091040150910501241B8F
:10175000350BE0910002F0910102E217F307A0F4CB
:101760002E1B3F0B2817390778F0AC014E5F5F4FF7
:101770002417350748F04E0F5F1F50930102409326
:101780000002819391939FCFF0E0E0E09CCFCF9354
:10179000DF930097E9F0FC01329713821282A09147
:1017A0000202B0910302ED0130E020E01097A1F4B5
:1017B00020813181820F931F20910002309101021C
:1017C0002817390709F061C0F0930102E093000285
:1017D000DF91CF910895EA01CE17DF07E8F54A813E
:1017E0005B819E0141155105B1F7E901FB83EA8355
:1017F00049915991C40FD51FEC17FD0761F4808101
:1018000091810296840F951FE901998388838281D3
:1018100093819B838A83F0E0E0E012968D919C9106
:1018200013970097B9F52D913C911197CD01029630
:10183000820F931F2091000230910102281739076F
:1018400039F6309751F51092030210920202B093CC
:101850000102A0930002BCCFD383C2834081518197
:10186000840F951FC817D90761F44E5F5F4F8881B9
:101870009981480F591F518340838A819B819383AB
:1018800082832115310509F0B0CFF0930302E09374
:1018900002029ECFFD01DC01C0CF13821282D7CF9E
:1018A000FC010590615070400110D8F7809590952B
:1018B0008E0F9F1F0895FC01615070400190011030
:1018C000D8F7809590958E0F9F1F08950F931F93C3
:1018D000CF93DF93182F092FEB018B8181FD09C076
:1018E0001FEF0FEF812F902FDF91CF911F910F915D
:1018F000089582FF14C02E813F818C819D8128171D
:1019000039073CF4E881F981CF01019699838883F6
:1019100010838E819F8101969F838E83E3CFE8851C
:10192000F985812F0995892BA1F3DACFFA01AA272E
:10193000283051F1203181F1E8946F936E7F6E5F12
:101940007F4F8F4F9F4FAF4FB1E03ED0B4E03CD0C0
:10195000670F781F891F9A1FA11D680F791F8A1FA3
:10196000911DA11D6A0F711D811D911DA11D20D00A
:1019700009F468943F912AE0269F11243019305DC4
:101980003193DEF6CF010895462F4770405D4193B5
:10199000B3E00FD0C9F7F6CF462F4F70405D4A3302
:1019A00018F0495D31FD4052419302D0A9F7EACFCA
:1019B000B4E0A6959795879577956795BA95C9F7F9
:1019C00000976105710508959B01AC010A2E0694EC
:1019D0005795479537952795BA95C9F7620F731FA5
:1019E000841F951FA01D08952F923F924F925F92E2
:1019F0006F927F928F929F92AF92BF92CF92DF921F
:101A0000EF92FF920F931F93CF93DF93CDB7DEB783
:101A1000CA1BDB0B0FB6F894DEBF0FBECDBF099417
:101A20002A88398848885F846E847D848C849B846E
:101A3000AA84B984C884DF80EE80FD800C811B817C
:101A4000AA81B981CE0FD11D0FB6F894DEBF0FBEAB
:101A5000CDBFED010895EE0FFF1F0590F491E02D2D
:101A60000994B0E0A0E0E7E3FDE00C94F60C8C01F3
:101A7000009751F4CB010E942B0B8C01C801CDB70C
:101A8000DEB7E0E10C94120DFC01E60FF71F9C019C
:101A900022503109E217F30708F49DC0D901CD9116
:101AA000DC911197C617D70798F0C530D10530F3F0
:101AB000CE0104978617970708F3C61BD70B22970A
:101AC000C193D1936D937C93CF010E94C70BD6CF66
:101AD0005B01AC1ABD0A4C018C0E9D1EA091020246
:101AE000B0910302512C412CF12CE12C109731F5CF
:101AF00080910002909101028815990509F05CC05F
:101B00004616570608F058C08091000190910101D7
:101B1000009741F48DB79EB74091040150910501A3
:101B2000841B950BE817F90708F055C0F0930102E4
:101B3000E0930002F90171836083A0CF8D919C91A5
:101B4000119712966C90129713967C901397A81584
:101B5000B90559F56C0142E0C40ED11CCA14DB046E
:101B600020F1AC014A195B09DA011296159780F051
:101B70006282738251834083D9016D937C93E11417
:101B8000F10471F0D7011396FC93EE93129776CF80
:101B900022968C0F9D1FF90191838083F301EFCF73
:101BA000F0930302E093020269CF4816590608F445
:101BB0002C017D01D3019ACFCB010E942B0B7C011C
:101BC000009749F0AE01B8010E94EE0DC8010E94D5
:101BD000C70B870153CF10E000E050CFFB01DC01C1
:101BE00002C001900D9241505040D8F70895FC0179
:101BF0008191861721F08823D9F799270895319785
:101C0000CF010895FB01DC0101900D920020E1F766
:101C10000895AEE0B0E0EFE0FEE00C94020D0D8917
:101C20001E8986E08C831A8309838FEF9FE79E834A
:101C30008D83AE01475E5F4F6F89788DCE0101962F
:101C40000E9451092F813885020F131FF80110825D
:0C1C50002E96E4E00C941E0DF894FFCFDB
:101C5C000000040280003134383633003236393516
:101C6C0037000000000057027701A401A4021502FE
:101C7C00B301070273657463686172676520256937
:081C8C00202569000D0A00008B
:00000001FF
