:100000000C94D2000C94FA000C94FA000C94FA00B0
:100010000C94FA000C94FA000C94FA000C94FA0078
:100020000C94FA000C94FA000C9477060C94E606F3
:100030000C94FA000C94FA000C94FA000C94FA0058
:100040000C94FA000C94FA000C94FA000C94FA0048
:100050000C94FA000C94FA000C94FA000C942D06FF
:100060000C94FA000C94FA000C94FA000C94FA0028
:100070000C94FA000C94FA000C94FA000C94FA0018
:100080000C94FA000C94FA000C94FA000C94FA0008
:100090000C94FA000C94FA000C94FA000C94FA00F8
:1000A0000C94FA000C94FA000C94FA000A0B0C0D54
:1000B0000E0F080B000202020000090400000102FA
:1000C000020000052400100105240101010424029E
:1000D00006052406000107058103100040090401FC
:1000E00000020A0000000705020240000007058325
:1000F000024000000403090412010002EF02014063
:100100004123418000010102030141726475696E5F
:100110006F204C4C430041726475696E6F205975B5
:100120006E000000000200090F0000030401000C33
:1001300000000000000000000000000000000000BF
:100140000000010203040500000000250028002B28
:10015000002E00310000000000240027002A002D9E
:100160000030000404040404030405020202020433
:100170000302020202060606060606040402020242
:100180000404040802011040804010204080408098
:10019000080204018040201002011080102040401D
:1001A0002000180911241FBECFEFDAE0DEBFCDBF5B
:1001B00011E0A0E0B1E0ECE3F4E202C005900D92A2
:1001C000AA34B107D9F721E0AAE4B1E001C01D9239
:1001D000AF3DB207E1F710E0C2EDD0E004C02197D7
:1001E000FE010E941B11C13DD107C9F70E945409AD
:1001F0000C941C120C94000090E0FC01EE57FE4F92
:1002000024918D599E4FFC018491882399F090E0B0
:10021000880F991FFC01EB5AFE4FA591B491FC0188
:10022000E95BFE4F859194918FB7F894EC91E22BA6
:10023000EC938FBF0895FC0180916501882311F133
:100240003FB7F89482E08093E9002091F200822F7A
:1002500090E01816190614F481E090E0882339F034
:10026000289844E6409364014091F10040832223A2
:1002700039F02091F200211103C02BE62093E80011
:100280003FBF08958FEF9FEF08952FB7F89483E055
:100290008093E9009091E800892F807295FF04C057
:1002A0009091F20080E4891B2FBF089580915C013A
:1002B00081110DC082E08093580184E08093590140
:1002C00010925B0110925A0181E080935C0188E5F5
:1002D00091E00895282F30E0F901EE5DFE4F9491F2
:1002E000F901EE57FE4F84912D593E4FF9012491AB
:1002F000222309F430C09923E9F091509F30D0F4C3
:10030000E92FF0E0EA57FE4F0C941B11B401B8013D
:100310009501AC01B0019A019A019A01BB01C1019A
:10032000C501C901CF019A01D301909180009F7747
:1003300090938000E22FF0E0EE0FFF1FE95BFE4F8D
:10034000A591B4919FB7F894EC91611132C080955A
:100350008E238C939FBF0895909180009F7DE8CF5E
:1003600090918000977FE4CF94B59F7794BDE2CFC2
:1003700094B59F7DFBCF909190009F7790939000D4
:10038000D9CF909190009F7DF9CF90919000977F69
:10039000F5CF9091C0009F779093C000CBCF909104
:1003A000C0009F7DF9CF9091C200977F9093C200CB
:1003B000C1CF8E2BCECF682F8091BF010E946A01E2
:1003C0008091D7019091D8018230910538F0880F43
:1003D000991F880F991F05970197F1F7089581E0FC
:1003E0000C94DB012091BD013091BE014091BF0111
:1003F0005091C0012417350721F0682F822F0C94EB
:100400006A0108953FB7F894809154019091550185
:10041000A0915601B091570126B5A89B05C02F3F6A
:1004200019F00196A11DB11D3FBFBA2FA92F982F1A
:100430008827BC01CD01620F711D811D911D42E015
:10044000660F771F881F991F4A95D1F708958F92DD
:100450009F92AF92BF92CF92DF92EF92FF924B01A9
:100460005C010E9402026B017C010E9402026C1975
:100470007D098E099F09683E734081059105A8F3A7
:1004800021E0821A9108A108B10888EEC80E83E025
:10049000D81EE11CF11C81149104A104B10429F7B8
:1004A000FF90EF90DF90CF90BF90AF909F908F9094
:1004B0000895089540914D0150914E0120914B01B6
:1004C00030914C0142175307B4F49091E8009570B5
:1004D000E1F39091E80092FD19C08093F1008091C2
:1004E0004D0190914E0101968F739927892B19F434
:1004F0008EEF8093E80080914D0190914E0101961E
:1005000090934E0180934D0181E0089580E008951D
:10051000EF92FF920F931F93CF93DF93F82E192F33
:10052000E62E042F81E0860F880F0E945A0283E096
:100530000E945A02CF2DD12FEC0EFD2EF11CCE15AC
:10054000DF05B9F007FF13C0FE0184910E945A0233
:10055000182F80E00E945A02812321968111EFCF4B
:10056000DF91CF911F910F91FF90EF9008958881B7
:10057000EDCF81E0F5CFDF92EF92FF920F931F93C3
:10058000CF93DF93D82E8A01EB017B01E40EF51E99
:10059000CE15DF0559F0D7FE12C0FE0184910E94EE
:1005A0005A0221968111F4CF0FEF1FEFC801DF919E
:1005B000CF911F910F91FF90EF90DF900895888168
:1005C000EECF0F931F93CF93DF931F92CDB7DEB77C
:1005D00082E0898342E450E062EB70E080E80E94B0
:1005E000BB020E945601DC0112960D911C9101156F
:1005F000110589F0D801ED91FC910280F381E02D85
:10060000BE016F5F7F4FC801099597FD04C0F801D7
:1006100000851185ECCF89810F90DF91CF911F91DB
:100620000F910895615030F02091F100FC0120837A
:100630000196F8CF289884E68093640108958F92FC
:100640009F92AF92BF92CF92DF92EF92FF920F9361
:100650001F93CF93DF936C017B018A0180910B0183
:10066000882309F45CC080916501882309F457C090
:100670008091510180FF05C08091E00082608093ED
:10068000E000E801B12C8AEFA82E93E0892E2AE33E
:10069000922E209711F4BB20D9F10E9445018111BF
:1006A0000AC0AA94AA20D9F161E070E080E090E04D
:1006B0000E942702EECF8C171D0611F00CF08C2F34
:1006C0009FB7F8948092E9002091E80025FD02C0D0
:1006D0009FBFDFCF282F30E0C21BD30BF701815023
:1006E00020F041914093F100FACFE20EF31EBB20BF
:1006F00021F09092E800B12CEBCF8091E80085FDCD
:10070000E7CF9092E800BB24B394209709F3F3CF8E
:100710005D9884E680935201101611063CF081E04A
:1007200090E0F6019383828310E000E0C801DF913E
:10073000CF911F910F91FF90EF90DF90CF90BF90DE
:10074000AF909F908F900895CF93DF931F92CDB776
:10075000DEB76983DC01ED91FC910280F381E02D2D
:1007600041E050E0BE016F5F7F4F09950F90DF9130
:10077000CF91089583E08093E9008091F20088236F
:1007800019F08AE38093E80008950E94450190E003
:100790000895CF93DF931F92CDB7DEB7FC01848518
:1007A000958597FD08C02FEF3FEF358724870F9081
:1007B000DF91CF910895CE0101960E941B01019710
:1007C00019F4898190E0F3CF8FEF9FEFF0CF2FB72F
:1007D000F8948091660190916701A0916801B091B1
:1007E00069012FBF8093720190937301A0937401EC
:1007F000B09375018AE691E00E94C90397FF26C075
:100800002FB7F8948091660190916701A0916801DB
:10081000B09169012FBF40917201509173016091B5
:10082000740170917501841B950BA60BB70B409159
:100830006E0150916F016091700170917101841788
:100840009507A607B707B0F28FEF9FEF08950F93B4
:100850001F93CF93DF931F92CDB7DEB78C01FC01BE
:100860008485958597FF0BC0CE0101960E941B01E0
:10087000019771F4898190E0F80195878487F801E8
:10088000848595850F90DF91CF911F910F910895E9
:100890008FEF9FEFF1CFFC018485958597FD0BC00D
:1008A0009FB7F89482E08093E9008091F2009FBFA7
:1008B00090E0019608959FB7F89482E08093E90054
:1008C0008091F2009FBF90E008958EBD00000DB4AE
:1008D00007FEFDCF8EB508950F931F930091C101C0
:1008E0001091C2012091C3013091C40140E052E156
:1008F0006AE770E080E0041715072607370740F421
:1009000076956795579547958F5F8630A1F787E075
:10091000982F906A9695809581709CBD8DBD80E0E2
:100920001F910F910C94DB01CF93C82F0E946C0490
:100930008C2F80620E9465048093C501CF910C9436
:10094000EF01CF93C82F0E946C048C2F0E94650486
:100950008093C5018FEF0E946504C82F0E94EF01AC
:100960008C2FCF910895FF920F931F93CF93DF9316
:10097000C82FF62E072F142F0E946C048C2F806234
:100980000E9465048093C501CF2DD02F115020F017
:1009900089910E946504FACFDF91CF911F910F9149
:1009A000FF900C94EF010E946C0480E50E946504A6
:1009B0008093C50183E70E9465040C94EF01CF93F7
:1009C000DF93D82FC62F0E946C048D2F80620E9467
:1009D00065048093C5018C2F0E946504DF91CF913F
:1009E0000C94EF0180E00E94F2018091D30190917C
:1009F000D4018230910538F0880F991F880F991F14
:100A000005970197F1F78091CF01882319F081EEC6
:100A10000E9494046091CC016E7F6093CC0180E0D1
:100A20000E94DF0482E00E94A104E1E4F1E0E4918D
:100A300061E070E001C0660FEA95EAF7682B82E09A
:100A40000C94DF046091CC0161FD0AC06260609388
:100A5000CC0180E00E94DF048BE19EE40197F1F776
:100A60000895CF93DF93EC0188819981009711F06D
:100A70000E94B70F198218821D821C821B821A8263
:100A8000DF91CF910895FC0180819181009711F051
:100A90000C94B70F08950F931F93CF93DF938C019E
:100AA000EB01FC01808191810097E1F068817981FF
:100AB00061157105A9F0428153812C813D81421756
:100AC000530770F00E94F2118C819D81F80195838B
:100AD00084831D821C82DF91CF911F910F91089515
:100AE0000E94B70F88819981F801918380838A8160
:100AF0009B81938382838C819D81958384831982DA
:100B000018821B821A82E5CF0F931F93CF93DF9336
:100B1000EC0188819981009759F02A813B81261741
:100B2000370730F081E0DF91CF911F910F91089549
:100B30008B016F5F7F4F0E942111009759F09983BD
:100B400088831B830A832C813D81232B59F7FC0169
:100B50001082E8CF80E0E7CFEF92FF920F931F93D0
:100B6000CF93DF93EC017B018A01BA010E948405D7
:100B700081110BC0CE010E943105CE01DF91CF91D2
:100B80001F910F91FF90EF9008951D830C83B70183
:100B9000888199810E94F211F0CF50E040E069E431
:100BA00071E00C94AC05AF92BF92CF92DF92EF92BE
:100BB000FF920F931F93CF93DF93EC016B015A01C8
:100BC00079012417350720F48B2D5901E42EF82ED6
:100BD000198218821B821A821D821C82CE010E94F9
:100BE000CD05D60114960D911C91A016B10628F5DD
:100BF000E016F10608F48701D601ED91FC911197FA
:100C0000E00FF11FF08010826D917C916A0D7B1DC9
:100C100061157105F1F0FB0101900020E9F73197B2
:100C2000AF01461B570BCE010E94AC05F601808137
:100C30009181080F191FD801FC92CE01DF91CF914D
:100C40001F910F91FF90EF90DF90CF90BF90AF90EA
:100C50000895CE010E943105E9CF1F920F920FB681
:100C60000F9211242F933F938F939F93AF93BF9332
:100C70008091660190916701A0916801B09169012E
:100C80003091530123E0230F2D3758F50196A11D14
:100C9000B11D209353018093660190936701A09347
:100CA0006801B09369018091540190915501A09120
:100CB0005601B09157010196A11DB11D80935401B9
:100CC00090935501A0935601B0935701BF91AF91F6
:100CD0009F918F913F912F910F900FBE0F901F907A
:100CE000189526E8230F0296A11DB11DD2CF1F92A1
:100CF0000F920FB60F9211248F939F938091E10072
:100D00009091E100937F9093E10083FF0FC01092D8
:100D1000E90091E09093EB001092EC0092E3909345
:100D2000ED001092650198E09093F00082FF22C0E0
:100D300093E09093E9009091F200992319F09AE3DF
:100D40009093E80090915201992341F090915201C3
:100D5000915090935201911101C05D9A909164015C
:100D6000992341F090916401915090936401911105
:100D700001C0289A84FF18C08091E2008E7E8160B5
:100D80008093E2008091E1008F7E8093E10080916A
:100D900051018E7E8061809351019F918F910F90C0
:100DA0000FBE0F901F90189580FFF7CF8091E20043
:100DB0008E7E80618093E2008091E1008E7E809340
:100DC000E100809151018E7E8160E5CF1F920F92EC
:100DD0000FB60F921124CF92DF92EF92FF920F93F2
:100DE0001F932F933F934F935F936F937F938F93B3
:100DF0009F93AF93BF93EF93FF93CF93DF93CDB7C1
:100E0000DEB76C97DEBFCDBF1092E9008091E8009D
:100E100083FF25C068E0CE0145960E94120382EF51
:100E20008093E8008D8987FF39C09091E80090FF9A
:100E3000FCCF982F907609F034C19E894F89588D48
:100E40002F89F88C911131C0803861F58091500163
:100E50008093F1001092F1008EEF8093E8006C9681
:100E60000FB6F894DEBF0FBECDBFDF91CF91FF91DB
:100E7000EF91BF91AF919F918F917F916F915F9112
:100E80004F913F912F911F910F91FF90EF90DF9025
:100E9000CF900F900FBE0F901F9018959EEF9093DC
:100EA000E800C7CF1092F100D5CF913059F48111ED
:100EB000D3CF4130510581F6809150018D7F8093D1
:100EC0005001CACF933049F48111C6CF413051054A
:100ED00019F6809150018260F2CF953041F48091F3
:100EE000E80080FFFCCF20682093E300B5CF963068
:100EF00009F0A9C00B8D1C8D22E01092E900109220
:100F00004E0110924D01F2122EC010924C0110921F
:100F10004B010E94E1021F8299E09983FA8291E0DD
:100F20009E8390EA98879AEF998720914D0130919E
:100F30004E01275F3F4F3C832B838D831092E90046
:100F400010924E0110924D0110934C0100934B01F1
:100F500049E050E0BE016F5F7F4F80E00E94BB021E
:100F60000E94E10279CF10934C0100934B010E9443
:100F70005601DC0112960D911C910115110509F421
:100F800051C1D801ED91FC910480F581E02DBE01A5
:100F90006B5E7F4FC8010995009709F03EC1F801CB
:100FA00000851185EACFF3E0FF120EC08F898823F8
:100FB00009F440C0823061F440E86BE086E191E0E2
:100FC0000E948802811148CF81E28093EB0047CFD5
:100FD000813029F440E86BE08AE091E0F1CF833082
:100FE00099F70E945601DC011296ED90FC908E015B
:100FF0000F5F1F4F6801E114F10479F0D701ED9103
:10100000FC910680F781E02DB801C7010995080F12
:10101000111DF701E084F184EECFD8011C92F60196
:1010200001900020E9F73197BF016C197D0940E07C
:10103000C601C6CF64EF70E0FB01449150E080E848
:101040000E94BB0209CF973009F4BECF983021F43B
:1010500081E08093F10000CF993009F0FDCE8370DC
:1010600009F0B2CFEFE1F1E081E031E096E32191C8
:10107000222371F08093E9003093EB00DF01119798
:101080002C912093EC009093ED008F5F873079F7DF
:101090008EE78093EA001092EA008F8980936501C1
:1010A000DBCE8B8D9C8D1092E90010924E01109238
:1010B0004D0190934C0180934B01898D811192C019
:1010C0008E899D89913A49F4813209F07DCF47E0BC
:1010D00050E064E071E080E0B3CF913209F074CF6A
:1010E000833269F48F89988DB0E0A0E0809300018D
:1010F00090930101A0930201B0930301ADCE803221
:1011000069F48091E80082FFFCCF67E084E091E021
:101110000E9412038BEF8093E8009ECE823209F08A
:101120009BCE8F8980930B01EEEFFFE78591949121
:101130008B3F9C4D51F1E0E0F8E0809104019091EB
:101140000501A0910601B0910701803B9440A105E3
:10115000B105F1F480910B0180FD1AC0EE3F8AE0E9
:10116000F80789F587E797E791838083809160008E
:1011700080934F0188E19BE00FB6F894A895809387
:1011800060000FBE9093600067CEEEEFFAE0D5CF1F
:10119000808191818737974709F05ECEA89580912D
:1011A000600088618093600080914F0180936000AF
:1011B000EE3F2AE0F20789F08091FE0A9091FF0A43
:1011C0009183808349CE808191818737980751F23E
:1011D0009093FF0A8093FE0AC5CF1092FF0A1092E7
:1011E000FE0A3ACE0E945601DC0112960D911C9126
:1011F0000115110509F4E8CED801ED91FC9101909B
:10120000F081E02DBE016B5E7F4FC8010995811111
:1012100023CEF80100851185EBCF181619060CF4C2
:101220001BCED2CEF1E0FF12BECE68EF70E004CF4D
:10123000EAE6F1E01382128288EE93E0A0E0B0E0EB
:1012400084839583A683B78389E291E09183808329
:101250008FEF9FEF95878487EBEBF1E089E090E0DB
:10126000938382838AE090E09583848380E896E983
:10127000A8E9B0E086839783A087B18780E283875F
:10128000128A138A85E0858B81E0868B85E090E069
:10129000A0E0B0E0848F958FA68FB78F8AEB91E0A6
:1012A0009183808314860895CF93DF93CDB7DEB703
:1012B000CA55D1090FB6F894DEBF0FBECDBF7894E2
:1012C00084B5826084BD84B5816084BD85B582604B
:1012D00085BD85B5816085BD80916E0081608093FC
:1012E0006E00109281008091810082608093810065
:1012F0008091810081608093810080918000816075
:101300008093800080919100826080939100809111
:101310009100816080939100809190008160809322
:1013200090008091C10084608093C1008091C100D1
:1013300082608093C1008091C10081608093C10070
:101340008091C30081608093C3008091C00082605F
:101350008093C0008091C20081608093C200809120
:101360007A00846080937A0080917A008260809312
:101370007A0080917A00816080937A0080917A006F
:10138000806880937A00109265011092500110924B
:1013900051018091D70081608093D70080EA8093CB
:1013A000D80089B5806189BD89B5826089BD09B4DD
:1013B00000FEFDCF61E070E080E090E00E94270237
:1013C0008091D8008F7C80618093D8008091E0006C
:1013D000807F8093E0008091E1008E7E8093E10029
:1013E0008DE08093E200559A209A8FEF9FEF9093C3
:1013F0007701809376011FB7F89480914A0181119B
:1014000024C0E4E7F1E08491E3E9F1E09491E82F6E
:10141000F0E0EE0FFF1FEB5AFE4FA591B491EC9157
:10142000E92321F461E081E10E946A0181E10E94E7
:10143000FC008CB580618CBD8CB580648CBD8FE068
:101440000E94FC0080E10E94FC0080914A018F5FB5
:1014500080934A011FBF8091BD019091BE018F3FD3
:10146000980709F484C02091BF013091C0012F3F3B
:10147000320709F47CC08217930731F00E94FC0008
:101480008091BF010E94FC0080E00E94F20181E097
:101490000E94DB0165E070E080E090E00E9427029E
:1014A0006FE584E00E94DF0485E590E0A0E0B0E015
:1014B0008093D3019093D401A093D501B093D6012A
:1014C00067E086E00E94DF048DE10E94A104182FEE
:1014D0000E94D3048DE10E94A10491E0181390E0D2
:1014E0009093CD01882341F0181302C00E94D304C9
:1014F00060E08DE10E94DF041092CF0160E08CE19A
:101500000E94DF041092D1016FE381E00E94DF04AA
:1015100063E082E00E94DF0480E28093C60111E173
:101520006091C601812F0E94DF041F5F1731C1F750
:1015300063E083E00E94DF0485E08093D0016CE4E7
:101540000E94DF0460E787E00E94DF0482EE0E94D1
:10155000940481EE0E9494046CE080E00E94DF0419
:1015600080E00E94A1048093CC010E94220540915A
:10157000D00168E171E08AE00E94B3044091D0019B
:1015800068E171E080E10E94B304EDEAF0E084914B
:101590004091D00162E171E00E94B30482E00E94B8
:1015A000A104E2E4F1E0E49161E070E001C0660FC3
:1015B000EA95EAF7682B82E00E94DF048091CF0170
:1015C000882351F08DE10E94A104682F6D6F8DE199
:1015D0000E94DF041092CF0186E00E94A104682FD0
:1015E000676086E00E94DF040E94F20412E0812F0F
:1015F0000E94FC0060E0812F0E946A011F5F15308D
:10160000B1F761E082E00E946A018E01035C1F4F26
:1016100057E3452E51E0552E0E94F2046AE070E037
:1016200080E090E00E942702CE0101966C017C01CF
:101630005C01F701118210821382128215821482DA
:10164000C7010E94CD05F6E0EF0EF11CE016F10691
:1016500081F767961FAE1EAE679769961FAE1EAEE6
:1016600069976B961FAE1EAE6B97CE018B5A9F4F3C
:101670000E94CD050E94E7036B96EEACFFAC6B9722
:1016800097FD22C08A309105F9F08DAF1EAE2FEF85
:10169000E21AF20AB701CE018B5A9F4F0E948405CD
:1016A000882341F367962EAD3FAD67976B968EAD5D
:1016B0009FAD6B97B801820F931F0E94F2116B963A
:1016C000FFAEEEAE6B97D6CF42E0E416F10408F41D
:1016D000DDC061E084E00E946A016B966EAC7FAC75
:1016E0006B976114710401F167968EAC9FAC67979C
:1016F00060E270E0C4010E94E7111601009759F002
:101700007C01E818F90886E0C80ED11C9FEFE916A5
:10171000F90609F055C08114910409F44DC0A301E4
:10172000B401C1010E94AC058D859E85009709F426
:101730006EC00E94050D21E0E12C672B682B692B00
:1017400009F420E0F22E8F81988560E070E0009728
:1017500011F00E94050DEF92FF927F936F935F92BD
:101760004F921F930F930E94F9110FB6F894DEBFAA
:101770000FBECDBF8091D101D12C38E1C32E811194
:1017800009C08091C601C82E893110F048E1C42EED
:10179000D82EDC180E946C0480EA0E9465048093B5
:1017A000C5017801CA94FFEFCF16A9F1F701819125
:1017B0007F010E946504F6CFC1010E943105B4CFBC
:1017C000970150E040E0BE016B5A7F4FC8010E9474
:1017D000D305B801C1010E944B05C8010E94430511
:1017E0006B962EAD3FAD6B97A7014F5F5F4FBE016C
:1017F0006B5A7F4FC8010E94D305B801CE018B5AA6
:101800009F4F0E944B05C8010E94430566CF60E0D0
:1018100070E0CB0190CFDA94FFEFDF1621F080E08B
:101820000E946504F8CF0E94EF0181E00E94F2015E
:101830008FB7F894C0906601D0906701E09068017E
:10184000F09069018FBF8FEF0E9494048091C501D1
:10185000807309F083C02FB7F8948091660190914E
:101860006701A0916801B09169012FBF8C199D0992
:10187000AE09BF0980369105A105B10520F381E0CD
:101880008093D20160E084E00E946A01CE018B5A0D
:101890009F4F0E944305780126E0E21AF108C70134
:1018A0000E944305AE14BF04B9F761E070E080E028
:1018B00090E00E94270261E083E00E946A010E949A
:1018C00022056091CC0161606093CC0180E00E94B0
:1018D000DF0460E787E00E94DF0481E00E94F201FC
:1018E0008091CE01882309F448C04091D00167EC73
:1018F00071E08AE00E94B3046DE070E080E090E067
:101900000E9427028FEF0E9494048091C50190E00D
:10191000959587958770863008F06BC08091D101CE
:10192000811140C08091C601C82E893110F098E124
:10193000C92ED82EDC180E946C0481E60E94650432
:101940008093C5017501CA94FFEFCF1679F18FEF2F
:101950000E946504F70181937F01F5CF80E00E942A
:10196000F20160E787E00E94DF048091C50184FFF7
:1019700089CF81EE0E94940485CF82E00E94A10469
:10198000E1E4F1E0949121E030E001C0220F9A956A
:10199000EAF72095622F682382E00E94DF0410920C
:1019A000CE01AACFD12C88E1C82EC5CFDA94FFEFA3
:1019B000DF1621F08FEF0E946504F8CF0E94EF013F
:1019C00060E487E00E94DF04F50101900020E9F760
:1019D0003197AF014A195B09B5018AE691E00E948F
:1019E0001F0342E050E067E471E08AE691E00E9464
:1019F0001F0360E083E00E946A0180E090E0892B91
:101A000009F40ACE0E94000007CE1F93FC0199271B
:101A10008827BC01E89411911032E9F3193010F0D5
:101A20001E30C8F31B3251F01D3249F4689406C0D1
:101A30000E942C0D610F711D811D911D119110537C
:101A40001A30B0F33EF490958095709561957F4F74
:101A50008F4F9F4F1F910895592F482F372F262FB3
:101A6000660F771F881F991F660F771F881F991FA2
:101A7000620F731F841F951F660F771F881F991FA2
:101A80000895ABE0B0E0E7E4FDE00C94E4107C01E5
:101A90003B018A01FC0117821682838181FFC8C144
:101AA000CE0101965C01F7019381F30193FD8591CD
:101AB00093FF81913F01882309F453C1853239F4A2
:101AC00093FD859193FF81913F01853229F4B70100
:101AD00090E00E945610E7CF912C212C312CFFE191
:101AE000F31538F08B3211F190F4803209F1833222
:101AF00029F137FC3CC020ED280F2A3050F536FE86
:101B000020C08AE0989E200D1124922E06C08D32AE
:101B100091F0803371F7689430F8F30193FD85916B
:101B200093FF81913F018111DACF21C0689431F890
:101B3000689432F8F2CF689433F8EFCF689434F8B1
:101B4000ECCFEAE02E9E200D1124222E689435F869
:101B5000E4CF8E3229F436FC04C1689436F8DDCF28
:101B60008C3619F4689437F8D8CF8836B1F2982FAC
:101B70009F7D95549330E0F08336A1F18337C1F116
:101B8000833509F063C02801F2E04F0E511CF801C3
:101B9000C080D180692D70E036FC02C06FEF7FEF0E
:101BA000C6010E9440104C01689437F882010AC0B7
:101BB0000C5F1F4FFFE3F98388248394912C650108
:101BC000E89437F833FE2DC0522C8114910471F53E
:101BD000552009F468CFB70180E290E00E945610CA
:101BE0005A94F6CFF801808189830E5F1F4FE4CFAE
:101BF0002801F2E04F0E511CF801C080D180692D00
:101C000070E036FC02C06FEF7FEFC6010E944B1000
:101C10004C018201D5CFB70180E290E00E945610BE
:101C20002A942814190409F0B0F7CECFF60137FC36
:101C3000859137FE81916F01B70190E00E945610A7
:101C400051105A94F1E08F1A9108BFCF843619F0E1
:101C5000893609F077C0F80137FE6BC06081718169
:101C6000828193810C5F1F4FF32DFF763F2E97FFEC
:101C700009C090958095709561957F4F8F4F9F4FCC
:101C8000689437F82AE030E0A5010E948610C82E3B
:101C9000CA188C2C432C36FE0CC0E89440F8C914AA
:101CA00040F434FE05C032FC03C0F32DFE7E4F2EFF
:101CB000892C44FE95C0FE01EC0DF11D808180331E
:101CC00009F087C0242D297E422E842D8870582E3D
:101CD00043FC95C040FE8FC09C2C821418F42C0C41
:101CE000922C981844FE91C0B70180E390E00E94C6
:101CF000561042FE09C088E790E041FE02C088E528
:101D000090E0B7010E945610C91408F48AC0CA9422
:101D1000D12C9FEFC91AD90ACA0CDB1CF60182919B
:101D20006F01B70190E00E945610AC14BD04B1F7EA
:101D30004FCF60817181072E000C880B990B0E5FCD
:101D40001F4F92CFD32CE894D4F82AE030E08537A7
:101D500039F1232D297FD22E8F3601F148F48835B1
:101D6000A9F0F701868197812B96E2E10C9400118E
:101D7000803749F08837A9F7D4FE02C06894D2F8BA
:101D800020E130E00DC06894D4F8F6CF34FE03C0F3
:101D9000822F8660D82E20E132E002C028E030E0B9
:101DA000F801D7FE0FC060817181828193810C5F41
:101DB0001F4FA5010E948610C82ECA183D2CE8941A
:101DC00037F867CF6081718190E080E00E5F1F4F30
:101DD000F0CF42FC02C0839478CF8394839475CF74
:101DE000842D867809F471CFF6CFB70180E290E0B8
:101DF0000E94561083948214C0F3512C73CF522C3E
:101E00005818821408F46ECFF8CF842D867809F420
:101E10007BCF8BE241FE80E247FC8DE2B70190E090
:101E200071CFB70180E390E00E9456109A946CCF76
:101E30008FEF9FEF99CF0F931F93CF93DF93823054
:101E4000910510F482E090E0E091DD01F091DE0177
:101E500030E020E0B0E0A0E0309799F421153105A2
:101E600009F44AC0281B390B24303105D8F58A8182
:101E70009B816115710589F1FB0193838283FE01CA
:101E800011C0408151810281138148175907E0F048
:101E90004817590799F4109761F012960C9312970E
:101EA00013961C933296CF01DF91CF911F910F9122
:101EB00008950093DD011093DE01F4CF2115310563
:101EC00051F04217530738F0A901DB019A01BD0117
:101ED000DF01F801C1CFEF01F9CF9093DE018093CC
:101EE000DD01CDCFFE01E20FF31F819391932250CC
:101EF000310939832883D7CF2091DB013091DC0170
:101F0000232B41F420910E0130910F013093DC011D
:101F10002093DB0120910C0130910D012115310539
:101F200041F42DB73EB74091100150911101241B8F
:101F3000350BE091DB01F091DC01E217F307A0F42F
:101F40002E1B3F0B2817390778F0AC014E5F5F4F0F
:101F50002417350748F04E0F5F1F5093DC01409364
:101F6000DB01819391939FCFF0E0E0E09CCFCF9392
:101F7000DF930097E9F0FC01329713821282A0915F
:101F8000DD01B091DE01ED0130E020E01097A1F419
:101F900020813181820F931F2091DB013091DC0180
:101FA0002817390709F061C0F093DC01E093DB01E9
:101FB000DF91CF910895EA01CE17DF07E8F54A8156
:101FC0005B819E0141155105B1F7E901FB83EA836D
:101FD00049915991C40FD51FEC17FD0761F4808119
:101FE00091810296840F951FE901998388838281EC
:101FF00093819B838A83F0E0E0E012968D919C911F
:1020000013970097B9F52D913C911197CD01029648
:10201000820F931F2091DB013091DC0128173907D3
:1020200039F6309751F51092DE011092DD01B09330
:10203000DC01A093DB01BCCFD383C28340815181FB
:10204000840F951FC817D90761F44E5F5F4F8881D1
:102050009981480F591F518340838A819B819383C3
:1020600082832115310509F0B0CFF093DE01E093B2
:10207000DD019ECFFD01DC01C0CF13821282D7CFDC
:10208000FC010590615070400110D8F78095909543
:102090008E0F9F1F0895FC01615070400190011048
:1020A000D8F7809590958E0F9F1F08950F931F93DB
:1020B000CF93DF93182F092FEB018B8181FD09C08E
:1020C0001FEF0FEF812F902FDF91CF911F910F9175
:1020D000089582FF14C02E813F818C819D81281735
:1020E00039073CF4E881F981CF010196998388830F
:1020F00010838E819F8101969F838E83E3CFE88535
:10210000F985812F0995892BA1F3DACFFA01AA2746
:10211000283051F1203181F1E8946F936E7F6E5F2A
:102120007F4F8F4F9F4FAF4FB1E03ED0B4E03CD0D8
:10213000670F781F891F9A1FA11D680F791F8A1FBB
:10214000911DA11D6A0F711D811D911DA11D20D022
:1021500009F468943F912AE0269F11243019305DDC
:102160003193DEF6CF010895462F4770405D4193CD
:10217000B3E00FD0C9F7F6CF462F4F70405D4A331A
:1021800018F0495D31FD4052419302D0A9F7EACFE2
:10219000B4E0A6959795879577956795BA95C9F711
:1021A00000976105710508959B01AC010A2E069404
:1021B0005795479537952795BA95C9F7620F731FBD
:1021C000841F951FA01D08952F923F924F925F92FA
:1021D0006F927F928F929F92AF92BF92CF92DF9237
:1021E000EF92FF920F931F93CF93DF93CDB7DEB79C
:1021F000CA1BDB0B0FB6F894DEBF0FBECDBF099430
:102200002A88398848885F846E847D848C849B8486
:10221000AA84B984C884DF80EE80FD800C811B8194
:10222000AA81B981CE0FD11D0FB6F894DEBF0FBEC3
:10223000CDBFED010895EE0FFF1F0590F491E02D45
:102240000994B0E0A0E0E7E2F1E10C94E6108C0123
:10225000009751F4CB010E941B0F8C01C801CDB730
:10226000DEB7E0E10C940211FC01E60FF71F9C01C0
:1022700022503109E217F30708F49DC0D901CD912E
:10228000DC911197C617D70798F0C530D10530F308
:10229000CE0104978617970708F3C61BD70B229722
:1022A000C193D1936D937C93CF010E94B70FD6CF8A
:1022B0005B01AC1ABD0A4C018C0E9D1EA091DD0184
:1022C000B091DE01512C412CF12CE12C109731F50D
:1022D0008091DB019091DC018815990509F05CC0C3
:1022E0004616570608F058C080910C0190910D01D8
:1022F000009741F48DB79EB74091100150911101A4
:10230000841B950BE817F90708F055C0F093DC0122
:10231000E093DB01F90171836083A0CF8D919C91E3
:10232000119712966C90129713967C901397A8159C
:10233000B90559F56C0142E0C40ED11CCA14DB0486
:1023400020F1AC014A195B09DA011296159780F069
:102350006282738251834083D9016D937C93E1142F
:10236000F10471F0D7011396FC93EE93129776CF98
:1023700022968C0F9D1FF90191838083F301EFCF8B
:10238000F093DE01E093DD0169CF4816590608F4A9
:102390002C017D01D3019ACFCB010E941B0F7C0140
:1023A000009749F0AE01B8010E94DE11C8010E94F9
:1023B000B70F870153CF10E000E050CFFB01DC01E5
:1023C00002C001900D9241505040D8F70895FC0191
:1023D0008191861721F08823D9F79927089531979D
:1023E000CF010895FB01DC0101900D920020E1F77F
:1023F0000895AEE0B0E0EFEFF1E10C94F2100D893A
:102400001E8986E08C831A8309838FEF9FE79E8362
:102410008D83AE01475E5F4F6F89788DCE01019647
:102420000E94410D2F813885020F131FF801108281
:0C2430002E96E4E00C940E11F894FFCFFF
:10243C00FFFFFFFF00E10000000000000000DF01D3
:10244C00800031343836330032363935370000C12C
:10245C00808100000000000000A4031F03C503BA24
:10246C00034B04C903270473657463686172676561
:0A247C00202569202569000D0A00E3
:00000001FF
