:100000000C9459010C9481010C9481010C94810190
:100010000C9481010C9481010C9481010C94810158
:100020000C9481010C9481010C946B070C94DA07F9
:100030000C9481010C9481010C9481010C94810138
:100040000C9481010C9481010C9481010C94810128
:100050000C9481010C9481010C9481010C94210772
:100060000C9481010C9481010C9481010C94810108
:100070000C9481010C9481010C9481010C948101F8
:100080000C9481010C9481010C9481010C948101E8
:100090000C9481010C9481010C9481010C948101D8
:1000A0000C9481010C9481010C94810100407A1020
:1000B000F35A00A0724E18090010A5D4E80000E819
:1000C0007648170000E40B54020000CA9A3B000077
:1000D00000E1F505000080969800000040420F0006
:1000E0000000A08601000000102700000000E803C7
:1000F000000000006400000000000A000000000092
:100100000100000000002C76D888DC674F0823DF50
:10011000C1DFAE59E1B1B796E5E3E453C63AE65123
:10012000997696E8E6C28426EB898C9B62ED407C4A
:100130006FFCEFBC9C9F40F2BAA56FA5F490055AE6
:100140002AF75C936B6CF9676DC11BFCE0E40D470B
:10015000FEF520E6B500D0ED902E0300943577052E
:100160000080841E080000204E0A000000C80C33E6
:100170003333330F986E12831141EF8D2114893B75
:10018000E65516CFFEE6DB18D1844B381BF77C1DF5
:10019000901DA4BBE424203284725E228100C9F148
:1001A00024ECA1E53D27000102030405080B000231
:1001B0000202000009040000010202000005240000
:1001C0001001052401010104240206052406000192
:1001D0000705810310004009040100020A00000025
:1001E00007050202400000070583024000000403E7
:1001F000090412010002EF02014041234180000185
:100200000102030141726475696E6F204C4C43001A
:1002100041726475696E6F2059756E00070605049A
:100220000100080A0B0C0D09000000002400270043
:100230002A002D00300000000000250028002B00BF
:100240002E0031000000000200090F00000304012D
:10025000000C000000000000000000000000000092
:10026000000000000000002300260029002C002FC1
:10027000000404040404030405020202020403024D
:10028000020202060606060606040402020204042E
:100290000408020110408040102040804080080285
:1002A00004018040201002011080102040402000F6
:1002B0000C0A11241FBECFEFDAE0DEBFCDBF11E084
:1002C000A0E0B1E0E6EAF7E202C005900D92A836A0
:1002D000B107D9F722E0A8E6B1E001C01D92AC3029
:1002E000B207E1F711E0C9E5D1E004C02197FE01B2
:1002F0000E94A813C835D107C9F70E94680A0C9458
:10030000D1130C940000CF92DF92EF92FF92CF9323
:10031000DF93B091E001A0E08111AB2F8091E1016A
:1003200090E0880F991FAC014D595D4FC090E601D8
:10033000D090E701E090E801F090E90130E020E0A2
:10034000FA01C591D491E881B90190E080E0EB23F6
:10035000EA130AC02F5F3F4F6C157D058E059F0580
:1003600078F36FEF7FEFCB01DF91CF91FF90EF90AC
:10037000DF90CF9008958230910538F0880F991F53
:10038000880F991F05970197F1F70895FC01809157
:100390008301882311F13FB7F89482E08093E9004C
:1003A0002091F200822F90E01816190614F481E0D3
:1003B00090E0882339F0289844E6409382014091E8
:1003C000F1004083222339F02091F200211103C073
:1003D0002BE62093E8003FBF08958FEF9FEF08952D
:1003E0002FB7F89483E08093E9009091E800892F7B
:1003F000807295FF04C09091F20080E4891B2FBFAA
:10040000089580917A0181110DC082E08093760178
:1004100084E080937701109279011092780181E055
:1004200080937A0186E791E00895282F30E0F90162
:10043000EC5BFD4F9491F901E057FD4F84912F58EB
:100440003D4FF9012491222309F430C09923E9F0AA
:1004500091509F30D0F4E92FF0E0EF5CFD4F0C9409
:10046000A8135F026302400257025B024502450285
:10047000450266026C02700274027A0245027E0234
:10048000909180009F7790938000E22FF0E0EE0F34
:10049000FF1FEA5CFD4FA591B4919FB7F894EC91D2
:1004A000611132C080958E238C939FBF08959091E7
:1004B00080009F7DE8CF90918000977FE4CF94B536
:1004C0009F7794BDE2CF94B59F7DFBCF9091900034
:1004D0009F7790939000D9CF909190009F7DF9CF16
:1004E00090919000977FF5CF9091C0009F77909367
:1004F000C000CBCF9091C0009F7DF9CF9091C200FA
:10050000977F9093C200C1CF8E2BCECFCF93DF9336
:10051000CCEED1E0682F8C810E9415028C8D9D8DD0
:10052000DF91CF910C94BB0181E00C948602209165
:10053000EE013091EF014091F0015091F10124174B
:10054000350721F0682F822F0C9415020895CF9360
:10055000DF9390E0FC01E057FD4F24918F589D4FB1
:10056000FC0184918823D1F090E0880F991FFC0151
:10057000E85DFD4FA591B491FC01EA5CFD4FC5918A
:10058000D491623071F49FB7F8943C91822F80959A
:1005900083238C93E8812E2B28839FBFDF91CF91FB
:1005A00008958FB7F894EC912E2B2C938FBFF6CF34
:1005B0008251E82FF0E0E45EFD4FE49190917B00E2
:1005C0008E2F880F880F80729F7D892B80937B00F0
:1005D000E770E064E0937C0080917A00806480930F
:1005E0007A0080917A0086FDFCCF8091780090910E
:1005F000790008953FB7F89480917201909173014A
:10060000A0917401B091750126B5A89B05C02F3F3C
:1006100019F00196A11DB11D3FBFBA2FA92F982F28
:100620008827BC01CD01620F711D811D911D42E023
:10063000660F771F881F991F4A95D1F708958F92EB
:100640009F92AF92BF92CF92DF92EF92FF924B01B7
:100650005C010E94FA026B017C010E94FA026C1993
:100660007D098E099F09683E734081059105A8F3B5
:1006700021E0821A9108A108B10888EEC80E83E033
:10068000D81EE11CF11C81149104A104B10429F7C6
:10069000FF90EF90DF90CF90BF90AF909F908F90A2
:1006A0000895CF92DF92EF92FF920F931F93CF9313
:1006B000DF93CDB7DEB7C054D1400FB6F894DEBF9C
:1006C0000FBECDBF2FB7F894809184019091850122
:1006D000A0918601B09187012FBF4091E201509116
:1006E000E3016091E4017091E5018C019D01041B1F
:1006F000150B260B370BB901A801403D574061058A
:10070000710590F48091EA01C05CDE4F0FB6F89459
:10071000DEBF0FBECDBFDF91CF911F910F91FF9034
:10072000EF90DF90CF9008958093E2019093E301E2
:10073000A093E401B093E5011092DD011092DC0179
:100740001092DB011092DA011092D90162E08091DF
:10075000DE010E94A70261E070E080E090E00E946C
:100760001F0361E08091DE010E94A70260E080919A
:10077000DE010E9415028091DF0185518230E0F494
:100780008BE291E10197F1F762E08091DE010E9436
:10079000A7028091EB0190E00E94BB01F89480E0F9
:1007A0000E9483016F3F7F4F8F4F9F4F61F41092E4
:1007B000EA01789480E0A8CF64E170E080E090E006
:1007C0000E941F03E1CF81E00E9483016F3F7F4FB2
:1007D0008F4F9F4F61F38E010F5F1F4F6E018FEBA5
:1007E000C81A8EEFD80A780180E00E948301F701D1
:1007F000608371838283938381E00E948301F70188
:100800006483758386839783F8E0EF0EF11CEC1404
:10081000FD0451F7789430E020E0F801C080D180E9
:10082000E280F3804481558166817781FFEFCF16A6
:10083000DF06EF06FF0631F04F3F8FEF58076807DE
:10084000780719F41092EA01B5CFF90183E0F59524
:10085000E7958A95E1F7E752FE4F8081880FC4162D
:10086000D506E606F70610F180832F5F3F4F085F3D
:100870001F4F2832310589F64091DD012091D901C1
:100880008091DA01280F3327331F8091DB01280F75
:10089000311D8091DC01820F932F911D99274817FC
:1008A000190681F681E08093EA012ECF8160DCCFCA
:1008B00040916B0150916C012091690130916A0166
:1008C00042175307B4F49091E8009570E1F39091CA
:1008D000E80092FD19C08093F10080916B01909126
:1008E0006C0101968F739927892B19F48EEF8093F1
:1008F000E80080916B0190916C01019690936C01DE
:1009000080936B0181E0089580E00895EF92FF925B
:100910000F931F93CF93DF93F82E192FE62E042FFA
:1009200081E0860F880F0E94580483E00E945804DB
:10093000CF2DD12FEC0EFD2EF11CCE15DF05B9F019
:1009400007FF13C0FE0184910E945804182F80E015
:100950000E945804812321968111EFCFDF91CF911E
:100960001F910F91FF90EF9008958881EDCF81E066
:10097000F5CFDF92EF92FF920F931F93CF93DF9308
:10098000D82E8A01EB017B01E40EF51ECE15DF05A2
:1009900059F0D7FE12C0FE0184910E94580421969E
:1009A0008111F4CF0FEF1FEFC801DF91CF911F919D
:1009B0000F91FF90EF90DF9008958881EECF0F9315
:1009C0001F93CF93DF931F92CDB7DEB782E0898369
:1009D00042E450E06CEA71E080E80E94B9040E94B1
:1009E0000102DC0112960D911C910115110589F08F
:1009F000D801ED91FC910280F381E02DBE016F5F83
:100A00007F4FC801099597FD04C0F8010085118545
:100A1000ECCF89810F90DF91CF911F910F910895B5
:100A2000615030F02091F100FC0120830196F8CF55
:100A3000289884E68093820108958F929F92AF92C6
:100A4000BF92CF92DF92EF92FF920F931F93CF93BB
:100A5000DF936C017B018A0180910B01882309F4EB
:100A60005CC080918301882309F457C080916F0195
:100A700080FF05C08091E00082608093E000E80183
:100A8000B12C8AEFA82E93E0892E2AE3922E20978C
:100A900011F4BB20D9F10E94F00181110AC0AA947F
:100AA000AA20D9F161E070E080E090E00E941F038D
:100AB000EECF8C171D0611F00CF08C2F9FB7F89419
:100AC0008092E9002091E80025FD02C09FBFDFCFA2
:100AD000282F30E0C21BD30BF701815020F0419149
:100AE0004093F100FACFE20EF31EBB2021F090926A
:100AF000E800B12CEBCF8091E80085FDE7CF909224
:100B0000E800BB24B394209709F3F3CF5D9884E603
:100B100080937001101611063CF081E090E0F60120
:100B20009383828310E000E0C801DF91CF911F9191
:100B30000F91FF90EF90DF90CF90BF90AF909F907C
:100B40008F900895CF93DF931F92CDB7DEB769835F
:100B5000DC01ED91FC910280F381E02D41E050E059
:100B6000BE016F5F7F4F09950F90DF91CF91089580
:100B700083E08093E9008091F200882319F08AE3F2
:100B80008093E80008950E94F00190E00895CF93CB
:100B9000DF931F92CDB7DEB7FC018485958597FD65
:100BA00008C02FEF3FEF358724870F90DF91CF915B
:100BB0000895CE0101960E94C601019719F489811A
:100BC00090E0F3CF8FEF9FEFF0CF0F931F93CF9372
:100BD000DF931F92CDB7DEB78C01FC01848595852C
:100BE00097FF0BC0CE0101960E94C601019771F4D8
:100BF000898190E0F80195878487F801848595853F
:100C00000F90DF91CF911F910F9108958FEF9FEF7C
:100C1000F1CFFC018485958597FD0BC09FB7F894B3
:100C200082E08093E9008091F2009FBF90E00196FE
:100C300008959FB7F89482E08093E9008091F200D4
:100C40009FBF90E008958EBD00000DB407FEFDCF5C
:100C50008EB508950F931F930091F2011091F30147
:100C60002091F4013091F50140E052E16AE770E033
:100C700080E0041715072607370740F47695679537
:100C8000579547958F5F8630A1F787E0982F906A38
:100C90009695809581709CBD8DBD80E01F910F91D0
:100CA0000C948602CF93C82F0E942A068C2F806254
:100CB0000E9423068093F601CF910C949402CF9367
:100CC000C82F0E942A068C2F0E9423068093F601CB
:100CD0008FEF0E942306C82F0E9494028C2FCF9181
:100CE00008950F931F93CF93182FC62F0E942A06A3
:100CF000812F80620E9423068093F60103E111E0B8
:100D0000C15030F0F80181918F010E942306F8CF85
:100D1000CF911F910F910C9494020E942A0680E5B6
:100D20000E9423068093F60183E70E9423060C9419
:100D30009402CF93DF93D82FC62F0E942A068D2FBF
:100D400080620E9423068093F6018C2F0E94230666
:100D5000DF91CF910C949402CF92DF92EF92FF92A9
:100D60000F931F93CF93DF937C0180910202C0E029
:100D7000D8E1811107C0C091F701DC2FC93108F01B
:100D8000D8E1CD1B0E942A0680EA0E9423068093A8
:100D9000F6018701D15030F0F80181918F010E9456
:100DA0002306F8CFC15020F080E00E942306FACF3E
:100DB0000E94940281E00E9497028FB7F894C0903D
:100DC0008401D0908501E0908601F09087018FBF6B
:100DD0008FEF0E9452068091F601807309F52FB7BC
:100DE000F8948091840190918501A0918601B09141
:100DF00087012FBF8C199D09AE09BF098036910567
:100E0000A105B10528F381E08093030280E0DF9122
:100E1000CF911F910F91FF90EF90DF90CF900895A9
:100E200080E00E94970260E787E00E949906809127
:100E3000F60184FF04C081EE0E945206E7CF81E0F4
:100E4000E6CF1F920F920FB60F9211242F933F936C
:100E50008F939F93AF93BF9380918401909185016D
:100E6000A0918601B09187013091710123E0230F99
:100E70002D3758F50196A11DB11D20937101809366
:100E8000840190938501A0938601B093870180919E
:100E9000720190917301A0917401B0917501019656
:100EA000A11DB11D8093720190937301A0937401F1
:100EB000B0937501BF91AF919F918F913F912F9109
:100EC0000F900FBE0F901F90189526E8230F0296E3
:100ED000A11DB11DD2CF1F920F920FB60F921124F8
:100EE0008F939F938091E1009091E100937F909385
:100EF000E10083FF0FC01092E90091E09093EB00B6
:100F00001092EC0092E39093ED001092830198E030
:100F10009093F00082FF22C093E09093E9009091BB
:100F2000F200992319F09AE39093E80090917001F0
:100F3000992341F09091700191509093700191111B
:100F400001C05D9A90918201992341F090918201B4
:100F5000915090938201911101C0289A84FF18C08A
:100F60008091E2008E7E81608093E2008091E100BA
:100F70008F7E8093E10080916F018E7E80618093EF
:100F80006F019F918F910F900FBE0F901F9018953A
:100F900080FFF7CF8091E2008E7E80618093E20037
:100FA0008091E1008E7E8093E10080916F018E7EC2
:100FB0008160E5CF1F920F920FB60F921124CF924E
:100FC000DF92EF92FF920F931F932F933F934F93D4
:100FD0005F936F937F938F939F93AF93BF93EF93A1
:100FE000FF93CF93DF93CDB7DEB76C97DEBFCDBF56
:100FF0001092E9008091E80083FF25C068E0CE01EF
:1010000045960E94100582EF8093E8008D8987FF46
:1010100039C09091E80090FFFCCF982F907609F0AE
:1010200034C19E894F89588D2F89F88C911131C018
:10103000803861F580916E018093F1001092F1008B
:101040008EEF8093E8006C960FB6F894DEBF0FBE6B
:10105000CDBFDF91CF91FF91EF91BF91AF919F9164
:101060008F917F916F915F914F913F912F911F9140
:101070000F91FF90EF90DF90CF900F900FBE0F90E9
:101080001F9018959EEF9093E800C7CF1092F10043
:10109000D5CF913059F48111D3CF4130510581F62C
:1010A00080916E018D7F80936E01CACF933049F499
:1010B0008111C6CF4130510519F680916E018260D1
:1010C000F2CF953041F48091E80080FFFCCF20689A
:1010D0002093E300B5CF963009F0A9C00B8D1C8D8D
:1010E00022E01092E90010926C0110926B01F21252
:1010F0002EC010926A01109269010E94DF041F82C3
:1011000099E09983FA8291E09E8390EA98879AEF1A
:10111000998720916B0130916C01275F3F4F3C8391
:101120002B838D831092E90010926C0110926B0159
:1011300010936A010093690149E050E0BE016F5FBE
:101140007F4F80E00E94B9040E94DF0479CF1093A2
:101150006A01009369010E940102DC0112960D915F
:101160001C910115110509F451C1D801ED91FC91B3
:101170000480F581E02DBE016B5E7F4FC8010995AB
:10118000009709F03EC1F80100851185EACFF3E030
:10119000FF120EC08F89882309F440C0823061F4A9
:1011A00040E86BE080E192E00E948604811148CF24
:1011B00081E28093EB0047CF813029F440E86BE077
:1011C00084E092E0F1CF833099F70E940102DC01C4
:1011D0001296ED90FC908E010F5F1F4F6801E11495
:1011E000F10479F0D701ED91FC910680F781E02DB3
:1011F000B801C7010995080F111DF701E084F184BA
:10120000EECFD8011C92F60101900020E9F731974A
:10121000BF016C197D0940E0C601C6CF6EEE71E0DA
:10122000FB01449150E080E80E94B90409CF973057
:1012300009F4BECF983021F481E08093F10000CF13
:10124000993009F0FDCE837009F0B2CFEDE0F1E006
:1012500081E031E096E32191222371F08093E9004F
:101260003093EB00DF0111972C912093EC009093C9
:10127000ED008F5F873079F78EE78093EA00109258
:10128000EA008F8980938301DBCE8B8D9C8D109239
:10129000E90010926C0110926B0190936A018093A7
:1012A0006901898D811192C08E899D89913A49F495
:1012B000813209F07DCF47E050E064E071E080E0EA
:1012C000B3CF913209F074CF833269F48F89988D4E
:1012D000B0E0A0E08093000190930101A09302018F
:1012E000B0930301ADCE803269F48091E80082FFB3
:1012F000FCCF67E084E091E00E9410058BEF8093C3
:10130000E8009ECE823209F09BCE8F8980930B013C
:10131000EEEFFFE7859194918B3F9C4D51F1E0E01A
:10132000F8E08091040190910501A0910601B0912F
:101330000701803B9440A105B105F1F480910B01B8
:1013400080FD1AC0EE3F8AE0F80789F587E797E746
:10135000918380838091600080936D0188E19BE0A0
:101360000FB6F894A895809360000FBE909360002C
:1013700067CEEEEFFAE0D5CF80819181873797472E
:1013800009F05ECEA895809160008861809360002E
:1013900080916D0180936000EE3F2AE0F20789F0B2
:1013A0008091FE0A9091FF0A9183808349CE8081CB
:1013B00091818737980751F29093FF0A8093FE0A34
:1013C000C5CF1092FF0A1092FE0A3ACE0E94010287
:1013D000DC0112960D911C910115110509F4E8CE5E
:1013E000D801ED91FC910190F081E02DBE016B5E82
:1013F0007F4FC8010995811123CEF8010085118521
:10140000EBCF181619060CF41BCED2CEF1E0FF126A
:10141000BECE62EF71E004CFE8E8F1E01382128201
:1014200088EE93E0A0E0B0E084839583A683B78341
:101430008DE191E0918380838FEF9FEF9587848783
:10144000ECEEF1E089E090E0938382838AE090E023
:101450009583848380E896E9A8E9B0E08683978342
:10146000A087B18780E28387128A138A85E0858B03
:1014700081E0868B85E090E0A0E0B0E0848F958FDE
:10148000A68FB78F88ED91E0918380831486A9EDB4
:10149000B1E082E015968C9315978BE016968C93AD
:1014A0001697E2E9F2E0E4911796EC931797E3E7D9
:1014B000F2E0E4911896EC93189740E85EE360E060
:1014C00070E01D964D935D936D937C9350970895B6
:1014D000CF93DF93CDB7DEB76E970FB6F894DEBF2C
:1014E0000FBECDBF789484B5826084BD84B5816021
:1014F00084BD85B5826085BD85B5816085BD8091DF
:101500006E00816080936E00109281008091810056
:10151000826080938100809181008160809381004E
:101520008091800081608093800080919100826032
:1015300080939100809191008160809391008091CF
:1015400090008160809390008091C10084608093BE
:10155000C1008091C10082608093C1008091C10070
:1015600081608093C1008091C30081608093C3003B
:101570008091C00082608093C0008091C200816031
:101580008093C20080917A00846080937A00809179
:101590007A00826080937A0080917A0081608093E3
:1015A0007A0080917A00806880937A00109283019B
:1015B00010926E0110926F018091D700816080932C
:1015C000D70080EA8093D80089B5806189BD89B54C
:1015D000826089BD09B400FEFDCF61E070E080E06B
:1015E00090E00E941F038091D8008F7C80618093DF
:1015F000D8008091E000807F8093E0008091E1003E
:101600008E7E8093E1008DE08093E200559A209ACF
:1016100062E082E00E94A7028FEF9FEF9093950116
:101620008093940162E08091DE010E94A7022FB7AF
:10163000F8948091840190918501A0918601B091E8
:1016400087012FBF805D9740A109B1098093E20116
:101650009093E301A093E401B093E50187E38093C5
:10166000EB011FB7F89480916801811127C0E2E86F
:10167000F2E08491E1EAF2E09491E82FF0E0EE0FDD
:10168000FF1FE85DFD4FA591B491EC91E92321F492
:1016900061E081E10E94150261E081E10E94A70200
:1016A0008CB580618CBD8CB580648CBD61E08FE0B1
:1016B0000E94A70261E080E10E94A7028091680178
:1016C0008F5F809368011FBF8091EE019091EF01C1
:1016D0008F3F980709F491C02091F0013091F101FA
:1016E0002F3F320709F489C08217930741F061E068
:1016F0000E94A70261E08091F0010E94A70280E0B1
:101700000E94970281E00E94860265E070E080E01E
:1017100090E00E941F036FE584E00E94990685E532
:1017200090E0A0E0B0E08093040290930502A093C3
:101730000602B093070267E086E00E9499068DE1F9
:101740000E945F06182F0E948D068DE10E945F06A1
:1017500091E0181390E09093FE01882341F0181354
:1017600002C00E948D0660E08DE10E9499061092F1
:10177000000260E08CE10E949906109202026FE381
:1017800081E00E94990663E082E00E94990680E26F
:101790008093F70111E16091F701812F0E94990672
:1017A0001F5F1731C1F763E083E00E94990685E06F
:1017B000809301026CE40E94990660E787E00E9432
:1017C000990682EE0E94520681EE0E9452066CE05B
:1017D00080E00E94990680E00E945F068093FD01F0
:1017E00081FD0BC0682F62606093FD0180E00E9464
:1017F00099068BE19EE40197F1F7609101028AE07E
:101800000E9471066091010280E10E94710686E0EB
:101810000E945F06682F676086E00E94990680E05C
:101820000E94970280910402909105020E94BB01E0
:1018300080910002882319F081EE0E945206609187
:10184000FD016E7F6093FD0180E00E94990682E0B9
:101850000E945F06E6EAF1E0E49161E070E001C019
:10186000660FEA95EAF7682B82E00E9499067E01EE
:1018700089E1E80EF11CCE0101966C0199E4A92ED4
:1018800091E0B92E28E5822E21E0922E30E0632EE1
:1018900030E0732E0E945103882341F08091DF01D4
:1018A0008C3009F4C3C038F48B30F1F060E070E0A4
:1018B00080EC9FE741C085518230C0F71091DB0179
:1018C000612F70E0762F662766277F778091DC0195
:1018D000682B90E080E00E94AD122DEC3CEC4CECCB
:1018E0005DE30E943B13BEC06091DB0170E090E0BD
:1018F00080E00E94AD121B012C011091DC0117FF4A
:101900000AC0AC019B0160E070E080E89FEB0E94A0
:1019100040121B012C011F70612F70E090E080E0ED
:101920000E94AF122DEC3CEC4CEC5DE30E943B13AB
:10193000A20191010E944112870122E044E00E942D
:10194000360DFF92EF928BE291E09F938F93DF929F
:10195000CF920E94AE13C6010E94AC0661E070E017
:1019600080E090E00E941F0322E044E060E070E02D
:10197000CB010E94360DFF92EF928AE391E09F9394
:101980008F93DF92CF920E94AE13C6010E94AC06E5
:1019900061E070E080E090E00E941F0382E10E941D
:1019A000D802BC01990F880B990B0E94AF1222E05C
:1019B00044E00E94360DFF92EF92BF92AF92DF9209
:1019C000CF920E94AE13C6010E94AC0661E070E0A7
:1019D00080E090E00E941F0383E10E94D802BC01D6
:1019E000990F880B990B0E94AF1222E044E00E94ED
:1019F000360DFF92EF929F928F92DF92CF920E94CC
:101A0000AE13C6010E94AC0661E070E080E090E099
:101A10000E941F030FB6F894DEBF0FBECDBF611446
:101A2000710409F437CF0E94000034CF1091DB011C
:101A3000612F70E090E080E00E94AD121B012C014C
:101A40006091DC016F7070E090E080E00E94AF1266
:101A50002DEC3CEC4CEC5DE30E943B13A2019101A8
:101A60000E94411217FF68CF905866CFEF920F93F4
:101A70001F93CF93DF93E80134E047FD34E1042E58
:101A8000000C550B57FF03C0519541955109E32EAA
:101A9000022F242FAE010E942E0FCE01DF91CF9195
:101AA0001F910F91EF900895ABE0B0E0EAE5FDE003
:101AB0000C9409127C013B018A01FC0117821682F9
:101AC000838181FFC8C1CE0101965C01F70193813A
:101AD000F30193FD859193FF81913F01882309F4E0
:101AE00053C1853239F493FD859193FF81913F0174
:101AF000853229F4B70190E00E947B11E7CF912C49
:101B0000212C312CFFE1F31538F08B3211F190F4D8
:101B1000803209F1833229F137FC3CC020ED280FD7
:101B20002A3050F536FE20C08AE0989E200D112400
:101B3000922E06C08D3291F0803371F7689430F8A0
:101B4000F30193FD859193FF81913F018111DACFDC
:101B500021C0689431F8689432F8F2CF689433F871
:101B6000EFCF689434F8ECCFEAE02E9E200D1124DC
:101B7000222E689435F8E4CF8E3229F436FC04C165
:101B8000689436F8DDCF8C3619F4689437F8D8CFDE
:101B90008836B1F2982F9F7D95549330E0F08336CC
:101BA000A1F18337C1F1833509F063C02801F2E068
:101BB0004F0E511CF801C080D180692D70E036FCB9
:101BC00002C06FEF7FEFC6010E9465114C0168945F
:101BD00037F882010AC00C5F1F4FFFE3F9838824A6
:101BE0008394912C6501E89437F833FE2DC0522C74
:101BF0008114910471F5552009F468CFB70180E292
:101C000090E00E947B115A94F6CFF801808189837D
:101C10000E5F1F4FE4CF2801F2E04F0E511CF80178
:101C2000C080D180692D70E036FC02C06FEF7FEF7D
:101C3000C6010E9470114C018201D5CFB70180E22C
:101C400090E00E947B112A942814190409F0B0F73F
:101C5000CECFF60137FC859137FE81916F01B70138
:101C600090E00E947B1151105A94F1E08F1A910874
:101C7000BFCF843619F0893609F077C0F80137FEF6
:101C80006BC060817181828193810C5F1F4FF32D46
:101C9000FF763F2E97FF09C09095809570956195CE
:101CA0007F4F8F4F9F4F689437F82AE030E0A501AF
:101CB0000E94AB11C82ECA188C2C432C36FE0CC0C7
:101CC000E89440F8C91440F434FE05C032FC03C067
:101CD000F32DFE7E4F2E892C44FE95C0FE01EC0DA7
:101CE000F11D8081803309F087C0242D297E422E8A
:101CF000842D8870582E43FC95C040FE8FC09C2CCC
:101D0000821418F42C0C922C981844FE91C0B70140
:101D100080E390E00E947B1142FE09C088E790E0DA
:101D200041FE02C088E590E0B7010E947B11C91412
:101D300008F48AC0CA94D12C9FEFC91AD90ACA0CD8
:101D4000DB1CF60182916F01B70190E00E947B11CC
:101D5000AC14BD04B1F74FCF60817181072E000C28
:101D6000880B990B0E5F1F4F92CFD32CE894D4F8B9
:101D70002AE030E0853739F1232D297FD22E8F36A6
:101D800001F148F48835A9F0F701868197812B96F7
:101D9000E2E10C942512803749F08837A9F7D4FE88
:101DA00002C06894D2F820E130E00DC06894D4F805
:101DB000F6CF34FE03C0822F8660D82E20E132E0B9
:101DC00002C028E030E0F801D7FE0FC060817181C9
:101DD000828193810C5F1F4FA5010E94AB11C82E19
:101DE000CA183D2CE89437F867CF6081718190E084
:101DF00080E00E5F1F4FF0CF42FC02C0839478CF8B
:101E00008394839475CF842D867809F471CFF6CFAF
:101E1000B70180E290E00E947B1183948214C0F3AA
:101E2000512C73CF522C5818821408F46ECFF8CF6F
:101E3000842D867809F47BCF8BE241FE80E247FC5B
:101E40008DE2B70190E071CFB70180E390E00E948E
:101E50007B119A946CCF8FEF9FEF99CFA9E0B0E000
:101E6000E4E3FFE00C940F126A01F22EB02E102F63
:101E7000FBE3AF2EA01608F41BE31F5F012F27E042
:101E8000AE014F5F5F4F0E948D10BC018981982F7A
:101E90009970913009F43FC09BE2E1FC04C09E2D93
:101EA0009170E0FC3AC05E2D5071E82FE87083FF1E
:101EB00046C084E0911101C083E0EF2DE81B8F152F
:101EC00008F0E0E0D6018E2F20E2552351F199234E
:101ED00029F0D6019C93C60101966C0196012D5FF5
:101EE0003F4FE2FE24C08EE4D6018C9391E411961C
:101EF0009C93119712968C93D9018E2F90E28111A9
:101F00001BC0E20FF32FF11D10828EEF9FEF299679
:101F1000ECE00C942B129DE2C6CF90E2C4CF2D933F
:101F200081508111FCCFCE0ED11CE0E0D0CF8EE6E7
:101F3000D6018C9391E6DBCF9D938150E0CF482F63
:101F4000447082FF3DC084E0911101C083E08F1591
:101F500010F4EF2DE81BD6018E2F20E2552309F156
:101F6000992329F0D6019C93C60101966C01960134
:101F70002D5F3F4FE2FE1BC089E4D6018C938EE4B7
:101F800011968C93119786E412968C93D9018E2F1B
:101F900090E2882309F4B5CF9D938150FACF2D9319
:101FA00081508111FCCFCE0ED11CE0E0D9CF89E663
:101FB000D6018C938EE611968C93119786E6E4CF2A
:101FC0009B0177FF02C030E020E0A1E0B0E091117A
:101FD00002C0B0E0A0E0F9013196AE0FBF1F8B2C1C
:101FE000912CBB2009F461C05401EFEFAE1ABE0A78
:101FF000AA0DBB1DFA161B0619F014F04F2D4A1B33
:10200000511188C0E3FC59C07601A42FB0E2A111A0
:102010004FC0C40ED11C992309F45BC040E0D60127
:102020001196F60190836D01552309F448C0012FE4
:10203000060F9A81582F507184FF03C0913309F421
:10204000015010160CF047C0093008F008E0EEE22D
:10205000FE2E5B01A01AB10885019194819491082C
:102060002F3F320729F4D601FC92F60131966F0119
:102070006217730794F1021713077CF5DB01A21BAB
:10208000B30BAA24A394B12CAC0EBD1EAA0DBB1D8C
:1020900011968C9121503109D601119628153905D8
:1020A000F4F0F60180836D01DBCFB12CA12CA0CF21
:1020B000F701B1937F01A150AACF9111B0CFD60102
:1020C000942F50E302C05D9391509111FCCFC40E48
:1020D000D11C40E0ACCF01E0BACF80E3DBCF621788
:1020E000730731F4963388F4953311F4552369F06E
:1020F000F6018083FD01842F90E2811108C0A40FB6
:10210000B11D1C9290E080E002CF81E3F1CF91936A
:102110008150F3CF911183CF8ACF283008F027E088
:102120003327DA01990F311D87FD91600096610513
:10213000710539F432602E5F3D9330E32A95E1F763
:1021400008959F3F30F080387105610509F03C5FCC
:102150003C5F3D93913008F08068911DDF93CF93F1
:102160001F930F93FF92EF92192F987F9695E92F67
:1021700096959695E90FFF27EA5FFE4F992733273B
:10218000EE24FF24A701E70105900894079428F4A2
:10219000360FE71EF81E491F511D660F771F881F57
:1021A000991F0694A1F70590079428F4E70EF81EEE
:1021B000491F561FC11D770F881F991F661F069460
:1021C000A1F70590079428F4F80E491F561FC71F62
:1021D000D11D880F991F661F771F0694A1F70590E0
:1021E000079420F4490F561FC71FD81F990F661F69
:1021F000771F881F0694A9F784911095177041F0F6
:10220000D695C79557954795F794E7941A95C1F7D2
:10221000ECEAF0E0689415901591359165919591EF
:1022200005907FE27395E118F10A430B560BC90B39
:10223000D009C0F7E10CF11E431F561FC91FD01D66
:102240007EF4703311F48A95E6CFE894015030F0B3
:10225000080F0AF40027021708F4202F2395022FF5
:102260007A3328F079E37D932A95E9F710C07D93BE
:102270002A9589F60694979567953795179517943B
:10228000E118F10A430B560BC90BD00998F02395BE
:102290007E9173957A3308F070E37C932013B8F73E
:1022A0007E9170617D9330F0839571E37D9370E34F
:1022B0002A95E1F71124EF90FF900F911F91CF9194
:1022C000DF91992787FD90950895FC010590615055
:1022D00070400110D8F7809590958E0F9F1F08953C
:1022E000FC016150704001900110D8F780959095E5
:1022F0008E0F9F1F08950F931F93CF93DF93182F77
:10230000092FEB018B8181FD09C01FEF0FEF812F9A
:10231000902FDF91CF911F910F91089582FF14C0EC
:102320002E813F818C819D81281739073CF4E881FB
:10233000F981CF0101969983888310838E819F81D3
:1023400001969F838E83E3CFE885F985812F0995D8
:10235000892BA1F3DACFFA01AA27283051F12031D5
:1023600081F1E8946F936E7F6E5F7F4F8F4F9F4F29
:10237000AF4FB1E03ED0B4E03CD0670F781F891F6B
:102380009A1FA11D680F791F8A1F911DA11D6A0F39
:10239000711D811D911DA11D20D009F468943F91EC
:1023A0002AE0269F11243019305D3193DEF6CF01EB
:1023B0000895462F4770405D4193B3E00FD0C9F7B1
:1023C000F6CF462F4F70405D4A3318F0495D31FD1E
:1023D0004052419302D0A9F7EACFB4E0A695979571
:1023E000879577956795BA95C9F700976105710547
:1023F00008959B01AC010A2E069457954795379591
:102400002795BA95C9F7620F731F841F951FA01DEA
:1024100008952F923F924F925F926F927F928F9288
:102420009F92AF92BF92CF92DF92EF92FF920F9363
:102430001F93CF93DF93CDB7DEB7CA1BDB0B0FB66D
:10244000F894DEBF0FBECDBF09942A88398848882A
:102450005F846E847D848C849B84AA84B984C884C0
:10246000DF80EE80FD800C811B81AA81B981CE0FB7
:10247000D11D0FB6F894DEBF0FBECDBFED0108959C
:102480005058BB27AA270E9458120C9401130E948F
:10249000F31238F00E94FA1220F039F49F3F19F439
:1024A00026F40C94F0120EF4E095E7FB0C94EA127B
:1024B000E92F0E94121358F3BA17620773078407B3
:1024C000950720F079F4A6F50C9434130EF4E095FA
:1024D0000B2EBA2FA02D0B01B90190010C01CA01DE
:1024E000A0011124FF27591B99F0593F50F4503E89
:1024F00068F11A16F040A22F232F342F4427585F7B
:10250000F3CF469537952795A795F0405395C9F792
:102510007EF41F16BA0B620B730B840BBAF091504A
:10252000A1F0FF0FBB1F661F771F881FC2F70EC0E9
:10253000BA0F621F731F841F48F4879577956795BC
:10254000B795F7959E3F08F0B0CF9395880F08F0A8
:102550009927EE0F979587950895E89409C097FB02
:102560003EF490958095709561957F4F8F4F9F4F6A
:102570009923A9F0F92F96E9BB279395F6958795AE
:1025800077956795B795F111F8CFFAF4BB0F11F471
:1025900060FF1BC06F5F7F4F8F4F9F4F16C0882318
:1025A00011F096E911C0772321F09EE8872F762F4E
:1025B00005C0662371F096E8862F70E060E02AF08F
:1025C0009A95660F771F881FDAF7880F969587957B
:1025D00097F9089597F99F6780E870E060E00895A3
:1025E0009FEF80EC089500240A941616170618062B
:1025F0000906089500240A94121613061406050607
:102600000895092E0394000C11F4882352F0BB0F97
:1026100040F4BF2B11F460FF04C06F5F7F4F8F4FFA
:102620009F4F089557FD9058440F551F59F05F3F35
:1026300071F04795880F97FB991F61F09F3F79F0E4
:1026400087950895121613061406551FF2CF469566
:10265000F1DF08C0161617061806991FF1CF8695E8
:102660007105610508940895E894BB2766277727CC
:10267000CB0197F908950E944E130C9401130E9408
:10268000F31238F00E94FA1220F0952311F00C9406
:10269000EA120C94F01211240C9435130E941213B8
:1026A00070F3959FC1F3950F50E0551F629FF001A5
:1026B000729FBB27F00DB11D639FAA27F00DB11DBE
:1026C000AA1F649F6627B00DA11D661F829F222747
:1026D000B00DA11D621F739FB00DA11D621F839FCE
:1026E000A00D611D221F749F3327A00D611D231FA4
:1026F000849F600D211D822F762F6A2F11249F57F2
:1027000050409AF0F1F088234AF0EE0FFF1FBB1FF4
:10271000661F771F881F91505040A9F79E3F5105B3
:1027200080F00C94EA120C9435135F3FE4F3983E6A
:10273000D4F3869577956795B795F795E7959F5F5D
:10274000C1F7FE2B880F911D9695879597F90895EF
:10275000EE0FFF1F0590F491E02D0994AEE0B0E07C
:10276000E4EBF3E10C9417120D891E8986E08C834B
:102770001A8309838FEF9FE79E838D83AE01475EA7
:102780005F4F6F89788DCE0101960E94540D2F8185
:102790003885020F131FF80110822E96E4E00C9486
:0627A0003312F894FFCF94
:1027A600FFFFFFFF00E100000000000000C1808184
:1027B60000000031343836330000000000A2051D49
:1027C60005C305B8050906C705E505736574736590
:1027D6006E736F7220352025730073657473656E92
:1027E600736F7220362025730073657473656E737C
:1027F6006F7220372025730073657473656E736F6F
:08280600722038202573000048
:00000001FF
