:100000000C9449010C9471010C9471010C947101D0
:100010000C9471010C9471010C9471010C94710198
:100020000C9471010C9471010C9418080C948708BD
:100030000C9471010C9471010C9471010C94710178
:100040000C9471010C9471010C9471010C94710168
:100050000C9471010C9471010C9471010C94CE07F5
:100060000C9471010C9471010C9471010C94710148
:100070000C9471010C9471010C9471010C94710138
:100080000C9471010C9471010C9471010C94710128
:100090000C9471010C9471010C9471010C94710118
:1000A0000C9471010C9471010C94710100407A1050
:1000B000F35A00A0724E18090010A5D4E80000E819
:1000C0007648170000E40B54020000CA9A3B000077
:1000D00000E1F505000080969800000040420F0006
:1000E0000000A08601000000102700000000E803C7
:1000F000000000006400000000000A000000000092
:100100000100000000002C76D888DC674F0823DF50
:10011000C1DFAE59E1B1B796E5E3E453C63AE65123
:10012000997696E8E6C28426EB898C9B62ED407C4A
:100130006FFCEFBC9C9F40F2BAA56FA5F490055AE6
:100140002AF75C936B6CF9676DC11BFCE0E40D470B
:10015000FEF520E6B500D0ED902E0300943577052E
:100160000080841E080000204E0A000000C80C33E6
:100170003333330F986E12831141EF8D2114893B75
:10018000E65516CFFEE6DB18D1844B381BF77C1DF5
:10019000901DA4BBE424203284725E228100C9F148
:1001A00024ECA1E53D27080B00020202000009042F
:1001B00000000102020000052400100105240101D5
:1001C000010424020605240600010705810310002E
:1001D0004009040100020A00000007050202400075
:1001E0000007058302400000040309041201000215
:1001F000EF020140412341800001010203014172ED
:100200006475696E6F204C4C430041726475696E71
:100210006F2059756E000000000200090F000003F6
:100220000401000C000000000000000000000000BD
:10023000000000000000000000250028002B002E18
:1002400000310000000000240027002A002D0030AB
:10025000000404040404030405020202020403026D
:10026000020202060606060606040402020204044E
:1002700004080201104080401020408040800802A5
:100280000401804020100201108010204040200016
:10029000060C11241FBECFEFDAE0DEBFCDBF22E097
:1002A000AAE1B2E001C01D92AD38B207E1F712E059
:1002B000A0E0B1E0E6E9F2E202C005900D92AA31B9
:1002C000B107D9F711E0C9E4D1E004C02197FE01DC
:1002D0000E94460FC834D107C9F70E94B90A0C948E
:1002E00049110C94000090E0FC01E059FD4F24916D
:1002F0008F5A9D4FFC018491882399F090E0880FDC
:10030000991FFC01ED5BFD4FA591B491FC01EB5CE5
:10031000FD4F859194918FB7F894EC91E22BEC937B
:100320008FBF0895FC0180913402882311F13FB7FB
:10033000F89482E08093E9002091F200822F90E00F
:100340001816190614F481E090E0882339F02898F3
:1003500044E6409333024091F1004083222339F078
:100360002091F200211103C02BE62093E8003FBF4B
:1003700008958FEF9FEF08952FB7F89483E080934F
:10038000E9009091E800892F807295FF04C0909158
:10039000F20080E4891B2FBF089580912B02811108
:1003A0000DC082E08093270284E08093280210929F
:1003B0002A021092290281E080932B0287E292E0C8
:1003C0000895282F30E0F901EA5EFD4F9491F9017C
:1003D000E059FD4F84912F5A3D4FF901249122237A
:1003E00009F430C09923E9F091509F30D0F4E92FFF
:1003F000F0E0E350FE4F0C94460F2B022F020C024C
:1004000023022702110211021102320238023C02B9
:100410004002460211024A02909180009F77909319
:100420008000E22FF0E0EE0FFF1FEB5CFD4FA59187
:10043000B4919FB7F894EC91611132C080958E23EE
:100440008C939FBF0895909180009F7DE8CF9091FD
:100450008000977FE4CF94B59F7794BDE2CF94B5A9
:100460009F7DFBCF909190009F7790939000D9CF84
:10047000909190009F7DF9CF90919000977FF5CF5C
:100480009091C0009F779093C000CBCF9091C00017
:100490009F7DF9CF9091C200977F9093C200C1CF0A
:1004A0008E2BCECF3FB7F8948091230290912402F7
:1004B000A0912502B091260226B5A89B05C02F3F2A
:1004C00019F00196A11DB11D3FBFBA2FA92F982F7A
:1004D0008827BC01CD01620F711D811D911D42E075
:1004E000660F771F881F991F4A95D1F708958F923D
:1004F0009F92AF92BF92CF92DF92EF92FF924B0109
:100500005C010E9452026B017C0189288A288B2899
:1005100059F00E9452026C197D098E099F09683EAC
:10052000734081059105A8F3FF90EF90DF90CF9085
:10053000BF90AF909F908F900895089540911C02B6
:1005400050911D0220911A0230911B02421753074D
:10055000B4F49091E8009570E1F39091E80092FD79
:1005600019C08093F10080911C0290911D020196A8
:100570008F739927892B19F48EEF8093E80080916F
:100580001C0290911D02019690931D0280931C0203
:1005900081E0089580E00895EF92FF920F931F93FA
:1005A000CF93DF93F82E192FE62E042F81E0860FCC
:1005B000880F0E949E0283E00E949E02CF2DD12FC1
:1005C000EC0EFD2EF11CCE15DF05B9F007FF13C0B0
:1005D000FE0184910E949E02182F80E00E949E02DC
:1005E000812321968111EFCFDF91CF911F910F9140
:1005F000FF90EF9008958881EDCF81E0F5CFDF92F5
:10060000EF92FF920F931F93CF93DF93D82E8A011F
:10061000EB017B01E40EF51ECE15DF0559F0D7FE88
:1006200012C0FE0184910E949E0221968111F4CF96
:100630000FEF1FEFC801DF91CF911F910F91FF9036
:10064000EF90DF9008958881EECF0F931F93CF93A3
:10065000DF931F92CDB7DEB782E0898342E450E09A
:1006600066EA71E080E80E94FF020E94CD01DC0191
:1006700012960D911C910115110589F0D801ED918B
:10068000FC910280F381E02DBE016F5F7F4FC801B6
:10069000099597FD04C0F80100851185ECCF89818B
:1006A0000F90DF91CF911F910F910895615030F01D
:1006B0002091F100FC0120830196F8CF289884E670
:1006C0008093330208958F929F92AF92BF92CF9200
:1006D000DF92EF92FF920F931F93CF93DF936C0102
:1006E0007B018A0180910B01882309F45CC0809111
:1006F0003402882309F457C08091200280FF05C08E
:100700008091E00082608093E000E801B12C8AEFE4
:10071000A82E93E0892E2AE3922E209711F4BB2075
:10072000D9F10E94BC0181110AC0AA94AA20D9F172
:1007300061E070E080E090E00E947702EECF8C17DD
:100740001D0611F00CF08C2F9FB7F8948092E900F1
:100750002091E80025FD02C09FBFDFCF282F30E0A9
:10076000C21BD30BF701815020F041914093F1005F
:10077000FACFE20EF31EBB2021F09092E800B12CDC
:10078000EBCF8091E80085FDE7CF9092E800BB2495
:10079000B394209709F3F3CF5D9884E68093210208
:1007A000101611063CF081E090E0F60193838283FD
:1007B00010E000E0C801DF91CF911F910F91FF90F1
:1007C000EF90DF90CF90BF90AF909F908F90089563
:1007D000FC01448155816081718189E392E00C9430
:1007E0006303CF93DF931F92CDB7DEB76983DC013C
:1007F000ED91FC910280F381E02D41E050E0BE01DB
:100800006F5F7F4F09950F90DF91CF91089583E03F
:100810008093E9008091F200882319F08AE38093A5
:10082000E80008950E94BC0190E00895CF93DF9303
:100830001F92CDB7DEB7FC018485958597FD08C072
:100840002FEF3FEF358724870F90DF91CF910895E9
:10085000CE0101960E949201019719F4898190E0DE
:10086000F3CF8FEF9FEFF0CF2FB7F8948091350241
:1008700090913602A0913702B09138022FBF809339
:10088000410290934202A0934302B093440289E351
:1008900092E00E94160497FF26C02FB7F89480912B
:1008A000350290913602A0913702B09138022FBFE5
:1008B0004091410250914202609143027091440282
:1008C000841B950BA60BB70B40913D0250913E0245
:1008D00060913F027091400284179507A607B70701
:1008E000B0F28FEF9FEF08950F931F93CF93DF9395
:1008F0001F92CDB7DEB78C01FC018485958597FFEB
:100900000BC0CE0101960E949201019771F489817A
:1009100090E0F80195878487F801848595850F908C
:10092000DF91CF911F910F9108958FEF9FEFF1CF3E
:10093000FC018485958597FD0BC09FB7F89482E0F4
:100940008093E9008091F2009FBF90E001960895A6
:100950009FB7F89482E08093E9008091F2009FBFF6
:1009600090E008950F931F93CF93DF938C01EB01D9
:10097000FC01808191810097E1F0688179816115A6
:100980007105A9F0428153812C813D8142175307A3
:1009900070F00E9442118C819D81F80195838483BF
:1009A0001D821C82DF91CF911F910F9108950E94AB
:1009B000E80F88819981F801918380838A819B81E6
:1009C000938382838C819D8195838483198218828D
:1009D0001B821A82E5CFCF93DF93EC018881998146
:1009E000009711F00E94E80F198218821D821C8264
:1009F0001B821A82DF91CF910895FC018081918141
:100A0000009711F00C94E80F08950F931F93CF9364
:100A1000DF93EC0188819981009759F02A813B810D
:100A20002617370730F081E0DF91CF911F910F91AA
:100A300008958B016F5F7F4F0E947110009759F0EE
:100A4000998388831B830A832C813D81232B59F74B
:100A5000FC011082E8CF80E0E7CFEF92FF920F9386
:100A60001F93CF93DF936115710541F480E0DF910F
:100A7000CF911F910F91FF90EF900895411551056F
:100A8000B1F07B01EC010C811D81040F151FB80131
:100A90000E940505882351F3288139818C819D812D
:100AA000B701820F931F0E9442111D830C8381E0C6
:100AB000DECFCF93DF93EC01FB0101900020E9F73B
:100AC0003197AF01461B570B0E942D05811103C0C2
:100AD000CE010E94EB04CE01DF91CF910895CF9318
:100AE000DF93EC01FB0144815581608171810E949B
:100AF0002D05811103C0CE010E94EB04CE01DF91D0
:100B0000CF910895EF92FF920F931F93CF93DF93AE
:100B1000EC017B018A01BA010E94050581110BC01D
:100B2000CE010E94EB04CE01DF91CF911F910F9176
:100B3000FF90EF9008951D830C83B7018881998100
:100B40000E944211F0CFFB0101900020E9F731979C
:100B5000AF01461B570B0C9482050F931F93CF9345
:100B6000DF93CDB7DEB762970FB6F894DEBF0FBE46
:100B7000CDBF8C01CB01F801118210821382128249
:100B8000158214824AE0BE016F5F7F4F0E94600CA5
:100B9000BE016F5F7F4FC8010E94A30562960FB62A
:100BA000F894DEBF0FBECDBFDF91CF911F910F91A3
:100BB0000895FC0111821082138212821582148220
:100BC000FB0101900020E9F73197AF01461B570B5D
:100BD0000C948205AF92BF92CF92DF92EF92FF9278
:100BE0000F931F93CF93DF936C015B017A0189010F
:100BF0002417350720F48F2D7901042F182F60E872
:100C000071E0C6010E94D905D5011496CD91DC9101
:100C1000EC16FD06E0F40C171D0708F4E801D501F9
:100C2000ED91FC911197EC0FFD1F108110826D91D9
:100C30007C916E0D7F1DC60161157105A1F00E94AA
:100C4000A305F50180819181C80FD91F1883C601C2
:100C5000DF91CF911F910F91FF90EF90DF90CF9098
:100C6000BF90AF9008950E94EB04EBCF4F925F923C
:100C70006F927F928F929F92AF92BF92CF92DF92AC
:100C8000EF92FF920F931F93CF93DF93CDB7DEB711
:100C9000CE54D1090FB6F894DEBF0FBECDBFCE0142
:100CA00001966C018E01035C1F4F7C013C0160E8E2
:100CB00071E0C7010E94D90596E0E90EF11CE0162B
:100CC000F106A9F760E871E0CE01875B9F4F0E94B3
:100CD000D9050E94340497FD0EC08A30910559F061
:100CE0008DAF1EAE41E050E0B801CE01875B9F4F53
:100CF0000E942D05EECF2F968EAD9FAD2F970297B8
:100D000008F442C02F968EAC9FAC2F9781149104AB
:100D100001F12B96AEACBFAC2B9760E270E0C50141
:100D20000E9437112601009759F07C01EA18FB0850
:100D300086E0C80ED11C9FEFE916F90609F04DC0F8
:100D4000A114B10409F445C0A401B501C2010E9477
:100D50008205CF80D8848D859E85009709F464C074
:100D60000E94390CFF24F394672B682B692B09F040
:100D7000F12C80E0C114D10421F0C6010E94390C8D
:100D8000862F6F2D0E94E101CE01875B9F4F0E944D
:100D9000FD0406501109C8010E94FD046016710689
:100DA000C1F7C25BDF4F0FB6F894DEBF0FBECDBFF9
:100DB000DF91CF911F910F91FF90EF90DF90CF9037
:100DC000BF90AF909F908F907F906F905F904F906B
:100DD0000895C2010E94EB04BCCF970150E040E0AF
:100DE000BE01675B7F4FC8010E94EA05B801C201DE
:100DF0000E94B204C8010E94FD042F962EAD3FADA3
:100E00002F97A7014F5F5F4FBE01675B7F4FC80100
:100E10000E94EA05B801CE01875B9F4F0E94B20491
:100E2000C8010E94FD046ECF60E070E0CB019ACF54
:100E30008F929F92AF92BF92EF92FF920F931F9368
:100E4000CF93DF93CDB7DEB7AD970FB6F894DEBF83
:100E50000FBECDBF7C014A015B0120E030E04FE7CF
:100E600053E4CB01B4010E94410F18168CF5B70171
:100E7000CE0182960E94AD0565EB71E0CE01019630
:100E80000E94D905BE016E5D7F4FCE0101960E9482
:100E90006F0567EC71E00E9459050E94E803CE01DE
:100EA00001960E94FD04CE0182960E94FD04AD963B
:100EB0000FB6F894DEBF0FBECDBFDF91CF911F916B
:100EC0000F91FF90EF90BF90AF909F908F900895FB
:100ED00020E030E04FE753ECC501B4010E94E10E81
:100EE00087FF15C0B701CE0182960E94AD0565EB64
:100EF00071E0CE0101960E94D905BE016E5D7F4F63
:100F0000CE0101960E946F056BEE71E0C4CF19A669
:100F100018A61BA61AA61DA61CA68E010F5F1F4FA2
:100F200022E044E0C501B4010E941B0C009789F146
:100F3000BC01CE0188960E94A305B701CE0182961E
:100F40000E94AD056EE072E0CE0101960E94D905C7
:100F5000BE016E5D7F4FCE0101960E946F0561E973
:100F600071E00E945905BE01685D7F4F0E946F05C8
:100F70006FE771E00E9459050E94E803CE010196D7
:100F80000E94FD04CE0182960E94FD04CE01889647
:100F90008CCFCE0188960E94EB04CFCF1F920F9288
:100FA0000FB60F9211242F933F938F939F93AF937C
:100FB000BF938091350290913602A0913702B09193
:100FC00038023091220223E0230F2D3758F5019685
:100FD000A11DB11D20932202809335029093360209
:100FE000A0933702B093380280912302909124029B
:100FF000A0912502B09126020196A11DB11D8093FA
:10100000230290932402A0932502B0932602BF915D
:10101000AF919F918F913F912F910F900FBE0F90A5
:101020001F90189526E8230F0296A11DB11DD2CF5F
:101030001F920F920FB60F9211248F939F9380915E
:10104000E1009091E100937F9093E10083FF0FC056
:101050001092E90091E09093EB001092EC0092E383
:101060009093ED001092340298E09093F00082FF8C
:1010700022C093E09093E9009091F200992319F037
:101080009AE39093E80090912102992341F0909186
:101090002102915090932102911101C05D9A90918B
:1010A0003302992341F0909133029150909333028F
:1010B000911101C0289A84FF18C08091E2008E7EB1
:1010C00081608093E2008091E1008F7E8093E10057
:1010D000809120028E7E8061809320029F918F916B
:1010E0000F900FBE0F901F90189580FFF7CF809143
:1010F000E2008E7E80618093E2008091E1008E7E2E
:101100008093E100809120028E7E8160E5CF1F9266
:101110000F920FB60F921124CF92DF92EF92FF92AF
:101120000F931F932F933F934F935F936F937F93EF
:101130008F939F93AF93BF93EF93FF93CF93DF93DF
:10114000CDB7DEB76C97DEBFCDBF1092E9008091BE
:10115000E80083FF25C068E0CE0145960E94560353
:1011600082EF8093E8008D8987FF39C09091E80075
:1011700090FFFCCF982F907609F034C19E894F895B
:10118000588D2F89F88C911131C0803861F580918C
:101190001F028093F1001092F1008EEF8093E8001F
:1011A0006C960FB6F894DEBF0FBECDBFDF91CF9126
:1011B000FF91EF91BF91AF919F918F917F916F912F
:1011C0005F914F913F912F911F910F91FF90EF9061
:1011D000DF90CF900F900FBE0F901F9018959EEF4D
:1011E0009093E800C7CF1092F100D5CF913059F419
:1011F0008111D3CF4130510581F680911F028D7F3F
:1012000080931F02CACF933049F48111C6CF413079
:10121000510519F680911F028260F2CF953041F49A
:101220008091E80080FFFCCF20682093E300B5CFD9
:10123000963009F0A9C00B8D1C8D22E01092E900B8
:1012400010921D0210921C02F2122EC010921B026C
:1012500010921A020E9425031F8299E09983FA8254
:1012600091E09E8390EA98879AEF998720911C02DB
:1012700030911D02275F3F4F3C832B838D8310925B
:10128000E90010921D0210921C0210931B020093A1
:101290001A0249E050E0BE016F5F7F4F80E00E947C
:1012A000FF020E94250379CF10931B0200931A02BC
:1012B0000E94CD01DC0112960D911C9101151105C2
:1012C00009F451C1D801ED91FC910480F581E02D24
:1012D000BE016B5E7F4FC8010995009709F03EC1C2
:1012E000F80100851185EACFF3E0FF120EC08F8967
:1012F000882309F440C0823061F440E86BE08AE062
:1013000092E00E94CC02811148CF81E28093EB00F1
:1013100047CF813029F440E86BE08EEF91E0F1CFC8
:10132000833099F70E94CD01DC011296ED90FC907C
:101330008E010F5F1F4F6801E114F10479F0D701AE
:10134000ED91FC910680F781E02DB801C701099568
:10135000080F111DF701E084F184EECFD8011C9233
:10136000F60101900020E9F73197BF016C197D0962
:1013700040E0C601C6CF68EE71E0FB01449150E049
:1013800080E80E94FF0209CF973009F4BECF983061
:1013900021F481E08093F10000CF993009F0FDCE77
:1013A000837009F0B2CFE5E2F1E081E031E096E34D
:1013B0002191222371F08093E9003093EB00DF014B
:1013C00011972C912093EC009093ED008F5F873064
:1013D00079F78EE78093EA001092EA008F89809374
:1013E0003402DBCE8B8D9C8D1092E90010921D0291
:1013F00010921C0290931B0280931A02898D811116
:1014000092C08E899D89913A49F4813209F07DCF4D
:1014100047E050E064E071E080E0B3CF913209F042
:1014200074CF833269F48F89988DB0E0A0E0809307
:10143000000190930101A0930201B0930301ADCE8E
:10144000803269F48091E80082FFFCCF67E084E09D
:1014500091E00E9456038BEF8093E8009ECE82328B
:1014600009F09BCE8F8980930B01EEEFFFE785910A
:1014700094918B3F9C4D51F1E0E0F8E080910401A4
:1014800090910501A0910601B0910701803B944025
:10149000A105B105F1F480910B0180FD1AC0EE3F6A
:1014A0008AE0F80789F587E797E791838083809141
:1014B000600080931E0288E19BE00FB6F894A89527
:1014C000809360000FBE9093600067CEEEEFFAE06D
:1014D000D5CF808191818737974709F05ECEA89557
:1014E0008091600088618093600080911E028093EB
:1014F0006000EE3F2AE0F20789F08091FE0A9091A9
:10150000FF0A9183808349CE808191818737980734
:1015100051F29093FF0A8093FE0AC5CF1092FF0A02
:101520001092FE0A3ACE0E94CD01DC0112960D9176
:101530001C910115110509F4E8CED801ED91FC913B
:101540000190F081E02DBE016B5E7F4FC8010995CF
:10155000811123CEF80100851185EBCF18161906ED
:101560000CF41BCED2CEF1E0FF12BECE6CEE71E0D9
:1015700004CF789484B5826084BD84B5816084BDD5
:1015800085B5826085BD85B5816085BD80916E0021
:10159000816080936E001092810080918100826052
:1015A000809381008091810081608093810080918F
:1015B00080008160809380008091910082608093A0
:1015C00091008091910081608093910080919000C2
:1015D0008160809390008091C10084608093C100FD
:1015E0008091C10082608093C1008091C1008160C0
:1015F0008093C1008091C30081608093C30080917B
:10160000C00082608093C0008091C200816080939E
:10161000C20080917A00846080937A0080917A0081
:10162000826080937A0080917A00816080937A0052
:1016300080917A00806880937A0010923402109230
:101640001F02109220028091D70081608093D70002
:1016500080EA8093D80089B5806189BD89B58260B0
:1016600089BD09B400FEFDCF61E070E080E090E04C
:101670000E9477028091D8008F7C80618093D8008F
:101680008091E000807F8093E0008091E1008E7E79
:101690008093E1008DE08093E200559A209A82E0E9
:1016A0000E94730183E00E94730160E083E00E9466
:1016B000E10161E082E00E94E1018FEF9FEF9093F2
:1016C000460280934502C0E0D0E060E083E00E94E3
:1016D000E10189E392E00E949804181619060CF0C3
:1016E0008BC061E083E00E94E1010E94360640E089
:1016F00050E060E87FE385E090E00E94180760E03A
:1017000070E0CB010E9477020E94360640E050E074
:1017100060E070E486E090E00E94180760E070E00E
:10172000CB010E9477020E94360640E050E060E460
:1017300070E488E090E00E94180760E070E0CB0160
:101740000E9477020E94360640E050E060E870E4B4
:1017500087E090E00E94180760E070E0CB010E94F3
:1017600077020E94360640E050E060EA70E481E0D3
:1017700090E00E94180760E070E0CB010E947702C1
:101780000E94360640E050E060EC70E483E090E0B8
:101790000E94180760E070E0CB010E9477020E946F
:1017A000360640E050E060EE70E482E090E00E9497
:1017B000180760E070E0CB010E9477020E943606B5
:1017C00040E050E060EE70E484E090E00E94180792
:1017D00060E070E0CB010E9477020E94360640E094
:1017E00050E060E171E489E090E00E94180760E059
:1017F00070E0CB010E94770260E083E00E94E1018B
:10180000209709F462CF0E9400005FCFE9E3F2E085
:101810001382128288EE93E0A0E0B0E08483958387
:10182000A683B78386E191E0918380838FEF9FEF5A
:10183000958784870895EF920F931F93CF93DF933B
:10184000E80134E047FD34E1042E000C550B57FF4E
:1018500003C0519541955109E32E022F242FAE016B
:101860000E949A0CCE01DF91CF911F910F91EF90C2
:1018700008951F93FC0199278827BC01E8941191D2
:101880001032E9F3193010F01E30C8F31B3251F05A
:101890001D3249F4689406C00E946B0C610F711DE3
:1018A000811D911D119110531A30B0F33EF49095A3
:1018B0008095709561957F4F8F4F9F4F1F91089531
:1018C000BB274A3031F4992322F4BDE290958195EB
:1018D0009F4F0C94810C592F482F372F262F660FBE
:1018E000771F881F991F660F771F881F991F620F28
:1018F000731F841F951F660F771F881F991F0895F8
:10190000BB27FB015527AA27880F991FAA1FA417D9
:1019100010F0A41B83955051B9F7A05DAA3308F0CD
:10192000A95DA193009779F7B111B1931192CB0101
:101930000C94D10EA9E0B0E0E0EAFCE00C94100FAA
:101940006A01F22EB02E102FFBE3AF2EA01608F482
:101950001BE31F5F012F27E0AE014F5F5F4F0E9427
:10196000F90DBC018981982F9970913009F43FC01D
:101970009BE2E1FC04C09E2D9170E0FC3AC05E2D1C
:101980005071E82FE87083FF46C084E0911101C0D8
:1019900083E0EF2DE81B8F1508F0E0E0D6018E2FD5
:1019A00020E2552351F1992329F0D6019C93C601D9
:1019B00001966C0196012D5F3F4FE2FE24C08EE43C
:1019C000D6018C9391E411969C93119712968C9367
:1019D000D9018E2F90E281111BC0E20FF32FF11D70
:1019E00010828EEF9FEF2996ECE00C942C0F9DE275
:1019F000C6CF90E2C4CF2D9381508111FCCFCE0E83
:101A0000D11CE0E0D0CF8EE6D6018C9391E6DBCFFF
:101A10009D938150E0CF482F447082FF3DC084E009
:101A2000911101C083E08F1510F4EF2DE81BD60152
:101A30008E2F20E2552309F1992329F0D6019C939A
:101A4000C60101966C0196012D5F3F4FE2FE1BC05F
:101A500089E4D6018C938EE411968C93119786E4D9
:101A600012968C93D9018E2F90E2882309F4B5CF7A
:101A70009D938150FACF2D9381508111FCCFCE0ED2
:101A8000D11CE0E0D9CF89E6D6018C938EE6119681
:101A90008C93119786E6E4CF9B0177FF02C030E07C
:101AA00020E0A1E0B0E0911102C0B0E0A0E0F901B7
:101AB0003196AE0FBF1F8B2C912CBB2009F461C057
:101AC0005401EFEFAE1ABE0AAA0DBB1DFA161B0693
:101AD00019F014F04F2D4A1B511188C0E3FC59C076
:101AE0007601A42FB0E2A1114FC0C40ED11C9923DE
:101AF00009F45BC040E0D6011196F60190836D01B8
:101B0000552309F448C0012F060F9A81582F5071B0
:101B100084FF03C0913309F4015010160CF047C044
:101B2000093008F008E0EEE2FE2E5B01A01AB108D1
:101B300085019194819491082F3F320729F4D601B1
:101B4000FC92F60131966F016217730794F1021748
:101B500013077CF5DB01A21BB30BAA24A394B12CC1
:101B6000AC0EBD1EAA0DBB1D11968C9121503109E2
:101B7000D601119628153905F4F0F60180836D0120
:101B8000DBCFB12CA12CA0CFF701B1937F01A150E5
:101B9000AACF9111B0CFD601942F50E302C05D932C
:101BA00091509111FCCFC40ED11C40E0ACCF01E0AC
:101BB000BACF80E3DBCF6217730731F4963388F432
:101BC000953311F4552369F0F6018083FD01842FCC
:101BD00090E2811108C0A40FB11D1C9290E080E03A
:101BE00002CF81E3F1CF91938150F3CF911183CF55
:101BF0008ACF283008F027E03327DA01990F311D0A
:101C000087FD916000966105710539F432602E5FA1
:101C10003D9330E32A95E1F708959F3F30F08038F7
:101C20007105610509F03C5F3C5F3D93913008F020
:101C30008068911DDF93CF931F930F93FF92EF92D4
:101C4000192F987F9695E92F96959695E90FFF277E
:101C5000EA5FFE4F99273327EE24FF24A701E7010F
:101C600005900894079428F4360FE71EF81E491FC4
:101C7000511D660F771F881F991F0694A1F70590C5
:101C8000079428F4E70EF81E491F561FC11D770F51
:101C9000881F991F661F0694A1F70590079428F4E2
:101CA000F80E491F561FC71FD11D880F991F661FA9
:101CB000771F0694A1F70590079420F4490F561F4B
:101CC000C71FD81F990F661F771F881F0694A9F793
:101CD00084911095177041F0D695C7955795479503
:101CE000F794E7941A95C1F7ECEAF0E06894159040
:101CF000159135916591959105907FE27395E11865
:101D0000F10A430B560BC90BD009C0F7E10CF11EC9
:101D1000431F561FC91FD01D7EF4703311F48A95DE
:101D2000E6CFE894015030F0080F0AF400270217BC
:101D300008F4202F2395022F7A3328F079E37D933E
:101D40002A95E9F710C07D932A9589F60694979510
:101D50006795379517951794E118F10A430B560BC1
:101D6000C90BD00998F023957E9173957A3308F0CA
:101D700070E37C932013B8F77E9170617D9330F00F
:101D8000839571E37D9370E32A95E1F71124EF9039
:101D9000FF900F911F91CF91DF91992787FD90952B
:101DA0000895DC01FC01672F71917723E1F73297E9
:101DB00004C07C916D9370836291AE17BF07C8F326
:101DC00008950E94E60E08F481E00895990F000836
:101DD000550FAA0BE0E8FEEF16161706E807F907FD
:101DE000C0F012161306E407F50798F0621B730B98
:101DF000840B950B39F40A2661F0232B242B252B19
:101E000021F408950A2609F4A140A6958FEF811DBB
:101E1000811D08952F923F924F925F926F927F9211
:101E20008F929F92AF92BF92CF92DF92EF92FF92EA
:101E30000F931F93CF93DF93CDB7DEB7CA1BDB0B96
:101E40000FB6F894DEBF0FBECDBF09942A8839883B
:101E500048885F846E847D848C849B84AA84B98442
:101E6000C884DF80EE80FD800C811B81AA81B9814E
:101E7000CE0FD11D0FB6F894DEBF0FBECDBFED0162
:101E800008950E94E60E08F48FEF0895EE0FFF1FED
:101E90000590F491E02D09940F931F93CF93DF9356
:101EA0008230910510F482E090E0E0918B02F09195
:101EB0008C0230E020E0B0E0A0E0309799F42115EA
:101EC000310509F44AC0281B390B24303105D8F5F7
:101ED0008A819B816115710589F1FB01938382835E
:101EE000FE0111C0408151810281138148175907B9
:101EF000E0F04817590799F4109761F012960C9387
:101F0000129713961C933296CF01DF91CF911F91B8
:101F10000F91089500938B0210938C02F4CF21153A
:101F2000310551F04217530738F0A901DB019A013E
:101F3000BD01DF01F801C1CFEF01F9CF90938C0211
:101F400080938B02CDCFFE01E20FF31F819391931B
:101F50002250310939832883D7CF209189023091CB
:101F60008A02232B41F420910E0130910F0130930E
:101F70008A022093890220910C0130910D012115D4
:101F8000310541F42DB73EB7409110015091110138
:101F9000241B350BE0918902F0918A02E217F307C6
:101FA000A0F42E1B3F0B2817390778F0AC014E5FC9
:101FB0005F4F2417350748F04E0F5F1F50938A027A
:101FC00040938902819391939FCFF0E0E0E09CCF12
:101FD000CF93DF930097E9F0FC01329713821282CE
:101FE000A0918B02B0918C02ED0130E020E01097BF
:101FF000A1F420813181820F931F209189023091B9
:102000008A022817390709F061C0F0938A02E09329
:102010008902DF91CF910895EA01CE17DF07E8F535
:102020004A815B819E0141155105B1F7E901FB83AE
:10203000EA8349915991C40FD51FEC17FD0761F44C
:10204000808191810296840F951FE901998388838D
:10205000828193819B838A83F0E0E0E012968D91E8
:102060009C9113970097B9F52D913C911197CD0153
:102070000296820F931F2091890230918A022817BD
:10208000390739F6309751F510928C0210928B0275
:10209000B0938A02A0938902BCCFD383C2834081CC
:1020A0005181840F951FC817D90761F44E5F5F4FA8
:1020B00088819981480F591F518340838A819B8170
:1020C000938382832115310509F0B0CFF0938C0200
:1020D000E0938B029ECFFD01DC01C0CF1382128200
:1020E000D7CFB0E0A0E0E7E7F0E10C940C0F8C0153
:1020F000009751F4CB010E944C0F8C01C801CDB761
:10210000DEB7E0E10C94280FFC01E60FF71F9C01FD
:1021100022503109E217F30708F49DC0D901CD918F
:10212000DC911197C617D70798F0C530D10530F369
:10213000CE0104978617970708F3C61BD70B229783
:10214000C193D1936D937C93CF010E94E80FD6CFBA
:102150005B01AC1ABD0A4C018C0E9D1EA0918B0236
:10216000B0918C02512C412CF12CE12C109731F5BF
:102170008091890290918A028815990509F05CC0C6
:102180004616570608F058C080910C0190910D0139
:10219000009741F48DB79EB7409110015091110105
:1021A000841B950BE817F90708F055C0F0938A02D5
:1021B000E0938902F90171836083A0CF8D919C9196
:1021C000119712966C90129713967C901397A815FE
:1021D000B90559F56C0142E0C40ED11CCA14DB04E8
:1021E00020F1AC014A195B09DA011296159780F0CB
:1021F0006282738251834083D9016D937C93E11491
:10220000F10471F0D7011396FC93EE93129776CFF9
:1022100022968C0F9D1FF90191838083F301EFCFEC
:10222000F0938C02E0938B0269CF4816590608F4AC
:102230002C017D01D3019ACFCB010E944C0F7C0170
:10224000009749F0AE01B8010E942E11C8010E940A
:10225000E80F870153CF10E000E050CFFB01DC0115
:1022600002C001900D9241505040D8F70895FC01F2
:102270008191861721F08823D9F7992708953197FE
:10228000CF010895FB01DC0101900D920020E1F7E0
:062290000895F894FFCF51
:10229600FFFFFFFF00E100000000000000008D02CC
:1022A600800000000000F103630312040704980491
:1022B6001604740400C180810000004572726F72BA
:1022C6003A204368617267652049442063616E6EF7
:1022D6006F74206265206772656174657220746828
:1022E600616E20372E0A004572726F723A2043687B
:1022F600617267652049442063616E6E6F74206267
:1023060065206C6F776572207468616E20302E0AC6
:10231600004572726F723A204368617267652049A0
:102326004420002056616C75652063616E6E6F7483
:102336002062652067726561746572207468616EDB
:1023460020312E0A004572726F723A2053656E7301
:102356006F7220494420002056616C7565206361C8
:102366006E6E6F7420626520677265617465722097
:102376007468616E203235352E0A002056616C7500
:10238600652063616E6E6F74206265206C6F776581
:1023960072207468616E202D3235352E0A00736501
:0A23A6007473656E736F72200000FF
:00000001FF
