:100000000C9452010C947A010C947A010C947A01AC
:100010000C947A010C947A010C947A010C947A0174
:100020000C947A010C947A010C940E060C947D06C3
:100030000C947A010C947A010C947A010C947A0154
:100040000C947A010C947A010C947A010C947A0144
:100050000C947A010C947A010C947A010C94C405E6
:100060000C947A010C947A010C947A010C947A0124
:100070000C947A010C947A010C947A010C947A0114
:100080000C947A010C947A010C947A010C947A0104
:100090000C947A010C947A010C947A010C947A01F4
:1000A0000C947A010C947A010C947A0100407A1035
:1000B000F35A00A0724E18090010A5D4E80000E819
:1000C0007648170000E40B54020000CA9A3B000077
:1000D00000E1F505000080969800000040420F0006
:1000E0000000A08601000000102700000000E803C7
:1000F000000000006400000000000A000000000092
:100100000100000000002C76D888DC674F0823DF50
:10011000C1DFAE59E1B1B796E5E3E453C63AE65123
:10012000997696E8E6C28426EB898C9B62ED407C4A
:100130006FFCEFBC9C9F40F2BAA56FA5F490055AE6
:100140002AF75C936B6CF9676DC11BFCE0E40D470B
:10015000FEF520E6B500D0ED902E0300943577052E
:100160000080841E080000204E0A000000C80C33E6
:100170003333330F986E12831141EF8D2114893B75
:10018000E65516CFFEE6DB18D1844B381BF77C1DF5
:10019000901DA4BBE424203284725E228100C9F148
:1001A00024ECA1E53D27000102030405080B000231
:1001B0000202000009040000010202000005240000
:1001C0001001052401010104240206052406000192
:1001D0000705810310004009040100020A00000025
:1001E00007050202400000070583024000000403E7
:1001F000090412010002EF02014041234180000185
:100200000102030141726475696E6F204C4C43001A
:1002100041726475696E6F2059756E00070605049A
:100220000100080A0B0C0D090000000200090F0074
:1002300000030401000C00000000000000000000AA
:100240000000000000000000000000250028002B36
:10025000002E00310000000000240027002A002D9D
:100260000030000404040404030405020202020432
:100270000302020202060606060606040402020241
:100280000404040802011040804010204080408097
:10029000080204018040201002011080102040401C
:1002A0002000AF0811241FBECFEFDAE0DEBFCDBFC4
:1002B00011E0A0E0B1E0EAE3F5E202C005900D92A2
:1002C000AC34B107D9F721E0ACE4B1E001C01D9234
:1002D000AD3DB207E1F711E0C2E5D1E004C02197DE
:1002E000FE010E947212C135D107C9F70E94EB08C6
:1002F0000C949B120C94000090E0FC01EE57FD4F13
:1003000024918D599D4FFC018491882399F090E0B0
:10031000880F991FFC01EB5AFD4FA591B491FC0188
:10032000E95BFD4F859194918FB7F894EC91E22BA6
:10033000EC938FBF0895FC0180916701882311F130
:100340003FB7F89482E08093E9002091F200822F79
:1003500090E01816190614F481E090E0882339F033
:10036000289844E6409366014091F100408322239F
:1003700039F02091F200211103C02BE62093E80010
:100380003FBF08958FEF9FEF08952FB7F89483E054
:100390008093E9009091E800892F807295FF04C056
:1003A0009091F20080E4891B2FBF089580915E0137
:1003B00081110DC082E080935A0184E080935B013B
:1003C00010925D0110925C0181E080935E018AE5EC
:1003D00091E00895282F30E0F901E85DFD4F9491F8
:1003E000F901EE57FD4F84912D593D4FF9012491AC
:1003F000222309F430C09923E9F091509F30D0F4C2
:10040000E92FF0E0EA5FFD4F0C94721234023802DB
:1004100015022C0230021A021A021A023B02410291
:10042000450249024F021A025302909180009F77C1
:1004300090938000E22FF0E0EE0FFF1FE95BFD4F8D
:10044000A591B4919FB7F894EC91611132C0809559
:100450008E238C939FBF0895909180009F7DE8CF5D
:1004600090918000977FE4CF94B59F7794BDE2CFC1
:1004700094B59F7DFBCF909190009F7790939000D3
:10048000D9CF909190009F7DF9CF90919000977F68
:10049000F5CF9091C0009F779093C000CBCF909103
:1004A000C0009F7DF9CF9091C200977F9093C200CA
:1004B000C1CF8E2BCECF682F8091C1010E94EA015F
:1004C0008091D9019091DA018230910538F0880F3E
:1004D000991F880F991F05970197F1F7089581E0FB
:1004E0000C945B022091BF013091C0014091C10189
:1004F0005091C2012417350721F0682F822F0C94E8
:10050000EA0108958251E82FF0E0E45EFD4FE491A6
:1005100090917B008E2F880F880F80729F7D892B92
:1005200080937B00E770E064E0937C0080917A0028
:10053000806480937A0080917A0086FDFCCF809160
:1005400078009091790008953FB7F8948091560112
:1005500090915701A0915801B091590126B5A89BDF
:1005600005C02F3F19F00196A11DB11D3FBFBA2F45
:10057000A92F982F8827BC01CD01620F711D811D05
:10058000911D42E0660F771F881F991F4A95D1F78A
:1005900008958F929F92AF92BF92CF92DF92EF9287
:1005A000FF924B015C010E94A4026B017C010E943E
:1005B000A4026C197D098E099F09683E734081056C
:1005C0009105A8F321E0821A9108A108B10888EEEC
:1005D000C80E83E0D81EE11CF11C81149104A10413
:1005E000B10429F7FF90EF90DF90CF90BF90AF90CC
:1005F0009F908F90089540914F015091500120910C
:100600004D0130914E0142175307B4F49091E80028
:100610009570E1F39091E80092FD19C08093F1008C
:1006200080914F019091500101968F739927892BEA
:1006300019F48EEF8093E80080914F019091500162
:1006400001969093500180934F0181E0089580E0DE
:100650000895EF92FF920F931F93CF93DF93F82E9D
:10066000192FE62E042F81E0860F880F0E94FB02CF
:1006700083E00E94FB02CF2DD12FEC0EFD2EF11C4A
:10068000CE15DF05B9F007FF13C0FE0184910E946B
:10069000FB02182F80E00E94FB028123219681112A
:1006A000EFCFDF91CF911F910F91FF90EF900895C1
:1006B0008881EDCF81E0F5CFDF92EF92FF920F932B
:1006C0001F93CF93DF93D82E8A01EB017B01E40EB9
:1006D000F51ECE15DF0559F0D7FE12C0FE0184913C
:1006E0000E94FB0221968111F4CF0FEF1FEFC8018A
:1006F000DF91CF911F910F91FF90EF90DF900895C0
:100700008881EECF0F931F93CF93DF931F92CDB7C6
:10071000DEB782E0898342E450E06CEA71E080E871
:100720000E945C030E94D601DC0112960D911C917F
:100730000115110589F0D801ED91FC910280F3813A
:10074000E02DBE016F5F7F4FC801099597FD04C082
:10075000F80100851185ECCF89810F90DF91CF9151
:100760001F910F910895615030F02091F100FC012C
:1007700020830196F8CF289884E680936601089537
:100780008F929F92AF92BF92CF92DF92EF92FF92A1
:100790000F931F93CF93DF936C017B018A018091AC
:1007A0000B01882309F45CC080916701882309F458
:1007B00057C08091530180FF05C08091E0008260A6
:1007C0008093E000E801B12C8AEFA82E93E0892EF7
:1007D0002AE3922E209711F4BB20D9F10E94C50183
:1007E00081110AC0AA94AA20D9F161E070E080E0EA
:1007F00090E00E94C902EECF8C171D0611F00CF09C
:100800008C2F9FB7F8948092E9002091E80025FD95
:1008100002C09FBFDFCF282F30E0C21BD30BF701F0
:10082000815020F041914093F100FACFE20EF31E87
:10083000BB2021F09092E800B12CEBCF8091E80032
:1008400085FDE7CF9092E800BB24B394209709F38D
:10085000F3CF5D9884E680935401101611063CF0A6
:1008600081E090E0F6019383828310E000E0C8010C
:10087000DF91CF911F910F91FF90EF90DF90CF907C
:10088000BF90AF909F908F900895CF93DF931F926A
:10089000CDB7DEB76983DC01ED91FC910280F38175
:1008A000E02D41E050E0BE016F5F7F4F09950F9052
:1008B000DF91CF91089583E08093E9008091F20069
:1008C000882319F08AE38093E80008950E94C50107
:1008D00090E00895CF93DF931F92CDB7DEB7FC0170
:1008E0008485958597FD08C02FEF3FEF35872487D6
:1008F0000F90DF91CF910895CE0101960E949B0148
:10090000019719F4898190E0F3CF8FEF9FEFF0CF3B
:100910000F931F93CF93DF931F92CDB7DEB78C0158
:10092000FC018485958597FF0BC0CE0101960E943E
:100930009B01019771F4898190E0F8019587848784
:10094000F801848595850F90DF91CF911F910F91CC
:1009500008958FEF9FEFF1CFFC018485958597FD7A
:100960000BC09FB7F89482E08093E9008091F20079
:100970009FBF90E0019608959FB7F89482E080931E
:10098000E9008091F2009FBF90E008958EBD0000C5
:100990000DB407FEFDCF8EB508950F931F93009100
:1009A000C3011091C4012091C5013091C60140E0FE
:1009B00052E16AE770E080E0041715072607370761
:1009C00040F476956795579547958F5F8630A1F7E8
:1009D00087E0982F906A9695809581709CBD8DBD1B
:1009E00080E01F910F910C945B02CF93C82F0E945F
:1009F000CD048C2F80620E94C6048093C701CF91E2
:100A00000C946F02CF93C82F0E94CD048C2F0E94AC
:100A1000C6048093C7018FEF0E94C604C82F0E94AE
:100A20006F028C2FCF9108950F931F93CF93182FA0
:100A3000C62F0E94CD04812F80620E94C60480933D
:100A4000C70103E111E0C15030F0F80181918F013D
:100A50000E94C604F8CFCF911F910F910C946F02A2
:100A60000E94CD0480E50E94C6048093C70183E7FD
:100A70000E94C6040C946F02CF93DF93D82FC62F29
:100A80000E94CD048D2F80620E94C6048093C7010E
:100A90008C2F0E94C604DF91CF910C946F02CF92ED
:100AA000DF92EF92FF920F931F93CF93DF937C011E
:100AB0008091D301C0E0D8E1811107C0C091C80185
:100AC000DC2FC93108F0D8E1CD1B0E94CD0480EAAB
:100AD0000E94C6048093C7018701D15030F0F8010D
:100AE00081918F010E94C604F8CFC15020F080E0B0
:100AF0000E94C604FACF0E946F0281E00E94720237
:100B00008FB7F894C0906801D0906901E0906A01B5
:100B1000F0906B018FBF8FEF0E94F5048091C701A9
:100B2000807309F52FB7F89480916801909169015D
:100B3000A0916A01B0916B012FBF8C199D09AE097C
:100B4000BF0980369105A105B10528F381E08093A6
:100B5000D40180E0DF91CF911F910F91FF90EF9032
:100B6000DF90CF90089580E00E94720260E787E0F6
:100B70000E943C058091C70184FF04C081EE0E9461
:100B8000F504E7CF81E0E6CF1F920F920FB60F92E8
:100B900011242F933F938F939F93AF93BF93809193
:100BA000680190916901A0916A01B0916B01309147
:100BB000550123E0230F2D3758F50196A11DB11DD6
:100BC000209355018093680190936901A0936A0175
:100BD000B0936B018091560190915701A0915801FB
:100BE000B09159010196A11DB11D809356019093BA
:100BF0005701A0935801B0935901BF91AF919F91B4
:100C00008F913F912F910F900FBE0F901F901895CD
:100C100026E8230F0296A11DB11DD2CF1F920F927D
:100C20000FB60F9211248F939F938091E1009091C2
:100C3000E100937F9093E10083FF0FC01092E900E1
:100C400091E09093EB001092EC0092E39093ED0012
:100C50001092670198E09093F00082FF22C093E029
:100C60009093E9009091F200992319F09AE3909300
:100C7000E80090915401992341F0909154019150D2
:100C800090935401911101C05D9A9091660199234E
:100C900041F090916601915090936601911101C0CD
:100CA000289A84FF18C08091E2008E7E8160809334
:100CB000E2008091E1008F7E8093E10080915301FA
:100CC0008E7E8061809353019F918F910F900FBE14
:100CD0000F901F90189580FFF7CF8091E2008E7ED5
:100CE00080618093E2008091E1008E7E8093E1003C
:100CF000809153018E7E8160E5CF1F920F920FB6D7
:100D00000F921124CF92DF92EF92FF920F931F93D5
:100D10002F933F934F935F936F937F938F939F9303
:100D2000AF93BF93EF93FF93CF93DF93CDB7DEB72E
:100D30006C97DEBFCDBF1092E9008091E80083FF81
:100D400025C068E0CE0145960E94B30382EF8093F0
:100D5000E8008D8987FF39C09091E80090FFFCCFB3
:100D6000982F907609F034C19E894F89588D2F892C
:100D7000F88C911131C0803861F5809152018093D7
:100D8000F1001092F1008EEF8093E8006C960FB6A0
:100D9000F894DEBF0FBECDBFDF91CF91FF91EF91F1
:100DA000BF91AF919F918F917F916F915F914F9183
:100DB0003F912F911F910F91FF90EF90DF90CF9077
:100DC0000F900FBE0F901F9018959EEF9093E80024
:100DD000C7CF1092F100D5CF913059F48111D3CF04
:100DE0004130510581F6809152018D7F80935201EF
:100DF000CACF933049F48111C6CF4130510519F65D
:100E0000809152018260F2CF953041F48091E800E8
:100E100080FFFCCF20682093E300B5CF963009F027
:100E2000A9C00B8D1C8D22E01092E9001092500198
:100E300010924F01F2122EC010924E0110924D01ED
:100E40000E9482031F8299E09983FA8291E09E8337
:100E500090EA98879AEF998720914F01309150013D
:100E6000275F3F4F3C832B838D831092E9001092C4
:100E7000500110924F0110934E0100934D0149E033
:100E800050E0BE016F5F7F4F80E00E945C030E94D4
:100E9000820379CF10934E0100934D010E94D60139
:100EA000DC0112960D911C910115110509F451C137
:100EB000D801ED91FC910480F581E02DBE016B5EBF
:100EC0007F4FC8010995009709F03EC1F8010085E0
:100ED0001185EACFF3E0FF120EC08F89882309F451
:100EE00040C0823061F440E86BE080E192E00E9413
:100EF0002903811148CF81E28093EB0047CF8130F5
:100F000029F440E86BE084E092E0F1CF833099F778
:100F10000E94D601DC011296ED90FC908E010F5FCD
:100F20001F4F6801E114F10479F0D701ED91FC91B4
:100F30000680F781E02DB801C7010995080F111D42
:100F4000F701E084F184EECFD8011C92F601019004
:100F50000020E9F73197BF016C197D0940E0C60117
:100F6000C6CF6EEE71E0FB01449150E080E80E9434
:100F70005C0309CF973009F4BECF983021F481E0AB
:100F80008093F10000CF993009F0FDCE837009F015
:100F9000B2CFEDE0F1E081E031E096E32191222350
:100FA00071F08093E9003093EB00DF0111972C91F1
:100FB0002093EC009093ED008F5F873079F78EE7F8
:100FC0008093EA001092EA008F8980936701DBCE5C
:100FD0008B8D9C8D1092E9001092500110924F0160
:100FE00090934E0180934D01898D811192C08E891D
:100FF0009D89913A49F4813209F07DCF47E050E074
:1010000064E071E080E0B3CF913209F074CF8332B5
:1010100069F48F89988DB0E0A0E0809300019093EF
:101020000101A0930201B0930301ADCE803269F4B7
:101030008091E80082FFFCCF67E084E091E00E94AD
:10104000B3038BEF8093E8009ECE823209F09BCEF3
:101050008F8980930B01EEEFFFE7859194918B3F91
:101060009C4D51F1E0E0F8E0809104019091050180
:10107000A0910601B0910701803B9440A105B10504
:10108000F1F480910B0180FD1AC0EE3F8AE0F80771
:1010900089F587E797E7918380838091600080934B
:1010A000510188E19BE00FB6F894A8958093600009
:1010B0000FBE9093600067CEEEEFFAE0D5CF80814F
:1010C00091818737974709F05ECEA895809160009F
:1010D0008861809360008091510180936000EE3FB1
:1010E0002AE0F20789F08091FE0A9091FF0A91832D
:1010F000808349CE808191818737980751F2909300
:10110000FF0A8093FE0AC5CF1092FF0A1092FE0AD2
:101110003ACE0E94D601DC0112960D911C91011568
:10112000110509F4E8CED801ED91FC910190F08110
:10113000E02DBE016B5E7F4FC8010995811123CE62
:10114000F80100851185EBCF181619060CF41BCE9B
:10115000D2CEF1E0FF12BECE62EF71E004CFECE63A
:10116000F1E01382128288EE93E0A0E0B0E0848385
:101170009583A683B7838DE191E0918380838FEF80
:101180009FEF95878487EDEBF1E089E090E0938312
:1011900082838AE090E09583848380E896E9A8E9D9
:1011A000B0E086839783A087B18780E28387128A25
:1011B000138A85E0858B81E0868B85E090E0A0E056
:1011C000B0E0848F958FA68FB78F8CEB91E09183E1
:1011D000808314860895CF93DF93CDB7DEB76E97E3
:1011E0000FB6F894DEBF0FBECDBF789484B5826091
:1011F00084BD84B5816084BD85B5826085BD85B5BB
:10120000816085BD80916E00816080936E00109238
:1012100081008091810082608093810080918100B3
:101220008160809381008091800081608093800044
:101230008091910082608093910080919100816003
:1012400080939100809190008160809390008091C4
:10125000C10084608093C1008091C100826080934E
:10126000C1008091C10081608093C1008091C30062
:1012700081608093C3008091C00082608093C00031
:101280008091C20081608093C20080917A00846066
:1012900080937A0080917A00826080937A008091B6
:1012A0007A00816080937A0080917A0080688093D0
:1012B0007A001092670110925201109253018091AE
:1012C000D70081608093D70080EA8093D80089B5E9
:1012D000806189BD89B5826089BD09B400FEFDCFFA
:1012E00061E070E080E090E00E94C9028091D80047
:1012F0008F7C80618093D8008091E000807F809314
:10130000E0008091E1008E7E8093E1008DE080938B
:10131000E200559A209A1FB7F89480914C018111F0
:1013200024C0E4E7F2E08491E3E9F2E09491E82F4D
:10133000F0E0EE0FFF1FEB5AFD4FA591B491EC9139
:10134000E92321F461E081E10E94EA0181E10E9448
:101350007C018CB580618CBD8CB580648CBD8FE0C8
:101360000E947C0180E10E947C0180914C018F5F92
:1013700080934C011FBF8091BF019091C0018F3FAE
:10138000980709F48FC02091C1013091C2012F3F0D
:10139000320709F487C08217930731F00E947C015D
:1013A0008091C1010E947C0180E00E94720281E074
:1013B0000E945B0265E070E080E090E00E94C9025C
:1013C0006FE584E00E943C0585E590E0A0E0B0E098
:1013D0008093D5019093D601A093D701B093D80103
:1013E00067E086E00E943C058DE10E940205182F0F
:1013F0000E9430058DE10E94020591E0181390E0F3
:101400009093CF01882341F0181302C00E94300549
:1014100060E08DE10E943C051092D10160E08CE11A
:101420000E943C051092D3016FE381E00E943C05CD
:1014300063E082E00E943C0580E28093C80111E1F4
:101440006091C801812F0E943C051F5F1731C1F7D1
:1014500063E083E00E943C0585E08093D2016CE468
:101460000E943C0560E787E00E943C0582EE0E94F6
:10147000F50481EE0E94F5046CE080E00E943C05DA
:1014800080E00E9402058093CE0181FD0BC0682F91
:1014900062606093CE0180E00E943C058BE19EE497
:1014A0000197F1F76091D2018AE00E9414056091E2
:1014B000D20180E10E94140586E00E940205682F97
:1014C000676086E00E943C0580E00E947202809185
:1014D000D5019091D6018230910538F0880F991F7F
:1014E000880F991F05970197F1F78091D101882303
:1014F00019F081EE0E94F5046091CE016E7F609339
:10150000CE0180E00E943C0582E00E940205E6EAEE
:10151000F1E0E49161E070E001C0660FEA95EAF75E
:10152000682B82E00E943C057E0189E1E80EF11CF7
:101530008BE2282E81E0382ECE0101966C019BE3D0
:10154000A92E91E0B92E20E0822E20E0922E08EE06
:1015500013E0412C512C320183E10E948202BC0134
:10156000990F880B990B0E9450112AE038E240EA4B
:101570005BE30E9405129B01AC01C301B2010E9412
:101580006B102B013C010150110931F720E030E0D4
:101590004AE754E40E94DC1020E030E040E250E4EE
:1015A0000E946A1026EA3BE944E45CE30E946B1067
:1015B00022E03BE247E85DE30E94DC102B013C01A6
:1015C00020E030E0A9010E940012181674F42DECFE
:1015D0003CEC4CE45DE3C301B2010E94001218161A
:1015E00074F0412C512C320117C02DEC3CEC4CE432
:1015F0005DEBC301B2010E94D71087FFF2CF20E05C
:1016000030E0A901C301B2010E940012181624F0B3
:1016100077FA709477F87094870122E041E0C30173
:10162000B2010E94600BFF92EF923F922F92DF92E5
:10163000CF920E947812C6010E944F0561E070E0CF
:1016400080E090E00E94C90282E10E948202BC0117
:10165000990F880B990B0E94501120E030E040EA6E
:1016600050E40E94051220E030E040E85AE30E9476
:1016700005122DEC3CEC4CE45EE30E94DC1022E011
:1016800041E00E94600BFF92EF92BF92AF92DF9217
:10169000CF920E947812C6010E944F0561E070E06F
:1016A00080E090E00E94C9020FB6F894DEBF0FBE42
:1016B000CDBF8114910409F44ACF0E94000047CFA6
:1016C000EF920F931F93CF93DF93E80134E047FD30
:1016D00034E1042E000C550B57FF03C05195419582
:1016E0005109E32E022F242FAE010E94580DCE0186
:1016F000DF91CF911F910F91EF900895ABE0B0E093
:10170000E4E8FBE00C9433107C013B018A01FC010E
:1017100017821682838181FFC8C1CE0101965C01C8
:10172000F7019381F30193FD859193FF81913F012F
:10173000882309F453C1853239F493FD859193FFD1
:1017400081913F01853229F4B70190E00E94A50FF5
:10175000E7CF912C212C312CFFE1F31538F08B329F
:1017600011F190F4803209F1833229F137FC3CC049
:1017700020ED280F2A3050F536FE20C08AE0989ED2
:10178000200D1124922E06C08D3291F0803371F716
:10179000689430F8F30193FD859193FF81913F01A7
:1017A0008111DACF21C0689431F8689432F8F2CF11
:1017B000689433F8EFCF689434F8ECCFEAE02E9ECB
:1017C000200D1124222E689435F8E4CF8E3229F4AE
:1017D00036FC04C1689436F8DDCF8C3619F4689471
:1017E00037F8D8CF8836B1F2982F9F7D9554933033
:1017F000E0F08336A1F18337C1F1833509F063C08E
:101800002801F2E04F0E511CF801C080D180692DF3
:1018100070E036FC02C06FEF7FEFC6010E948F0FB1
:101820004C01689437F882010AC00C5F1F4FFFE338
:10183000F98388248394912C6501E89437F833FE6A
:101840002DC0522C8114910471F5552009F468CFF4
:10185000B70180E290E00E94A50F5A94F6CFF801FC
:10186000808189830E5F1F4FE4CF2801F2E04F0E85
:10187000511CF801C080D180692D70E036FC02C097
:101880006FEF7FEFC6010E949A0F4C018201D5CF06
:10189000B70180E290E00E94A50F2A942814190451
:1018A00009F0B0F7CECFF60137FC859137FE819174
:1018B0006F01B70190E00E94A50F51105A94F1E01A
:1018C0008F1A9108BFCF843619F0893609F077C096
:1018D000F80137FE6BC060817181828193810C5F5A
:1018E0001F4FF32DFF763F2E97FF09C090958095EF
:1018F000709561957F4F8F4F9F4F689437F82AE01E
:1019000030E0A5010E94D50FC82ECA188C2C432C9C
:1019100036FE0CC0E89440F8C91440F434FE05C00B
:1019200032FC03C0F32DFE7E4F2E892C44FE95C061
:10193000FE01EC0DF11D8081803309F087C0242D5C
:10194000297E422E842D8870582E43FC95C040FE7F
:101950008FC09C2C821418F42C0C922C981844FEE6
:1019600091C0B70180E390E00E94A50F42FE09C03C
:1019700088E790E041FE02C088E590E0B7010E9450
:10198000A50FC91408F48AC0CA94D12C9FEFC91AB4
:10199000D90ACA0CDB1CF60182916F01B70190E0F5
:1019A0000E94A50FAC14BD04B1F74FCF60817181C7
:1019B000072E000C880B990B0E5F1F4F92CFD32C74
:1019C000E894D4F82AE030E0853739F1232D297FD7
:1019D000D22E8F3601F148F48835A9F0F7018681BF
:1019E00097812B96E2E10C944F10803749F08837AD
:1019F000A9F7D4FE02C06894D2F820E130E00DC00F
:101A00006894D4F8F6CF34FE03C0822F8660D82EB7
:101A100020E132E002C028E030E0F801D7FE0FC03C
:101A200060817181828193810C5F1F4FA5010E94AB
:101A3000D50FC82ECA183D2CE89437F867CF6081BF
:101A4000718190E080E00E5F1F4FF0CF42FC02C03A
:101A5000839478CF8394839475CF842D867809F40A
:101A600071CFF6CFB70180E290E00E94A50F83947A
:101A70008214C0F3512C73CF522C5818821408F4DE
:101A80006ECFF8CF842D867809F47BCF8BE241FEB0
:101A900080E247FC8DE2B70190E071CFB70180E3AF
:101AA00090E00E94A50F9A946CCF8FEF9FEF99CF93
:101AB000A9E0B0E0EEE5FDE00C9439106A01F22EE9
:101AC000B02E102FFBE3AF2EA01608F41BE31F5F10
:101AD000012F27E0AE014F5F5F4F0E94B70EBC01A0
:101AE0008981982F9970913009F43FC09BE2E1FC05
:101AF00004C09E2D9170E0FC3AC05E2D5071E82F1D
:101B0000E87083FF46C084E0911101C083E0EF2DAF
:101B1000E81B8F1508F0E0E0D6018E2F20E2552358
:101B200051F1992329F0D6019C93C60101966C01CD
:101B300096012D5F3F4FE2FE24C08EE4D6018C93C8
:101B400091E411969C93119712968C93D9018E2F44
:101B500090E281111BC0E20FF32FF11D10828EEF76
:101B60009FEF2996ECE00C9455109DE2C6CF90E2D1
:101B7000C4CF2D9381508111FCCFCE0ED11CE0E05B
:101B8000D0CF8EE6D6018C9391E6DBCF9D9381502A
:101B9000E0CF482F447082FF3DC084E0911101C026
:101BA00083E08F1510F4EF2DE81BD6018E2F20E275
:101BB000552309F1992329F0D6019C93C60101967A
:101BC0006C0196012D5F3F4FE2FE1BC089E4D601F8
:101BD0008C938EE411968C93119786E412968C93D5
:101BE000D9018E2F90E2882309F4B5CF9D938150BF
:101BF000FACF2D9381508111FCCFCE0ED11CE0E0A5
:101C0000D9CF89E6D6018C938EE611968C931197E5
:101C100086E6E4CF9B0177FF02C030E020E0A1E040
:101C2000B0E0911102C0B0E0A0E0F9013196AE0F32
:101C3000BF1F8B2C912CBB2009F461C05401EFEF26
:101C4000AE1ABE0AAA0DBB1DFA161B0619F014F037
:101C50004F2D4A1B511188C0E3FC59C07601A42FB7
:101C6000B0E2A1114FC0C40ED11C992309F45BC08E
:101C700040E0D6011196F60190836D01552309F4D9
:101C800048C0012F060F9A81582F507184FF03C05E
:101C9000913309F4015010160CF047C0093008F0D8
:101CA00008E0EEE2FE2E5B01A01AB10885019194D6
:101CB000819491082F3F320729F4D601FC92F60156
:101CC00031966F016217730794F1021713077CF5C1
:101CD000DB01A21BB30BAA24A394B12CAC0EBD1E36
:101CE000AA0DBB1D11968C9121503109D601119678
:101CF00028153905F4F0F60180836D01DBCFB12C96
:101D0000A12CA0CFF701B1937F01A150AACF9111CF
:101D1000B0CFD601942F50E302C05D939150911142
:101D2000FCCFC40ED11C40E0ACCF01E0BACF80E3C1
:101D3000DBCF6217730731F4963388F4953311F4CF
:101D4000552369F0F6018083FD01842F90E2811113
:101D500008C0A40FB11D1C9290E080E002CF81E387
:101D6000F1CF91938150F3CF911183CF8ACF283057
:101D700008F027E03327DA01990F311D87FD9160C4
:101D800000966105710539F432602E5F3D9330E3B2
:101D90002A95E1F708959F3F30F08038710561057D
:101DA00009F03C5F3C5F3D93913008F08068911DE5
:101DB000DF93CF931F930F93FF92EF92192F987F8A
:101DC0009695E92F96959695E90FFF27EA5FFE4FC6
:101DD00099273327EE24FF24A701E70105900894F3
:101DE000079428F4360FE71EF81E491F511D660F91
:101DF000771F881F991F0694A1F70590079428F470
:101E0000E70EF81E491F561FC11D770F881F991F27
:101E1000661F0694A1F70590079428F4F80E491F51
:101E2000561FC71FD11D880F991F661F771F069465
:101E3000A1F70590079420F4490F561FC71FD81F1C
:101E4000990F661F771F881F0694A9F78491109534
:101E5000177041F0D695C79557954795F794E79435
:101E60001A95C1F7ECEAF0E0689415901591359158
:101E70006591959105907FE27395E118F10A430B06
:101E8000560BC90BD009C0F7E10CF11E431F561FBA
:101E9000C91FD01D7EF4703311F48A95E6CFE89403
:101EA000015030F0080F0AF40027021708F4202F21
:101EB0002395022F7A3328F079E37D932A95E9F769
:101EC00010C07D932A9589F6069497956795379566
:101ED00017951794E118F10A430B560BC90BD0095B
:101EE00098F023957E9173957A3308F070E37C9394
:101EF0002013B8F77E9170617D9330F0839571E384
:101F00007D9370E32A95E1F71124EF90FF900F91F4
:101F10001F91CF91DF91992787FD90950895FC013E
:101F20000590615070400110D8F7809590958E0F04
:101F30009F1F0895FC016150704001900110D8F777
:101F4000809590958E0F9F1F08950F931F93CF93A9
:101F5000DF93182F092FEB018B8181FD09C01FEF43
:101F60000FEF812F902FDF91CF911F910F91089547
:101F700082FF14C02E813F818C819D8128173907F3
:101F80003CF4E881F981CF0101969983888310831D
:101F90008E819F8101969F838E83E3CFE885F985AB
:101FA000812F0995892BA1F3DACFFA01AA272830CE
:101FB00051F1203181F1E8946F936E7F6E5F7F4F16
:101FC0008F4F9F4FAF4FB1E03ED0B4E03CD0670F92
:101FD000781F891F9A1FA11D680F791F8A1F911DE5
:101FE000A11D6A0F711D811D911DA11D20D009F435
:101FF00068943F912AE0269F11243019305D319377
:10200000DEF6CF010895462F4770405D4193B3E05F
:102010000FD0C9F7F6CF462F4F70405D4A3318F006
:10202000495D31FD4052419302D0A9F7EACFB4E0B7
:10203000A6959795879577956795BA95C9F700976F
:102040006105710508959B01AC010A2E0694579510
:10205000479537952795BA95C9F7620F731F841F67
:10206000951FA01D08952F923F924F925F926F92FD
:102070007F928F929F92AF92BF92CF92DF92EF9218
:10208000FF920F931F93CF93DF93CDB7DEB7CA1B99
:10209000DB0B0FB6F894DEBF0FBECDBF09942A88C4
:1020A000398848885F846E847D848C849B84AA846C
:1020B000B984C884DF80EE80FD800C811B81AA81F9
:1020C000B981CE0FD11D0FB6F894DEBF0FBECDBFC4
:1020D000ED0108955058BB27AA270E9482100C9446
:1020E000C6110E94B81138F00E94BF1120F039F4D7
:1020F0009F3F19F426F40C94B5110EF4E095E7FB1C
:102100000C94AF11E92F0E94D71158F3BA17620748
:1021100073078407950720F079F4A6F50C94F9115C
:102120000EF4E0950B2EBA2FA02D0B01B9019001F2
:102130000C01CA01A0011124FF27591B99F0593F36
:1021400050F4503E68F11A16F040A22F232F342F7E
:102150004427585FF3CF469537952795A795F040CC
:102160005395C9F77EF41F16BA0B620B730B840BE1
:10217000BAF09150A1F0FF0FBB1F661F771F881F99
:10218000C2F70EC0BA0F621F731F841F48F48795F1
:1021900077956795B795F7959E3F08F0B0CF9395E3
:1021A000880F08F09927EE0F9795879508950E945C
:1021B0008B1108F481E008950E94F0100C94C61170
:1021C0000E94BF1158F00E94B81140F029F45F3FFF
:1021D00029F00C94AF1151110C94FA110C94B51113
:1021E0000E94D71168F39923B1F3552391F3951BFE
:1021F000550BBB27AA2762177307840738F09F5F28
:102200005F4F220F331F441FAA1FA9F335D00E2E94
:102210003AF0E0E832D091505040E695001CCAF701
:102220002BD0FE2F29D0660F771F881FBB1F2617C4
:1022300037074807AB07B0E809F0BB0B802DBF019B
:10224000FF2793585F4F3AF09E3F510578F00C946A
:10225000AF110C94FA115F3FE4F3983ED4F38695E6
:1022600077956795B795F7959F5FC9F7880F911D8B
:102270009695879597F90895E1E0660F771F881F77
:10228000BB1F621773078407BA0720F0621B730B2A
:10229000840BBA0BEE1F88F7E0950895E89409C007
:1022A00097FB3EF490958095709561957F4F8F4F89
:1022B0009F4F9923A9F0F92F96E9BB279395F6959F
:1022C000879577956795B795F111F8CFFAF4BB0F1D
:1022D00011F460FF1BC06F5F7F4F8F4F9F4F16C081
:1022E000882311F096E911C0772321F09EE8872F0B
:1022F000762F05C0662371F096E8862F70E060E0C7
:102300002AF09A95660F771F881FDAF7880F96953F
:10231000879597F90895990F0008550FAA0BE0E8E3
:10232000FEEF16161706E807F907C0F01216130697
:10233000E407F50798F0621B730B840B950B39F4D7
:102340000A2661F0232B242B252B21F408950A263D
:1023500009F4A140A6958FEF811D811D089597F97D
:102360009F6780E870E060E008959FEF80EC08953B
:1023700000240A9416161706180609060895002464
:102380000A9412161306140605060895092E0394DE
:10239000000C11F4882352F0BB0F40F4BF2B11F452
:1023A00060FF04C06F5F7F4F8F4F9F4F089557FDB1
:1023B0009058440F551F59F05F3F71F04795880FB3
:1023C00097FB991F61F09F3F79F08795089512164A
:1023D00013061406551FF2CF4695F1DF08C01616F6
:1023E00017061806991FF1CF8695710561050894A7
:1023F0000895E894BB2766277727CB0197F90895BE
:102400000E948B1108F48FEF08950E9418120C940B
:10241000C6110E94B81138F00E94BF1120F0952318
:1024200011F00C94AF110C94B51111240C94FA1105
:102430000E94D71170F3959FC1F3950F50E0551F7F
:10244000629FF001729FBB27F00DB11D639FAA2709
:10245000F00DB11DAA1F649F6627B00DA11D661F58
:10246000829F2227B00DA11D621F739FB00DA11D79
:10247000621F839FA00D611D221F749F3327A00D33
:10248000611D231F849F600D211D822F762F6A2FCF
:1024900011249F5750409AF0F1F088234AF0EE0F34
:1024A000FF1FBB1F661F771F881F91505040A9F761
:1024B0009E3F510580F00C94AF110C94FA115F3FD0
:1024C000E4F3983ED4F3869577956795B795F7959D
:1024D000E7959F5FC1F7FE2B880F911D9695879515
:1024E00097F90895EE0FFF1F0590F491E02D0994E0
:1024F000AEE0B0E0EEE7F2E10C9441100D891E89E8
:1025000086E08C831A8309838FEF9FE79E838D83F8
:10251000AE01475E5F4F6F89788DCE0101960E94B4
:102520007E0B2F813885020F131FF80110822E9623
:0A253000E4E00C945D10F894FFCF76
:10253A00FFFFFFFF00E100000000000000C18081F2
:10254A00000000313438363300000000004504C072
:10255A000366045B04AC046A0488047365747365D7
:10256A006E736F7220313220257300736574736540
:0C257A006E736F72203133202573000057
:00000001FF
