:100000000C94DD000C94C5050C949E050C94050120
:100010000C9405010C9405010C9405010C94050148
:100020000C9405010C9405010C9405010C94050138
:100030000C9405010C9405010C9405010C94050128
:100040000C9454050C9405010C9412060C94EC05C8
:100050000C9405010C9405010C9405010C94050108
:100060000C9405010C94050100407A10F35A00A08D
:10007000724E18090010A5D4E80000E87648170071
:1000800000E40B54020000CA9A3B000000E1F505B1
:10009000000080969800000040420F000000A086FB
:1000A00001000000102700000000E803000000002D
:1000B0006400000000000A000000000001000000D1
:1000C00000002C76D888DC674F0823DFC1DFAE59EB
:1000D000E1B1B796E5E3E453C63AE651997696E87E
:1000E000E6C28426EB898C9B62ED407C6FFCEFBC02
:1000F0009C9F40F2BAA56FA5F490055A2AF75C932D
:100100006B6CF9676DC11BFCE0E40D47FEF520E662
:10011000B500D0ED902E0300943577050080841E45
:10012000080000204E0A000000C80C333333330FA0
:10013000986E12831141EF8D2114893BE65516CF3D
:10014000FEE6DB18D1844B381BF77C1D901DA4BB49
:10015000E424203284725E228100C9F124ECA1E5FE
:100160003D270001020304050000000024002700D1
:100170002A0000000000250028002B0004040404CD
:100180000404040402020202020203030303030341
:10019000010204081020408001020408102001021E
:1001A00004081020000000080002010000030407FA
:1001B0000000000000000000440611241FBECFEF25
:1001C000D8E0DEBFCDBF11E0A0E0B1E0EAECF1E2A3
:1001D00002C005900D92AA35B107D9F722E0AAE531
:1001E000B1E001C01D92AE32B207E1F710E0CDEDF3
:1001F000D0E004C02197FE010E94BA10CC3DD10787
:10020000C9F70E9498060C94E3100C94000090E04B
:10021000FC01EC55FE4F2491FC01E057FE4F349158
:10022000FC01E458FE4FE491EE23C9F0222339F09B
:10023000233001F1A8F4213019F1223029F1F0E046
:10024000EE0FFF1FEE58FE4FA591B4918FB7F894B3
:10025000EC91611126C030953E233C938FBF0895E9
:100260002730A9F02830C9F0243049F78091800068
:100270008F7D03C0809180008F7780938000DFCFD7
:1002800084B58F7784BDDBCF84B58F7DFBCF809124
:10029000B0008F778093B000D2CF8091B0008F7D77
:1002A000F9CF3E2BDACF682F809112020E9407010E
:1002B00080912A0290912B028230910538F0880FAC
:1002C000991F880F991F05970197F1F7089581E00D
:1002D0000C945301209110023091110240911202AE
:1002E000509113022417350721F0682F822F0C94A8
:1002F00007010895CF93DF9390E0FC01E057FE4F94
:10030000249184589E4FFC0184918823D1F090E081
:10031000880F991FFC01E859FE4FA591B491FC018B
:10032000EE58FE4FC591D49161110EC09FB7F8945D
:100330008C91E22FE0958E238C932881E223E88331
:100340009FBFDF91CF9108958FB7F894EC91E22B86
:10035000EC938FBFF6CF8E50806480937C008091A9
:100360007A00806480937A0080917A0086FDFCCFC9
:10037000809178009091790008953FB7F89480912A
:10038000680190916901A0916A01B0916B0126B555
:10039000A89B05C02F3F19F00196A11DB11D3FBFBD
:1003A000BA2FA92F982F8827BC01CD01620F711D8C
:1003B000811D911D42E0660F771F881F991F4A9586
:1003C000D1F708950895AF92BF92CF92DF92EF9246
:1003D000FF920F931F93CF93DF936C017B018B01EF
:1003E000040F151FEB015E01AE18BF08C017D1073F
:1003F00059F06991D601ED91FC910190F081E02DC9
:10040000C6010995892B79F7C501DF91CF911F911D
:100410000F91FF90EF90DF90CF90BF90AF90089535
:10042000FC01538D448D252F30E0842F90E0821BFA
:10043000930B541710F0CF96089501970895FC017F
:10044000918D828D981761F0A28DAE0FBF2FB11DD7
:100450005D968C91928D9F5F9F73928F90E008952F
:100460008FEF9FEF0895FC01918D828D981731F0E9
:10047000828DE80FF11D858D90E008958FEF9FEF3D
:100480000895FC01918D228D892F90E0805C9F4F13
:10049000821B91098F739927089580E791E00E944C
:1004A000410221E0892B09F420E0822F089580E0A9
:1004B00090E0892B29F00E944D0281110C940000DC
:1004C0000895FC01A48DA80FB92FB11DA35ABF4FE9
:1004D0002C91848D90E001968F739927848FA68943
:1004E000B7892C93A089B1898C91837080648C9397
:1004F000938D848D981306C00288F389E02D808146
:100500008F7D80830895EF92FF920F931F93CF9377
:10051000DF93EC0181E0888F9B8D8C8D98131AC03E
:10052000E889F989808185FF15C09FB7F894EE8925
:10053000FF896083E889F989808183708064808382
:100540009FBF81E090E0DF91CF911F910F91FF90CD
:10055000EF900895F62E0B8D10E00F5F1F4F0F7375
:100560001127E02E8C8D8E110CC00FB607FCFACF30
:10057000E889F989808185FFF5CFCE010E9461026B
:10058000F1CFEB8DEC0FFD2FF11DE35AFF4FF08201
:100590009FB7F8940B8FEA89FB8980818062CFCF67
:1005A000CF93DF93EC01888D8823B9F0AA89BB89AA
:1005B000E889F9898C9185FD03C0808186FD0DC095
:1005C0000FB607FCF7CF8C9185FFF2CF808185FFB6
:1005D000EDCFCE010E946102E9CFDF91CF91089566
:1005E0008EBD00000DB407FEFDCF8EB50895FC0151
:1005F00001900020E9F73197AF01481B590BBC016E
:1006000080E791E00C94E3018F929F92AF92BF92AA
:100610000F931F93CF93DF93CDB7DEB7A1970FB69C
:10062000F894DEBF0FBECDBF19A2423008F44AE0F5
:100630008E010F5D1F4F842E912CB12CA12CA50192
:1006400094010E949810E62FB901CA01EA30F4F42F
:10065000E05DD801EE938D01232B242B252B79F718
:1006600090E080E0109719F0CD010E94F702A1966A
:100670000FB6F894DEBF0FBECDBFDF91CF911F91B3
:100680000F91BF90AF909F908F900895E95CE1CF5C
:100690000F931F93009114021091150220911602DE
:1006A0003091170240E052E16AE770E080E0041701
:1006B00015072607370740F47695679557954795B0
:1006C0008F5F8630A1F787E0982F906A9695809586
:1006D00081709CBD8DBD80E01F910F910C945301E2
:1006E000CF93C82F0E9448038C2F80620E94F00293
:1006F00080931802CF910C946701CF93C82F0E946A
:1007000048038C2F0E94F002809318028FEF0E9402
:10071000F002C82F0E9467018C2FCF9108950F938C
:100720001F93CF93182FC62F0E944803812F8062FA
:100730000E94F0028093180204E011E0C15030F0F2
:10074000F80181918F010E94F002F8CFCF911F91A3
:100750000F910C9467010E94480380E50E94F0020B
:100760008093180283E70E94F0020C946701CF93F4
:10077000DF93D82FC62F0E9448038D2F80620E94DE
:10078000F002809318028C2F0E94F002DF91CF912B
:100790000C946701CF92DF92EF92FF920F931F9319
:1007A000CF93DF937C0180912402C0E0D8E18111D6
:1007B00007C0C0911902DC2FC93108F0D8E1CD1B68
:1007C0000E94480380EA0E94F00280931802870189
:1007D000D15030F0F80181918F010E94F002F8CFE2
:1007E000C15020F080E00E94F002FACF0E94670121
:1007F00081E00E946A018FB7F894C0906C01D0909C
:100800006D01E0906E01F0906F018FBF8FEF0E943D
:10081000700380911802807309F52FB7F8948091C6
:100820006C0190916D01A0916E01B0916F012FBF8D
:100830008C199D09AE09BF0980369105A105B10546
:1008400028F381E08093250280E0DF91CF911F9112
:100850000F91FF90EF90DF90CF90089580E00E947D
:100860006A0160E787E00E94B7038091180284FF65
:1008700004C081EE0E947003E7CF81E0E6CF4F9283
:100880005F926F927F928F929F92AF92BF92CF9220
:10089000DF92EF92FF92CF93DF9300D000D0CDB7DD
:1008A000DEB70E94BD0169837A838B839C8380912C
:1008B0005A0190915B01A0915C01B0915D01298189
:1008C0003A814B815C81281B390B4A0B5B0BCA01B7
:1008D000B9010E94710F20E034E244E759E40E941C
:1008E000CE0E9B01AC0120936301309364014093D1
:1008F00065015093660160E070E080E89FE30E942C
:10090000CE0E20E030E040E752E40E9426106B015A
:100910007C014B015C01C0925F01D0926001E092CA
:100920006101F0926201AC019B010E949310882347
:1009300039F18CE191E00E94F70288E291E00E9497
:10094000F70289819A81AB81BC8180935A0190938F
:100950005B01A0935C01B0935D010F900F900F902D
:100960000F90DF91CF91FF90EF90DF90CF90BF90ED
:10097000AF909F908F907F906F905F904F90089571
:1009800026013701E89477F82FEF3FEF4FE75FE755
:10099000C301B2010E94931081110DC02FEF3FEFF0
:1009A0004FE75FE7C301B2010E94C90E18161CF49D
:1009B00080E291E0C0CF2FEF3FEF4FE75FE4C70148
:1009C000B6010E94211018161CF484E291E0B3CF06
:1009D0002FEF3FEF4FE75FECC701B6010E94C90E52
:1009E00087FDF3CF20E030E0A901C701B6010E94E6
:1009F000C90E87FF0BC06DE280E791E00E94830281
:100A000046015701B7FAB094B7F8B0942AE037ED31
:100A100043EA5BE3C501B4010E945D0E4B015C013A
:100A20000E94400F6B017C010E946F0F9B01AC0183
:100A3000C501B4010E945C0E4B015C014AE0C70194
:100A4000B6010E9404036EE280E791E00E948302F7
:100A500020E030E040E251E4C501B4010E942610DC
:100A60004B015C010E94400F6B01F12CE12C4AE02C
:100A7000C701B6010E940403C701B6010E946F0FAF
:100A80009B01AC01C501B4010E945C0E20E030E086
:100A900040E251E40E9426100E94400F90E080E066
:100AA0004AE00E94040349CF1F920F920FB60F92A3
:100AB00011242F933F938F939F93AF93BF93809174
:100AC0006C0190916D01A0916E01B0916F01309118
:100AD000670123E0230F2D3758F50196A11DB11DA5
:100AE0002093670180936C0190936D01A0936E0138
:100AF000B0936F018091680190916901A0916A01A2
:100B0000B0916B010196A11DB11D80936801909376
:100B10006901A0936A01B0936B01BF91AF919F915E
:100B20008F913F912F910F900FBE0F901F901895AE
:100B300026E8230F0296A11DB11DD2CF1F920F925E
:100B40000FB60F9211242F933F934F935F936F93A0
:100B50007F938F939F93AF93BF93EF93FF93E09116
:100B60000201F09103010995FF91EF91BF91AF91BF
:100B70009F918F917F916F915F914F913F912F91B5
:100B80000F900FBE0F901F9018951F920F920FB6E7
:100B90000F9211242F933F934F935F936F937F9303
:100BA0008F939F93AF93BF93EF93FF93E0910001D7
:100BB000F09101010995FF91EF91BF91AF919F9144
:100BC0008F917F916F915F914F913F912F910F90F6
:100BD0000FBE0F901F9018951F920F920FB60F9295
:100BE00011242F933F934F935F936F937F938F9332
:100BF0009F93AF93BF93EF93FF9380E791E00E94A1
:100C00006102FF91EF91BF91AF919F918F917F9181
:100C10006F915F914F913F912F910F900FBE0F9069
:100C20001F9018951F920F920FB60F9211242F93B9
:100C30008F939F93EF93FF93E0918001F091810157
:100C40008081E0918601F091870182FD1BC0908137
:100C5000809189018F5F8F7320918A01821741F003
:100C6000E0918901F0E0E059FE4F958F8093890172
:100C7000FF91EF919F918F912F910F900FBE0F9049
:100C80001F9018958081F4CFE0E7F1E01382128283
:100C900088EE93E0A0E0B0E084839583A683B783D9
:100CA0008EE091E09183808385EC90E09587848746
:100CB00084EC90E09787868780EC90E0918B808B26
:100CC00081EC90E0938B828B82EC90E0958B848B0F
:100CD00086EC90E0978B868B118E128E138E148E7D
:100CE000EEE0F2E089E090E0938382838AE090E096
:100CF0009583848380E896E9A8E9B0E086839783AA
:100D0000A087B18780E28387128A138A85E0858B6A
:100D100081E0868B85E090E0A0E0B0E0848F958F45
:100D2000A68FB78F8DE092E091838083148608951B
:100D3000CF93DF93CDB7DEB7A2970FB6F894DEBF9F
:100D40000FBECDBF789484B5826084BD84B58160C8
:100D500084BD85B5826085BD85B5816085BD809186
:100D60006E00816080936E001092810080918100FE
:100D700082608093810080918100816080938100F6
:100D8000809180008160809380008091B1008460B8
:100D90008093B1008091B00081608093B000809119
:100DA0007A00846080937A0080917A0082608093D8
:100DB0007A0080917A00816080937A0080917A0035
:100DC000806880937A001092C100E0918001F091D8
:100DD000810182E08083E0917C01F0917D011082AD
:100DE000E0917E01F0917F018FEC80831092880169
:100DF000E0918401F091850186E08083E091820199
:100E0000F0918301808180618083E0918201F09183
:100E10008301808188608083E0918201F091830169
:100E2000808180688083E0918201F09183018081DC
:100E30008F7D80831FB7F89480915E01811127C058
:100E4000E6E8F1E08491EAE9F1E09491E82FF0E03E
:100E5000EE0FFF1FE859FE4FA591B491EC91E923E5
:100E600021F461E08AE00E94070161E08AE00E94CB
:100E70007A018CB580618CBD8CB580648CBD61E0DD
:100E80008DE00E947A0161E08BE00E947A018091FE
:100E90005E018F5F80935E011FBF80911002909171
:100EA00011028F3F980709F4AFC0209112023091D0
:100EB00013022F3F320709F4A7C08217930741F0AE
:100EC00061E00E947A0161E0809112020E947A0141
:100ED00080E00E946A0181E00E9453010E94BD01EE
:100EE0004B015C0135E0C32ED12CE12CF12C0E948A
:100EF000BD01681979098A099B09683E734081051B
:100F00009105A8F381E0C81AD108E108F10898EE2C
:100F1000890E93E0991EA11CB11CC114D104E104F7
:100F2000F10429F76FE584E00E94B70385E590E0BE
:100F3000A0E0B0E08093260290932702A0932802BD
:100F4000B093290267E086E00E94B7038DE10E941A
:100F50007D03182F0E94AB038DE10E947D0391E079
:100F6000181390E090932002882341F0181302C0D8
:100F70000E94AB0360E08DE10E94B7031092220251
:100F800060E08CE10E94B703109224026FE381E0DD
:100F90000E94B70363E082E00E94B70380E280937F
:100FA000190211E160911902812F0E94B7031F5F9E
:100FB0001731C1F763E083E00E94B70385E08093B7
:100FC00023026CE40E94B70360E787E00E94B70346
:100FD00082EE0E94700381EE0E9470036CE080E05C
:100FE0000E94B70380E00E947D0380931F0281FD71
:100FF0000BC0682F626060931F0280E00E94B703FD
:101000008BE19EE40197F1F7609123028AE00E9450
:101010008F036091230280E10E948F0386E00E948B
:101020007D03682F676086E00E94B70380E00E941E
:101030006A0180912602909127028230910538F052
:10104000880F991F880F991F05970197F1F78091D5
:101050002202882319F081EE0E94700360911F0222
:101060006E7F60931F0280E00E94B70382E00E94BF
:101070007D03E2E6F1E0E49161E070E001C0660F1B
:10108000EA95EAF7682B82E00E94B70360E082E00D
:101090000E947A0161E084E00E947A018FE394E08B
:1010A0009093010180930001809169008360809397
:1010B0006900E89A7E01B9E1EB0EF11CCE010196C0
:1010C0006C0180E0282E80E0382E8EE00E94AB017B
:1010D000BC01990F880B990B0E94710F20E030E042
:1010E00040EA50E40E94261020E030E040E85AE355
:1010F0000E9426102DEC3CEC4CE45EE30E94CE0EE8
:101100002DE630E04EE75EE30E94261023E333E352
:1011100043E950E40E945D0E2B013C0126E636E6D1
:1011200046E950E40E94C90E87FF03C0412C512CB0
:1011300032018FE00E94AB01BC01990F880B990B23
:101140000E94710F20E030E040EA50E40E94261037
:1011500020E030E040E85AE30E9426102DEC3CEC01
:101160004CE45EE30E94CE0E26E93BED44E05FE3F3
:101170000E94261025E033EC47E45DE30E945C0EFC
:101180004B015C0120E030E0A9010E94C90E87FFFD
:1011900003C0812C912C540180E10E94AB0161E0DD
:1011A000853F91400CF460E084E00E94070180914B
:1011B000630190916401A0916501B09166018F8FE8
:1011C00098A3A9A3BAA320E030E040EA50E4BC0110
:1011D000CD010E942110181664F02AE037ED43EA91
:1011E0005DE36F8D78A189A19AA10E94C90E87FF46
:1011F00008C010925F01109260011092610110927C
:101200006201870122E041E0C301B2010E9452095C
:10121000FF92EF92ABE2B1E0BF93AF93DF92CF9238
:101220000E94C010C6010E94CA0322E041E0C5012D
:10123000B4010E945209FF92EF928AE391E09F93DA
:101240008F93DF92CF920E94C010C6010E94CA0302
:1012500060915F01709160018091610190916201E4
:1012600022E041E00E945209FF92EF928AE491E06D
:101270009F938F93DF92CF920E94C010C6010E946D
:10128000CA030FB6F894DEBF0FBECDBF21143104E0
:1012900009F41BCF0E944D02882309F416CF0E9447
:1012A000000013CFEF920F931F93CF93DF93E801CA
:1012B00034E047FD34E1042E000C550B57FF03C00A
:1012C000519541955109E32E022F242FAE010E9422
:1012D0004A0BCE01DF91CF911F910F91EF900895AE
:1012E000ABE0B0E0E6E7F9E00C94250E7C013B01B1
:1012F0008A01FC0117821682838181FFC8C1CE0159
:1013000001965C01F7019381F30193FD859193FFB1
:1013100081913F01882309F453C1853239F493FD4B
:10132000859193FF81913F01853229F4B70190E0C7
:101330000E94970DE7CF912C212C312CFFE1F31562
:1013400038F08B3211F190F4803209F1833229F1B7
:1013500037FC3CC020ED280F2A3050F536FE20C067
:101360008AE0989E200D1124922E06C08D3291F0B5
:10137000803371F7689430F8F30193FD859193FF02
:1013800081913F018111DACF21C0689431F86894CE
:1013900032F8F2CF689433F8EFCF689434F8ECCF9A
:1013A000EAE02E9E200D1124222E689435F8E4CF19
:1013B0008E3229F436FC04C1689436F8DDCF8C36C1
:1013C00019F4689437F8D8CF8836B1F2982F9F7DFA
:1013D00095549330E0F08336A1F18337C1F1833522
:1013E00009F063C02801F2E04F0E511CF801C080E3
:1013F000D180692D70E036FC02C06FEF7FEFC6012F
:101400000E94810D4C01689437F882010AC00C5F7C
:101410001F4FFFE3F98388248394912C6501E8949E
:1014200037F833FE2DC0522C8114910471F55520EC
:1014300009F468CFB70180E290E00E94970D5A94BA
:10144000F6CFF801808189830E5F1F4FE4CF28011A
:10145000F2E04F0E511CF801C080D180692D70E080
:1014600036FC02C06FEF7FEFC6010E948C0D4C016D
:101470008201D5CFB70180E290E00E94970D2A94B7
:101480002814190409F0B0F7CECFF60137FC859186
:1014900037FE81916F01B70190E00E94970D5110C6
:1014A0005A94F1E08F1A9108BFCF843619F089362B
:1014B00009F077C0F80137FE6BC0608171818281CD
:1014C00093810C5F1F4FF32DFF763F2E97FF09C0CE
:1014D00090958095709561957F4F8F4F9F4F689441
:1014E00037F82AE030E0A5010E94C70DC82ECA18BF
:1014F0008C2C432C36FE0CC0E89440F8C91440F400
:1015000034FE05C032FC03C0F32DFE7E4F2E892C25
:1015100044FE95C0FE01EC0DF11D8081803309F081
:1015200087C0242D297E422E842D8870582E43FC9E
:1015300095C040FE8FC09C2C821418F42C0C922C69
:10154000981844FE91C0B70180E390E00E94970D87
:1015500042FE09C088E790E041FE02C088E590E0C5
:10156000B7010E94970DC91408F48AC0CA94D12CFF
:101570009FEFC91AD90ACA0CDB1CF60182916F01D0
:10158000B70190E00E94970DAC14BD04B1F74FCFA6
:1015900060817181072E000C880B990B0E5F1F4F25
:1015A00092CFD32CE894D4F82AE030E0853739F193
:1015B000232D297FD22E8F3601F148F48835A9F0EA
:1015C000F701868197812B96E2E10C94410E8037DA
:1015D00049F08837A9F7D4FE02C06894D2F820E118
:1015E00030E00DC06894D4F8F6CF34FE03C0822FEB
:1015F0008660D82E20E132E002C028E030E0F80119
:10160000D7FE0FC060817181828193810C5F1F4F73
:10161000A5010E94C70DC82ECA183D2CE89437F8C2
:1016200067CF6081718190E080E00E5F1F4FF0CF47
:1016300042FC02C0839478CF8394839475CF842D29
:10164000867809F471CFF6CFB70180E290E00E946E
:10165000970D83948214C0F3512C73CF522C5818D9
:10166000821408F46ECFF8CF842D867809F47BCFEE
:101670008BE241FE80E247FC8DE2B70190E071CF42
:10168000B70180E390E00E94970D9A946CCF8FEFA2
:101690009FEF99CFA9E0B0E0E0E5FBE00C942B0EC2
:1016A0006A01F22EB02E102FFBE3AF2EA01608F425
:1016B0001BE31F5F012F27E0AE014F5F5F4F0E94CA
:1016C000A90CBC018981982F9970913009F43FC011
:1016D0009BE2E1FC04C09E2D9170E0FC3AC05E2DBF
:1016E0005071E82FE87083FF46C084E0911101C07B
:1016F00083E0EF2DE81B8F1508F0E0E0D6018E2F78
:1017000020E2552351F1992329F0D6019C93C6017B
:1017100001966C0196012D5F3F4FE2FE24C08EE4DE
:10172000D6018C9391E411969C93119712968C9309
:10173000D9018E2F90E281111BC0E20FF32FF11D12
:1017400010828EEF9FEF2996ECE00C94470E9DE2FD
:10175000C6CF90E2C4CF2D9381508111FCCFCE0E25
:10176000D11CE0E0D0CF8EE6D6018C9391E6DBCFA2
:101770009D938150E0CF482F447082FF3DC084E0AC
:10178000911101C083E08F1510F4EF2DE81BD601F5
:101790008E2F20E2552309F1992329F0D6019C933D
:1017A000C60101966C0196012D5F3F4FE2FE1BC002
:1017B00089E4D6018C938EE411968C93119786E47C
:1017C00012968C93D9018E2F90E2882309F4B5CF1D
:1017D0009D938150FACF2D9381508111FCCFCE0E75
:1017E000D11CE0E0D9CF89E6D6018C938EE6119624
:1017F0008C93119786E6E4CF9B0177FF02C030E01F
:1018000020E0A1E0B0E0911102C0B0E0A0E0F90159
:101810003196AE0FBF1F8B2C912CBB2009F461C0F9
:101820005401EFEFAE1ABE0AAA0DBB1DFA161B0635
:1018300019F014F04F2D4A1B511188C0E3FC59C018
:101840007601A42FB0E2A1114FC0C40ED11C992380
:1018500009F45BC040E0D6011196F60190836D015A
:10186000552309F448C0012F060F9A81582F507153
:1018700084FF03C0913309F4015010160CF047C0E7
:10188000093008F008E0EEE2FE2E5B01A01AB10874
:1018900085019194819491082F3F320729F4D60154
:1018A000FC92F60131966F016217730794F10217EB
:1018B00013077CF5DB01A21BB30BAA24A394B12C64
:1018C000AC0EBD1EAA0DBB1D11968C912150310985
:1018D000D601119628153905F4F0F60180836D01C3
:1018E000DBCFB12CA12CA0CFF701B1937F01A15088
:1018F000AACF9111B0CFD601942F50E302C05D93CF
:1019000091509111FCCFC40ED11C40E0ACCF01E04E
:10191000BACF80E3DBCF6217730731F4963388F4D4
:10192000953311F4552369F0F6018083FD01842F6E
:1019300090E2811108C0A40FB11D1C9290E080E0DC
:1019400002CF81E3F1CF91938150F3CF911183CFF7
:101950008ACF283008F027E03327DA01990F311DAC
:1019600087FD916000966105710539F432602E5F44
:101970003D9330E32A95E1F708959F3F30F080389A
:101980007105610509F03C5F3C5F3D93913008F0C3
:101990008068911DDF93CF931F930F93FF92EF9277
:1019A000192F987F9695E92F96959695E90FFF2721
:1019B000EE53FF4F99273327EE24FF24A701E701B9
:1019C00005900894079428F4360FE71EF81E491F67
:1019D000511D660F771F881F991F0694A1F7059068
:1019E000079428F4E70EF81E491F561FC11D770FF4
:1019F000881F991F661F0694A1F70590079428F485
:101A0000F80E491F561FC71FD11D880F991F661F4B
:101A1000771F0694A1F70590079420F4490F561FED
:101A2000C71FD81F990F661F771F881F0694A9F735
:101A300084911095177041F0D695C79557954795A5
:101A4000F794E7941A95C1F7E8E6F0E068941590EA
:101A5000159135916591959105907FE27395E11807
:101A6000F10A430B560BC90BD009C0F7E10CF11E6C
:101A7000431F561FC91FD01D7EF4703311F48A9581
:101A8000E6CFE894015030F0080F0AF4002702175F
:101A900008F4202F2395022F7A3328F079E37D93E1
:101AA0002A95E9F710C07D932A9589F606949795B3
:101AB0006795379517951794E118F10A430B560B64
:101AC000C90BD00998F023957E9173957A3308F06D
:101AD00070E37C932013B8F77E9170617D9330F0B2
:101AE000839571E37D9370E32A95E1F71124EF90DC
:101AF000FF900F911F91CF91DF91992787FD9095CE
:101B00000895FC010590615070400110D8F7809550
:101B100090958E0F9F1F0895FC01615070400190B9
:101B20000110D8F7809590958E0F9F1F08950F9301
:101B30001F93CF93DF93182F092FEB018B8181FD2A
:101B400009C01FEF0FEF812F902FDF91CF911F91D1
:101B50000F91089582FF14C02E813F818C819D8159
:101B6000281739073CF4E881F981CF010196998360
:101B7000888310838E819F8101969F838E83E3CF1C
:101B8000E885F985812F0995892BA1F3DACFFA0130
:101B9000AA27283051F1203181F1E8946F936E7FAC
:101BA0006E5F7F4F8F4F9F4FAF4FB1E03ED0B4E09D
:101BB0003CD0670F781F891F9A1FA11D680F791FDE
:101BC0008A1F911DA11D6A0F711D811D911DA11DEF
:101BD00020D009F468943F912AE0269F11243019FF
:101BE000305D3193DEF6CF010895462F4770405D9A
:101BF0004193B3E00FD0C9F7F6CF462F4F70405D49
:101C00004A3318F0495D31FD4052419302D0A9F7A3
:101C1000EACFB4E0A6959795879577956795BA959D
:101C2000C9F700976105710508959B01AC010A2E63
:101C300006945795479537952795BA95C9F7620F3A
:101C4000731F841F951FA01D08952F923F924F92DE
:101C50005F926F927F928F929F92AF92BF92CF923C
:101C6000DF92EF92FF920F931F93CF93DF93CDB745
:101C7000DEB7CA1BDB0B0FB6F894DEBF0FBECDBFBD
:101C800009942A88398848885F846E847D848C848E
:101C90009B84AA84B984C884DF80EE80FD800C8197
:101CA0001B81AA81B981CE0FD11D0FB6F894DEBF7A
:101CB0000FBECDBFED0108955058BB27AA270E9443
:101CC000740E0C94E70F0E94D90F38F00E94E00FB9
:101CD00020F039F49F3F19F426F40C94D60F0EF43B
:101CE000E095E7FB0C94D00FE92F0E94F80F58F312
:101CF000BA17620773078407950720F079F4A6F5F1
:101D00000C941A100EF4E0950B2EBA2FA02D0B0197
:101D1000B90190010C01CA01A0011124FF27591B30
:101D200099F0593F50F4503E68F11A16F040A22F36
:101D3000232F342F4427585FF3CF469537952795A7
:101D4000A795F0405395C9F77EF41F16BA0B620BA6
:101D5000730B840BBAF09150A1F0FF0FBB1F661FED
:101D6000771F881FC2F70EC0BA0F621F731F841F30
:101D700048F4879577956795B795F7959E3F08F056
:101D8000B0CF9395880F08F09927EE0F9795879518
:101D900008950E94AC0F08F481E008950E94E20EBD
:101DA0000C94E70F0E94E00F58F00E94D90F40F00A
:101DB00029F45F3F29F00C94D00F51110C941B10A3
:101DC0000C94D60F0E94F80F68F39923B1F35523B2
:101DD00091F3951B550BBB27AA276217730784073E
:101DE00038F09F5F5F4F220F331F441FAA1FA9F3D4
:101DF00035D00E2E3AF0E0E832D091505040E695C2
:101E0000001CCAF72BD0FE2F29D0660F771F881F22
:101E1000BB1F261737074807AB07B0E809F0BB0B15
:101E2000802DBF01FF2793585F4F3AF09E3F510529
:101E300078F00C94D00F0C941B105F3FE4F3983EA5
:101E4000D4F3869577956795B795F7959F5FC9F712
:101E5000880F911D9695879597F90895E1E0660F93
:101E6000771F881FBB1F621773078407BA0720F00C
:101E7000621B730B840BBA0BEE1F88F7E095089575
:101E80000E94001088F09F5798F0B92F9927B751FA
:101E9000B0F0E1F0660F771F881F991F1AF0BA950E
:101EA000C9F714C0B13091F00E941A10B1E0089542
:101EB0000C941A10672F782F8827B85F39F0B93F34
:101EC000CCF3869577956795B395D9F73EF49095C1
:101ED0008095709561957F4F8F4F9F4F0895E8943F
:101EE00009C097FB3EF490958095709561957F4F62
:101EF0008F4F9F4F9923A9F0F92F96E9BB27939510
:101F0000F695879577956795B795F111F8CFFAF41F
:101F1000BB0F11F460FF1BC06F5F7F4F8F4F9F4F50
:101F200016C0882311F096E911C0772321F09EE8AE
:101F3000872F762F05C0662371F096E8862F70E014
:101F400060E02AF09A95660F771F881FDAF7880FEE
:101F50009695879597F90895990F0008550FAA0B44
:101F6000E0E8FEEF16161706E807F907C0F01216AC
:101F70001306E407F50798F0621B730B840B950BAF
:101F800039F40A2661F0232B242B252B21F4089504
:101F90000A2609F4A140A6958FEF811D811D0895A1
:101FA00097F99F6780E870E060E008959FEF80EC0C
:101FB000089500240A9416161706180609060895AF
:101FC00000240A9412161306140605060895092E15
:101FD0000394000C11F4882352F0BB0F40F4BF2B84
:101FE00011F460FF04C06F5F7F4F8F4F9F4F0895C4
:101FF00057FD9058440F551F59F05F3F71F04795BA
:10200000880F97FB991F61F09F3F79F0879508959E
:10201000121613061406551FF2CF4695F1DF08C0BD
:10202000161617061806991FF1CF869571056105DA
:1020300008940895E894BB2766277727CB0197F982
:1020400008950E94AC0F08F48FEF08950E94391094
:102050000C94E70F0E94D90F38F00E94E00F20F097
:10206000952311F00C94D00F0C94D60F11240C94DE
:102070001B100E94F80F70F3959FC1F3950F50E06D
:10208000551F629FF001729FBB27F00DB11D639F2A
:10209000AA27F00DB11DAA1F649F6627B00DA11DD0
:1020A000661F829F2227B00DA11D621F739FB00D76
:1020B000A11D621F839FA00D611D221F749F3327E6
:1020C000A00D611D231F849F600D211D822F762F7F
:1020D0006A2F11249F5750409AF0F1F088234AF05C
:1020E000EE0FFF1FBB1F661F771F881F91505040C8
:1020F000A9F79E3F510580F00C94D00F0C941B1053
:102100005F3FE4F3983ED4F3869577956795B7954E
:10211000F795E7959F5FC1F7FE2B880F911D969568
:10212000879597F908950E94AC0F880B990B089535
:10213000A1E21A2EAA1BBB1BFD010DC0AA1FBB1FCB
:10214000EE1FFF1FA217B307E407F50720F0A21B3D
:10215000B30BE40BF50B661F771F881F991F1A94AA
:1021600069F760957095809590959B01AC01BD01D4
:10217000CF010895EE0FFF1F0590F491E02D099413
:10218000AEE0B0E0E6ECF0E10C94330E0D891E8970
:1021900086E08C831A8309838FEF9FE79E838D836C
:1021A000AE01475E5F4F6F89788DCE0101960E9428
:1021B00070092F813885020F131FF80110822E96A7
:0A21C000E4E00C944F0EF894FFCFFA
:1021CA00E201E201313438363300000000008302B4
:1021DA00E3011002D00241021F0233026E616E0057
:1021EA00696E66006F7666000D0A00736574736522
:1021FA006E736F7220392025730073657473656E70
:10220A00736F722031302025730073657473656EA5
:0A221A00736F72203131202573002C
:00000001FF
