:100000000C9493010C9449070C9422070C94FB0662
:100010000C94D4060C94BB010C94BB010C94AD065B
:100020000C94BB010C94BB010C9470070C94DF077B
:100030000C94BB010C94BB010C94BB010C94BB0150
:100040000C94BB010C94BB010C94BB010C94BB0140
:100050000C94BB010C94BB010C94BB010C94630683
:100060000C94BB010C94BB010C94BB010C94BB0120
:100070000C94BB010C94BB010C94BB010C94BB0110
:100080000C94BB010C94BB010C94BB010C94BB0100
:100090000C94BB010C94BB010C94BB010C94BB01F0
:1000A0000C94BB010C94BB010C94BB01076342365A
:1000B000B79BD8A71A39685618AEBAAB558C1D3CF9
:1000C000B7CC5763BD6DEDFD753EF6177231BF00BD
:1000D0000000803F08000000BE922449123EABAAF7
:1000E000AA2ABECDCCCC4C3E00000080BEABAAAA52
:1000F000AA3E00000000BF000000803F000000009A
:1001000000084178D3BB4387D1133D190E3CC3BDD2
:100110004282AD2B3E68EC8276BED98FE1A93E4C7F
:1001200080EFFFBE01C4FF7F3F00000000000040E1
:100130007A10F35A00A0724E18090010A5D4E800F6
:1001400000E87648170000E40B54020000CA9A3B0E
:10015000000000E1F5050000809698000000404294
:100160000F000000A0860100000010270000000022
:10017000E803000000006400000000000A00000026
:1001800000000100000000002C76D888DC674F08D2
:1001900023DFC1DFAE59E1B1B796E5E3E453C63AD8
:1001A000E651997696E8E6C28426EB898C9B62ED4F
:1001B000407C6FFCEFBC9C9F40F2BAA56FA5F49009
:1001C000055A2AF75C936B6CF9676DC11BFCE0E480
:1001D0000D47FEF520E6B500D0ED902E03009435D6
:1001E00077050080841E080000204E0A000000C829
:1001F0000C333333330F986E12831141EF8D21147A
:10020000893BE65516CFFEE6DB18D1844B381BF749
:100210007C1D901DA4BBE424203284725E228100E8
:10022000C9F124ECA1E53D27000102030405080BF8
:1002300000020202000009040000010202000005A1
:1002400024001001052401010104240206052406EE
:1002500000010705810310004009040100020A00A3
:10026000000007050202400000070583024000006D
:100270000403090412010002EF02014041234180FE
:1002800000010102030141726475696E6F204C4CDC
:10029000430041726475696E6F2059756E000706E0
:1002A00005040100080A0B0C0D09000000002400E1
:1002B00027002A002D003000000000002500280043
:1002C0002B002E0031000404040404030405020280
:1002D00002020403020202020606060606060404DF
:1002E0000202020404040802011040804010204071
:1002F000804080080204018040201002011080101C
:10030000204040200000000200090F00000304010B
:10031000000C0000000000000000000000000000D1
:1003200000000000110A11241FBECFEFDAE0DEBF8B
:10033000CDBF11E0A0E0B1E0EEE7FCE202C0059025
:100340000D92A436B107D9F722E0A4E6B1E001C0CE
:100350001D92A130B207E1F711E0C3E9D1E004C07A
:100360002197FE010E941416C239D107C9F70E94D5
:100370004D0A0C943D160C940000FC0180918B01F9
:10038000882311F13FB7F89482E08093E90020912F
:10039000F200822F90E01816190614F481E090E024
:1003A000882339F0289844E640938A014091F1006F
:1003B0004083222339F02091F200211103C02BE663
:1003C0002093E8003FBF08958FEF9FEF08952FB768
:1003D000F89483E08093E9009091E800892F80727F
:1003E00095FF04C09091F20080E4891B2FBF08950F
:1003F0008091820181110DC082E080937E0184E0B2
:1004000080937F01109281011092800181E080939E
:1004100082018EE791E00895282F30E0F901EC5F2A
:10042000FC4F9491F901EB51FD4F84912A533D4FBC
:10043000F9012491222309F430C09923E9F0915065
:100440009F30D0F4E92FF0E0E85DFD4F0C941416D6
:1004500056025A0237024E0252023C023C023C0251
:100460005D02630267026B0271023C0275029091A9
:1004700080009F7790938000E22FF0E0EE0FFF1F47
:10048000E854FD4FA591B4919FB7F894EC91611198
:1004900032C080958E238C939FBF089590918000E9
:1004A0009F7DE8CF90918000977FE4CF94B59F77B0
:1004B00094BDE2CF94B59F7DFBCF909190009F7744
:1004C00090939000D9CF909190009F7DF9CF90911B
:1004D0009000977FF5CF9091C0009F779093C000D8
:1004E000CBCF9091C0009F7DF9CF9091C200977FB4
:1004F0009093C200C1CF8E2BCECF682F8091E501A3
:100500000E940C028091FD019091FE0182309105C4
:1005100038F0880F991F880F991F05970197F1F7F9
:10052000089581E00C947D022091E3013091E40173
:100530004091E5015091E6012417350721F0682F1D
:10054000822F0C940C020895CF93DF9390E0FC016E
:10055000EB51FD4F24918A539D4FFC0184918823D8
:10056000D1F090E0880F991FFC01E655FD4FA59151
:10057000B491FC01E854FD4FC591D49161110EC0B6
:100580009FB7F8948C91E22FE0958E238C9328816D
:10059000E223E8839FBFDF91CF9108958FB7F8944E
:1005A000EC91E22BEC938FBFF6CF8251E82FF0E075
:1005B000E256FD4FE49190917B008E2F880F880FBB
:1005C00080729F7D892B80937B00E770E064E093CD
:1005D0007C0080917A00806480937A0080917A0018
:1005E00086FDFCCF809178009091790008953FB707
:1005F000F89480917A0190917B01A0917C01B09157
:100600007D0126B5A89B05C02F3F19F00196A11DBD
:10061000B11D3FBFBA2FA92F982F8827BC01CD014C
:10062000620F711D811D911D42E0660F771F881FAB
:10063000991F4A95D1F708958F929F92AF92BF92DA
:10064000CF92DF92EF92FF924B015C010E94F70282
:100650006B017C010E94F7026C197D098E099F09CC
:10066000683E734081059105A8F321E0821A910844
:10067000A108B10888EEC80E83E0D81EE11CF11C69
:1006800081149104A104B10429F7FF90EF90DF9049
:10069000CF90BF90AF909F908F9008950895409114
:1006A00073015091740120917101309172014217D0
:1006B0005307B4F49091E8009570E1F39091E8004D
:1006C00092FD19C08093F1008091730190917401A3
:1006D00001968F739927892B19F48EEF8093E80088
:1006E00080917301909174010196909374018093AD
:1006F000730181E0089580E00895EF92FF920F93D7
:100700001F93CF93DF93F82E192FE62E042F81E04D
:10071000860F880F0E944F0383E00E944F03CF2D66
:10072000D12FEC0EFD2EF11CCE15DF05B9F007FF21
:1007300013C0FE0184910E944F03182F80E00E9495
:100740004F03812321968111EFCFDF91CF911F912C
:100750000F91FF90EF9008958881EDCF81E0F5CF64
:10076000DF92EF92FF920F931F93CF93DF93D82ED8
:100770008A01EB017B01E40EF51ECE15DF0559F071
:10078000D7FE12C0FE0184910E944F032196811171
:10079000F4CF0FEF1FEFC801DF91CF911F910F91A1
:1007A000FF90EF90DF9008958881EECF0F931F9315
:1007B000CF93DF931F92CDB7DEB782E0898342E407
:1007C00050E06EE272E080E80E94B0030E94F801FF
:1007D000DC0112960D911C910115110589F0D801CB
:1007E000ED91FC910280F381E02DBE016F5F7F4FA0
:1007F000C801099597FD04C0F80100851185ECCF6B
:1008000089810F90DF91CF911F910F9108956150D1
:1008100030F02091F100FC0120830196F8CF289858
:1008200084E680938A010895CF92DF92EF92FF923F
:100830000E94F7026B017C01809164019091650137
:10084000A0916601B0916701A7019601281B390BA1
:100850004A0B5B0BCA01B9010E946D1320E034E220
:1008600044E759E40E94F9129B01AC0120936D0109
:1008700030936E0140936F015093700160E070E01F
:1008800080E89FE30E94F91220E030E040E752E464
:100890000E9422146093690170936A0180936B0136
:1008A00090936C01C0926401D0926501E092660160
:1008B000F0926701FF90EF90DF90CF9008958F92B4
:1008C0009F92AF92BF92CF92DF92EF92FF920F93DF
:1008D0001F93CF93DF936C017B018A0180910B0101
:1008E000882309F45CC080918B01882309F457C0E8
:1008F0008091770180FF05C08091E0008260809345
:10090000E000E801B12C8AEFA82E93E0892E2AE3BB
:10091000922E209711F4BB20D9F10E94E70181119A
:100920000AC0AA94AA20D9F161E070E080E090E0CA
:100930000E941C03EECF8C171D0611F00CF08C2FBB
:100940009FB7F8948092E9002091E80025FD02C04D
:100950009FBFDFCF282F30E0C21BD30BF7018150A0
:1009600020F041914093F100FACFE20EF31EBB203C
:1009700021F09092E800B12CEBCF8091E80085FD4A
:10098000E7CF9092E800BB24B394209709F3F3CF0C
:100990005D9884E680937801101611063CF081E0A2
:1009A00090E0F6019383828310E000E0C801DF91BC
:1009B000CF911F910F91FF90EF90DF90CF90BF905C
:1009C000AF909F908F900895CF93DF931F92CDB7F4
:1009D000DEB76983DC01ED91FC910280F381E02DAB
:1009E00041E050E0BE016F5F7F4F09950F90DF91AE
:1009F000CF91089583E08093E9008091F2008823ED
:100A000019F08AE38093E80008950E94E70190E0DE
:100A10000895CF93DF931F92CDB7DEB7FC01848595
:100A2000958597FD08C02FEF3FEF358724870F90FE
:100A3000DF91CF910895CE0101960E94BD010197EB
:100A400019F4898190E0F3CF8FEF9FEFF0CF0F93F0
:100A50001F93CF93DF931F92CDB7DEB78C01FC01BC
:100A60008485958597FF0BC0CE0101960E94BD013C
:100A7000019771F4898190E0F80195878487F801E6
:100A8000848595850F90DF91CF911F910F910895E7
:100A90008FEF9FEFF1CFFC018485958597FD0BC00B
:100AA0009FB7F89482E08093E9008091F2009FBFA5
:100AB00090E0019608959FB7F89482E08093E90052
:100AC0008091F2009FBF90E008958EBD00000DB4AC
:100AD00007FEFDCF8EB508950F931F930091E70198
:100AE0001091E8012091E9013091EA0140E052E1E2
:100AF0006AE770E080E0041715072607370740F41F
:100B000076956795579547958F5F8630A1F787E073
:100B1000982F906A9695809581709CBD8DBD80E0E0
:100B20001F910F910C947D02CF93C82F0E946C05EA
:100B30008C2F80620E9465058093EB01CF910C940D
:100B40009102CF93C82F0E946C058C2F0E946505DF
:100B50008093EB018FEF0E946505C82F0E949102E0
:100B60008C2FCF9108950F931F93CF93182FC62FDB
:100B70000E946C05812F80620E9465058093EB01C5
:100B80000DE111E0C15030F0F80181918F010E9418
:100B90006505F8CFCF911F910F910C9491020E949F
:100BA0006C0580E50E9465058093EB0183E70E9458
:100BB00065050C949102CF93DF93D82FC62F0E9426
:100BC0006C058D2F80620E9465058093EB018C2F50
:100BD0000E946505DF91CF910C949102CF92DF9234
:100BE000EF92FF920F931F93CF93DF937C0180913D
:100BF000F701C0E0D8E1811107C0C091EC01DC2F02
:100C0000C93108F0D8E1CD1B0E946C0580EA0E9432
:100C100065058093EB018701D15030F0F801819197
:100C20008F010E946505F8CFC15020F080E00E943E
:100C30006505FACF0E94910281E00E9494028FB76D
:100C4000F894C0908C01D0908D01E0908E01F090CE
:100C50008F018FBF8FEF0E9494058091EB0180730D
:100C600009F52FB7F89480918C0190918D01A09196
:100C70008E01B0918F012FBF8C199D09AE09BF095C
:100C800080369105A105B10528F381E08093F80134
:100C900080E0DF91CF911F910F91FF90EF90DF9057
:100CA000CF90089580E00E94940260E787E00E9460
:100CB000DB058091EB0184FF04C081EE0E94940566
:100CC000E7CF81E0E6CF1F920F920FB60F9211246B
:100CD0002F933F938F939F93AF93BF9380918C01FA
:100CE00090918D01A0918E01B0918F013091790189
:100CF00023E0230F2D3758F50196A11DB11D209338
:100D0000790180938C0190938D01A0938E01B09313
:100D10008F0180917A0190917B01A0917C01B0912B
:100D20007D010196A11DB11D80937A0190937B01F5
:100D3000A0937C01B0937D01BF91AF919F918F9162
:100D40003F912F910F900FBE0F901F90189526E89E
:100D5000230F0296A11DB11DD2CF1F920F920FB685
:100D60000F9211242F933F934F935F936F937F9331
:100D70008F939F93AF93BF93EF93FF93E0911401F1
:100D8000F09115010995FF91EF91BF91AF919F915E
:100D90008F917F916F915F914F913F912F910F9024
:100DA0000FBE0F901F9018951F920F920FB60F92C3
:100DB00011242F933F934F935F936F937F938F9360
:100DC0009F93AF93BF93EF93FF93E0911201F09144
:100DD00013010995FF91EF91BF91AF919F918F9171
:100DE0007F916F915F914F913F912F910F900FBE27
:100DF0000F901F9018951F920F920FB60F9211240B
:100E00002F933F934F935F936F937F938F939F9312
:100E1000AF93BF93EF93FF93E0911001F091110115
:100E20000995FF91EF91BF91AF919F918F917F9124
:100E30006F915F914F913F912F910F900FBE0F9047
:100E40001F9018951F920F920FB60F9211242F9397
:100E50003F934F935F936F937F938F939F93AF9342
:100E6000BF93EF93FF93E0910E01F0910F0109956D
:100E7000FF91EF91BF91AF919F918F917F916F9172
:100E80005F914F913F912F910F900FBE0F901F9048
:100E900018951F920F920FB60F9211242F933F9324
:100EA0004F935F936F937F938F939F93AF93BF9372
:100EB000EF93FF93E0910C01F0910D010995FF91E3
:100EC000EF91BF91AF919F918F917F916F915F91C2
:100ED0004F913F912F910F900FBE0F901F9018953B
:100EE0001F920F920FB60F9211248F939F938091B0
:100EF000E1009091E100937F9093E10083FF0FC0A8
:100F00001092E90091E09093EB001092EC0092E3D4
:100F10009093ED0010928B0198E09093F00082FF87
:100F200022C093E09093E9009091F200992319F088
:100F30009AE39093E80090917801992341F0909181
:100F40007801915090937801911101C05D9A909130
:100F50008A01992341F090918A01915090938A01DE
:100F6000911101C0289A84FF18C08091E2008E7E02
:100F700081608093E2008091E1008F7E8093E100A8
:100F8000809177018E7E8061809377019F918F9110
:100F90000F900FBE0F901F90189580FFF7CF809194
:100FA000E2008E7E80618093E2008091E1008E7E7F
:100FB0008093E100809177018E7E8160E5CF1F9262
:100FC0000F920FB60F921124CF92DF92EF92FF9201
:100FD0000F931F932F933F934F935F936F937F9341
:100FE0008F939F93AF93BF93EF93FF93CF93DF9331
:100FF000CDB7DEB76C97DEBFCDBF1092E900809110
:10100000E80083FF25C068E0CE0145960E940704F2
:1010100082EF8093E8008D8987FF39C09091E800C6
:1010200090FFFCCF982F907609F034C19E894F89AC
:10103000588D2F89F88C911131C0803861F58091DD
:1010400076018093F1001092F1008EEF8093E8001A
:101050006C960FB6F894DEBF0FBECDBFDF91CF9177
:10106000FF91EF91BF91AF919F918F917F916F9180
:101070005F914F913F912F911F910F91FF90EF90B2
:10108000DF90CF900F900FBE0F901F9018959EEF9E
:101090009093E800C7CF1092F100D5CF913059F46A
:1010A0008111D3CF4130510581F6809176018D7F3A
:1010B00080937601CACF933049F48111C6CF413075
:1010C000510519F6809176018260F2CF953041F496
:1010D0008091E80080FFFCCF20682093E300B5CF2B
:1010E000963009F0A9C00B8D1C8D22E01092E9000A
:1010F0001092740110927301F2122EC010927201BC
:10110000109271010E94D6031F8299E09983FA829E
:1011100091E09E8390EA98879AEF998720917301D6
:1011200030917401275F3F4F3C832B838D83109256
:10113000E9001092740110927301109372010093F0
:10114000710149E050E0BE016F5F7F4F80E00E9477
:10115000B0030E94D60379CF1093720100937101FE
:101160000E94F801DC0112960D911C9101151105E8
:1011700009F451C1D801ED91FC910480F581E02D75
:10118000BE016B5E7F4FC8010995009709F03EC113
:10119000F80100851185EACFF3E0FF120EC08F89B8
:1011A000882309F440C0823061F440E86BE082E9B2
:1011B00092E00E947D03811148CF81E28093EB0091
:1011C00047CF813029F440E86BE086E892E0F1CF28
:1011D000833099F70E94F801DC011296ED90FC90A3
:1011E0008E010F5F1F4F6801E114F10479F0D70100
:1011F000ED91FC910680F781E02DB801C7010995BA
:10120000080F111DF701E084F184EECFD8011C9284
:10121000F60101900020E9F73197BF016C197D09B3
:1012200040E0C601C6CF60E772E0FB01449150E0A8
:1012300080E80E94B00309CF973009F4BECF983000
:1012400021F481E08093F10000CF993009F0FDCEC8
:10125000837009F0B2CFE7E1F1E081E031E096E39D
:101260002191222371F08093E9003093EB00DF019C
:1012700011972C912093EC009093ED008F5F8730B5
:1012800079F78EE78093EA001092EA008F898093C5
:101290008B01DBCE8B8D9C8D1092E9001092740136
:1012A000109273019093720180937101898D811165
:1012B00092C08E899D89913A49F4813209F07DCF9F
:1012C00047E050E064E071E080E0B3CF913209F094
:1012D00074CF833269F48F89988DB0E0A0E0809359
:1012E000000190930101A0930201B0930301ADCEE0
:1012F000803269F48091E80082FFFCCF67E084E0EF
:1013000091E00E9407048BEF8093E8009ECE82322A
:1013100009F09BCE8F8980930B01EEEFFFE785915B
:1013200094918B3F9C4D51F1E0E0F8E080910401F5
:1013300090910501A0910601B0910701803B944076
:10134000A105B105F1F480910B0180FD1AC0EE3FBB
:101350008AE0F80789F587E797E791838083809192
:1013600060008093750188E19BE00FB6F894A89522
:10137000809360000FBE9093600067CEEEEFFAE0BE
:10138000D5CF808191818737974709F05ECEA895A8
:1013900080916000886180936000809175018093E6
:1013A0006000EE3F2AE0F20789F08091FE0A9091FA
:1013B000FF0A9183808349CE808191818737980786
:1013C00051F29093FF0A8093FE0AC5CF1092FF0A54
:1013D0001092FE0A3ACE0E94F801DC0112960D919D
:1013E0001C910115110509F4E8CED801ED91FC918D
:1013F0000190F081E02DBE016B5E7F4FC801099521
:10140000811123CEF80100851185EBCF181619063E
:101410000CF41BCED2CEF1E0FF12BECE64E772E038
:1014200004CFE0E9F1E01382128288EE93E0A0E0BD
:10143000B0E084839583A683B78387E291E09183AC
:1014400080838FEF9FEF95878487E1EEF1E089E05D
:1014500090E0938382838AE090E09583848380E8A0
:1014600096E9A8E9B0E086839783A087B18780E2F8
:101470008387128A138A85E0858B81E0868B85E0DD
:1014800090E0A0E0B0E0848F958FA68FB78F80EEBC
:1014900091E09183808314860895CF93DF93CDB735
:1014A000DEB7A2970FB6F894DEBF0FBECDBF78941B
:1014B00084B5826084BD84B5816084BD85B5826059
:1014C00085BD85B5816085BD80916E00816080930A
:1014D0006E00109281008091810082608093810073
:1014E0008091810081608093810080918000816083
:1014F0008093800080919100826080939100809120
:101500009100816080939100809190008160809330
:1015100090008091C10084608093C1008091C100DF
:1015200082608093C1008091C10081608093C1007E
:101530008091C30081608093C3008091C00082606D
:101540008093C0008091C20081608093C20080912E
:101550007A00846080937A0080917A008260809320
:101560007A0080917A00816080937A0080917A007D
:10157000806880937A0010928B011092760110920D
:1015800077018091D70081608093D70080EA8093B3
:10159000D80089B5806189BD89B5826089BD09B4EB
:1015A00000FEFDCF61E070E080E090E00E941C034F
:1015B0008091D8008F7C80618093D8008091E0007A
:1015C000807F8093E0008091E1008E7E8093E10037
:1015D0008DE08093E200559A209A8FEF9FEF9093D1
:1015E0009D0180939C011FB7F8948091680181113F
:1015F00027C0E7EDF2E08491E6EFF2E09491E82F66
:10160000F0E0EE0FFF1FE655FD4FA591B491EC9170
:10161000E92321F461E081E10E940C0261E081E1B3
:101620000E94A4028CB580618CBD8CB580648CBD99
:1016300061E08FE00E94A40261E080E10E94A402C8
:10164000809168018F5F809368011FBF8091E301E3
:101650009091E4018F3F980709F491C02091E50132
:101660003091E6012F3F320709F489C082179307B2
:1016700041F061E00E94A40261E08091E5010E94D6
:10168000A40280E00E94940281E00E947D0265E055
:1016900070E080E090E00E941C036FE584E00E940F
:1016A000DB0585E590E0A0E0B0E08093F901909340
:1016B000FA01A093FB01B093FC0167E086E00E9471
:1016C000DB058DE10E94A105182F0E94CF058DE159
:1016D0000E94A10591E0181390E09093F3018823F4
:1016E00041F0181302C00E94CF0560E08DE10E9416
:1016F000DB051092F50160E08CE10E94DB051092A1
:10170000F7016FE381E00E94DB0563E082E00E9465
:10171000DB0580E28093EC0111E16091EC01812F07
:101720000E94DB051F5F1731C1F763E083E00E9471
:10173000DB0585E08093F6016CE40E94DB0560E741
:1017400087E00E94DB0582EE0E94940581EE0E94F4
:1017500094056CE080E00E94DB0580E00E94A1051A
:101760008093F20181FD0BC0682F62606093F201EB
:1017700080E00E94DB058BE19EE40197F1F7609128
:10178000F6018AE00E94B3056091F60180E10E94B3
:10179000B30586E00E94A105682F676086E00E947D
:1017A000DB0580E00E9494028091F9019091FA019A
:1017B0008230910538F0880F991F880F991F05977F
:1017C0000197F1F78091F501882319F081EE0E94CD
:1017D00094056091F2016E7F6093F20180E00E94B7
:1017E000DB0582E00E94A105E8E2F2E0E49161E01D
:1017F00070E001C0660FEA95EAF7682B82E00E946C
:10180000DB0560E082E00E94A40261E084E00E94C7
:10181000A40284E194E090930F0180930E018091E3
:1018200069008C6080936900E99A1E0189E1280EA5
:10183000311C82E10E94D502BC01990F880B990BE3
:101840000E946D1320E030E040EA50E40E94221430
:1018500020E030E040E85AE30E9422142DEC3CECFA
:101860004CE45EE30E94F9126B017C0120E030E061
:1018700040E450E40E948F144B015C012DE630E0FF
:101880004EE75EE3C701B6010E94221423E333E36F
:1018900043E950E40E9488122B013C01A701960104
:1018A000C701B6010E94221420E030E0A9010E9485
:1018B00022149B01AC01C301B2010E9488126B018A
:1018C0007C0120E030E0A901C501B4010E9422148E
:1018D0009B01AC01C701B6010E9488124B015C015B
:1018E00026E636E646E950E40E94F41287FF03C07C
:1018F000812C912C540183E10E94D502BC01990FE7
:10190000880B990B0E946D1320E030E040EA50E410
:101910000E94221420E030E040E85AE30E942214A2
:101920002DEC3CEC4CE45EE30E94F9126B017C016F
:1019300020E030E040E450E40E948F146F8F78A3E1
:1019400089A39AA326E93BED44E05FE3C701B60112
:101950000E94221425E033EC47E45DE30E948712E5
:101960002B013C01A7019601C701B6010E94221478
:1019700020E030E0A9010E9422149B01AC01C301C8
:10198000B2010E9488126B017C0120E030E0A901C5
:101990006F8D78A189A19AA10E9422149B01AC01AC
:1019A000C701B6010E9488126B017C0120E030E083
:1019B000A9010E94F41287FF03C0C12CD12C76012B
:1019C00084E10E94D50261E0853F91400CF460E023
:1019D00084E00E940C0240906D0150906E01609076
:1019E0006F017090700120E030E040EA50E4C301E4
:1019F000B2010E941D14181654F02AE037ED43EA94
:101A00005DE3C301B2010E94F41287FF08C0109287
:101A1000690110926A0110926B0110926C018101B0
:101A200022E041E0C501B4010E947D0D3F922F925A
:101A300085E391E09F938F9381E090E08C0F9D1F51
:101A40009F938F930E941A16CE0101960E94EE0575
:101A500061E070E080E090E00E941C0322E041E041
:101A6000C701B6010E947D0D3F922F9284E491E060
:101A70009F938F9381E090E08C0F9D1F9F938F9396
:101A80000E941A16CE0101960E94EE0561E070E0F8
:101A900080E090E00E941C036091690170916A01EE
:101AA00080916B0190916C0122E041E00E947D0DDC
:101AB0003F922F9284E591E09F938F9381E090E095
:101AC0008C0F9D1F9F938F930E941A16CE01019633
:101AD0000E94EE0561E070E080E090E00E941C034F
:101AE0000FB6F894DEBF0FBECDBF80E090E0892B2B
:101AF00009F49FCE0E9400009CCEEF920F931F939B
:101B0000CF93DF93E80134E047FD34E1042E000C6D
:101B1000550B57FF03C0519541955109E32E022FF4
:101B2000242FAE010E94750FCE01DF91CF911F913E
:101B30000F91EF900895ABE0B0E0E1EAFDE00C9486
:101B400050127C013B018A01FC01178216828381BD
:101B500081FFC8C1CE0101965C01F7019381F301B9
:101B600093FD859193FF81913F01882309F453C12F
:101B7000853239F493FD859193FF81913F01853240
:101B800029F4B70190E00E94C211E7CF912C212CDB
:101B9000312CFFE1F31538F08B3211F190F48032E3
:101BA00009F1833229F137FC3CC020ED280F2A309F
:101BB00050F536FE20C08AE0989E200D1124922E0A
:101BC00006C08D3291F0803371F7689430F8F301DC
:101BD00093FD859193FF81913F018111DACF21C05F
:101BE000689431F8689432F8F2CF689433F8EFCF04
:101BF000689434F8ECCFEAE02E9E200D1124222EBA
:101C0000689435F8E4CF8E3229F436FC04C1689428
:101C100036F8DDCF8C3619F4689437F8D8CF88368B
:101C2000B1F2982F9F7D95549330E0F08336A1F167
:101C30008337C1F1833509F063C02801F2E04F0E0C
:101C4000511CF801C080D180692D70E036FC02C0C3
:101C50006FEF7FEFC6010E94AC114C01689437F81A
:101C600082010AC00C5F1F4FFFE3F983882483942D
:101C7000912C6501E89437F833FE2DC0522C811465
:101C8000910471F5552009F468CFB70180E290E026
:101C90000E94C2115A94F6CFF801808189830E5FA9
:101CA0001F4FE4CF2801F2E04F0E511CF801C08015
:101CB000D180692D70E036FC02C06FEF7FEFC60166
:101CC0000E94B7114C018201D5CFB70180E290E0AC
:101CD0000E94C2112A942814190409F0B0F7CECF3B
:101CE000F60137FC859137FE81916F01B70190E0D5
:101CF0000E94C21151105A94F1E08F1A9108BFCF7F
:101D0000843619F0893609F077C0F80137FE6BC0C8
:101D100060817181828193810C5F1F4FF32DFF766B
:101D20003F2E97FF09C090958095709561957F4FE4
:101D30008F4F9F4F689437F82AE030E0A5010E944A
:101D4000F211C82ECA188C2C432C36FE0CC0E89415
:101D500040F8C91440F434FE05C032FC03C0F32D32
:101D6000FE7E4F2E892C44FE95C0FE01EC0DF11D28
:101D70008081803309F087C0242D297E422E842D56
:101D80008870582E43FC95C040FE8FC09C2C821456
:101D900018F42C0C922C981844FE91C0B70180E3E3
:101DA00090E00E94C21142FE09C088E790E041FE27
:101DB00002C088E590E0B7010E94C211C91408F47E
:101DC0008AC0CA94D12C9FEFC91AD90ACA0CDB1C4D
:101DD000F60182916F01B70190E00E94C211AC142C
:101DE000BD04B1F74FCF60817181072E000C880BC5
:101DF000990B0E5F1F4F92CFD32CE894D4F82AE0B2
:101E000030E0853739F1232D297FD22E8F3601F12D
:101E100048F48835A9F0F701868197812B96E2E195
:101E20000C946C12803749F08837A9F7D4FE02C0B1
:101E30006894D2F820E130E00DC06894D4F8F6CF71
:101E400034FE03C0822F8660D82E20E132E002C02B
:101E500028E030E0F801D7FE0FC0608171818281F7
:101E600093810C5F1F4FA5010E94F211C82ECA1862
:101E70003D2CE89437F867CF6081718190E080E075
:101E80000E5F1F4FF0CF42FC02C0839478CF839443
:101E9000839475CF842D867809F471CFF6CFB7017E
:101EA00080E290E00E94C21183948214C0F3512C0E
:101EB00073CF522C5818821408F46ECFF8CF842DAB
:101EC000867809F47BCF8BE241FE80E247FC8DE20D
:101ED000B70190E071CFB70180E390E00E94C2119A
:101EE0009A946CCF8FEF9FEF99CFA9E0B0E0EBE72A
:101EF000FFE00C9456126A01F22EB02E102FFBE375
:101F0000AF2EA01608F41BE31F5F012F27E0AE01E0
:101F10004F5F5F4F0E94D410BC018981982F997048
:101F2000913009F43FC09BE2E1FC04C09E2D91700A
:101F3000E0FC3AC05E2D5071E82FE87083FF46C088
:101F400084E0911101C083E0EF2DE81B8F1508F0AC
:101F5000E0E0D6018E2F20E2552351F1992329F09C
:101F6000D6019C93C60101966C0196012D5F3F4FEF
:101F7000E2FE24C08EE4D6018C9391E411969C93EA
:101F8000119712968C93D9018E2F90E281111BC06C
:101F9000E20FF32FF11D10828EEF9FEF2996ECE0F8
:101FA0000C9472129DE2C6CF90E2C4CF2D93815063
:101FB0008111FCCFCE0ED11CE0E0D0CF8EE6D60151
:101FC0008C9391E6DBCF9D938150E0CF482F4470F6
:101FD00082FF3DC084E0911101C083E08F1510F4B1
:101FE000EF2DE81BD6018E2F20E2552309F199230E
:101FF00029F0D6019C93C60101966C0196012D5FD4
:102000003F4FE2FE1BC089E4D6018C938EE411960B
:102010008C93119786E412968C93D9018E2F90E2BF
:10202000882309F4B5CF9D938150FACF2D93815029
:102030008111FCCFCE0ED11CE0E0D9CF89E6D601CC
:102040008C938EE611968C93119786E6E4CF9B01D4
:1020500077FF02C030E020E0A1E0B0E0911102C0C3
:10206000B0E0A0E0F9013196AE0FBF1F8B2C912C90
:10207000BB2009F461C05401EFEFAE1ABE0AAA0DED
:10208000BB1DFA161B0619F014F04F2D4A1B5111F7
:1020900088C0E3FC59C07601A42FB0E2A1114FC063
:1020A000C40ED11C992309F45BC040E0D6011196FF
:1020B000F60190836D01552309F448C0012F060FE6
:1020C0009A81582F507184FF03C0913309F4015055
:1020D00010160CF047C0093008F008E0EEE2FE2EC2
:1020E0005B01A01AB10885019194819491082F3F5A
:1020F000320729F4D601FC92F60131966F0162177E
:10210000730794F1021713077CF5DB01A21BB30BD5
:10211000AA24A394B12CAC0EBD1EAA0DBB1D119612
:102120008C9121503109D601119628153905F4F00A
:10213000F60180836D01DBCFB12CA12CA0CFF7017C
:10214000B1937F01A150AACF9111B0CFD601942FA6
:1021500050E302C05D9391509111FCCFC40ED11C8D
:1021600040E0ACCF01E0BACF80E3DBCF621773076A
:1021700031F4963388F4953311F4552369F0F60160
:102180008083FD01842F90E2811108C0A40FB11D4E
:102190001C9290E080E002CF81E3F1CF91938150D7
:1021A000F3CF911183CF8ACF283008F027E033276F
:1021B000DA01990F311D87FD916000966105710567
:1021C00039F432602E5F3D9330E32A95E1F70895AC
:1021D0009F3F30F080387105610509F03C5F3C5F3E
:1021E0003D93913008F08068911DDF93CF931F934A
:1021F0000F93FF92EF92192F987F9695E92F96955E
:102200009695E90FFF27E857FE4F99273327EE24CD
:10221000FF24A701E70105900894079428F4360FDE
:10222000E71EF81E491F511D660F771F881F991F53
:102230000694A1F70590079428F4E70EF81E491FAD
:10224000561FC11D770F881F991F661F0694A1F79F
:102250000590079428F4F80E491F561FC71FD11D7B
:10226000880F991F661F771F0694A1F705900794A2
:1022700020F4490F561FC71FD81F990F661F771FDD
:10228000881F0694A9F784911095177041F0D69590
:10229000C79557954795F794E7941A95C1F7EEE2DD
:1022A000F1E068941590159135916591959105909F
:1022B0007FE27395E118F10A430B560BC90BD00965
:1022C000C0F7E10CF11E431F561FC91FD01D7EF43D
:1022D000703311F48A95E6CFE894015030F0080F7E
:1022E0000AF40027021708F4202F2395022F7A33CF
:1022F00028F079E37D932A95E9F710C07D932A951C
:1023000089F6069497956795379517951794E11870
:10231000F10A430B560BC90BD00998F023957E9117
:1023200073957A3308F070E37C932013B8F77E91AD
:1023300070617D9330F0839571E37D9370E32A950E
:10234000E1F71124EF90FF900F911F91CF91DF9152
:10235000992787FD90950895FC0105906150704084
:102360000110D8F7809590958E0F9F1F0895FC015E
:102370006150704001900110D8F7809590958E0FB4
:102380009F1F08950F931F93CF93DF93182F092F4B
:10239000EB018B8181FD09C01FEF0FEF812F902F83
:1023A000DF91CF911F910F91089582FF14C02E816C
:1023B0003F818C819D81281739073CF4E881F981A0
:1023C000CF0101969983888310838E819F81019626
:1023D0009F838E83E3CFE885F985812F0995892B2B
:1023E000A1F3DACFFA01AA27283051F1203181F187
:1023F000E8946F936E7F6E5F7F4F8F4F9F4FAF4F0D
:10240000B1E03ED0B4E03CD0670F781F891F9A1F1F
:10241000A11D680F791F8A1F911DA11D6A0F711DD3
:10242000811D911DA11D20D009F468943F912AE0DF
:10243000269F11243019305D3193DEF6CF010895C7
:10244000462F4770405D4193B3E00FD0C9F7F6CFF8
:10245000462F4F70405D4A3318F0495D31FD4052C0
:10246000419302D0A9F7EACFB4E0A6959795879556
:1024700077956795BA95C9F7009761057105089535
:102480009B01AC010A2E06945795479537952795E1
:10249000BA95C9F7620F731F841F951FA01D089579
:1024A0002F923F924F925F926F927F928F929F9264
:1024B000AF92BF92CF92DF92EF92FF920F931F9352
:1024C000CF93DF93CDB7DEB7CA1BDB0B0FB6F89403
:1024D000DEBF0FBECDBF09942A88398848885F8443
:1024E0006E847D848C849B84AA84B984C884DF80B4
:1024F000EE80FD800C811B81AA81B981CE0FD11D98
:102500000FB6F894DEBF0FBECDBFED010895505851
:10251000BB27AA270E949F120C94E3130E94D51395
:1025200038F00E94DC1320F039F49F3F19F426F4B0
:102530000C94D2130EF4E095E7FB0C94CC13E92F26
:102540000E94F41358F3BA176207730784079507BC
:1025500020F079F4A6F50C9416140EF4E0950B2EE9
:10256000BA2FA02D0B01B90190010C01CA01A001E5
:102570001124FF27591B99F0593F50F4503E68F140
:102580001A16F040A22F232F342F4427585FF3CF81
:10259000469537952795A795F0405395C9F77EF452
:1025A0001F16BA0B620B730B840BBAF09150A1F09B
:1025B000FF0FBB1F661F771F881FC2F70EC0BA0F21
:1025C000621F731F841F48F4879577956795B795A9
:1025D000F7959E3F08F0B0CF9395880F08F09927A4
:1025E000EE0F9795879508950E94A81308F481E04F
:1025F00008950E940D130C94E3130E94DC1358F00D
:102600000E94D51340F029F45F3F29F00C94CC13BD
:1026100051110C9417140C94D2130E94F41368F304
:102620009923B1F3552391F3951B550BBB27AA278B
:1026300062177307840738F09F5F5F4F220F331FC5
:10264000441FAA1FA9F335D00E2E3AF0E0E832D08D
:1026500091505040E695001CCAF72BD0FE2F29D090
:10266000660F771F881FBB1F261737074807AB0762
:10267000B0E809F0BB0B802DBF01FF2793585F4FD7
:102680003AF09E3F510578F00C94CC130C9417143B
:102690005F3FE4F3983ED4F3869577956795B795B9
:1026A000F7959F5FC9F7880F911D9695879597F9C4
:1026B0000895E1E0660F771F881FBB1F621773073D
:1026C0008407BA0720F0621B730B840BBA0BEE1F52
:1026D00088F7E0950895E89409C097FB3EF490953B
:1026E0008095709561957F4F8F4F9F4F9923A9F0EB
:1026F000F92F96E9BB279395F6958795779567957A
:10270000B795F111F8CFFAF4BB0F11F460FF1BC0BD
:102710006F5F7F4F8F4F9F4F16C0882311F096E950
:1027200011C0772321F09EE8872F762F05C06623FE
:1027300071F096E8862F70E060E02AF09A95660FB7
:10274000771F881FDAF7880F9695879597F9089570
:10275000990F0008550FAA0BE0E8FEEF16161706B2
:10276000E807F907C0F012161306E407F50798F01A
:10277000621B730B840B950B39F40A2661F0232B33
:10278000242B252B21F408950A2609F4A140A695AF
:102790008FEF811D811D089597F99F6780E870E094
:1027A00060E008959FEF80EC089500240A941616C7
:1027B000170618060906089500240A94121613062F
:1027C000140605060895092E0394000C11F48823BD
:1027D00052F0BB0F40F4BF2B11F460FF04C06F5FD9
:1027E0007F4F8F4F9F4F089557FD9058440F551FAF
:1027F00059F05F3F71F04795880F97FB991F61F083
:102800009F3F79F087950895121613061406551FF9
:10281000F2CF4695F1DF08C0161617061806991F65
:10282000F1CF86957105610508940895E894BB275A
:1028300066277727CB0197F908950E94A81308F41B
:102840008FEF08950E9435140C94E3130E94D51362
:1028500038F00E94DC1320F0952311F00C94CC1377
:102860000C94D21311240C9417140E94F41370F3D7
:10287000959FC1F3950F50E0551F629FF001729F25
:10288000BB27F00DB11D639FAA27F00DB11DAA1F34
:10289000649F6627B00DA11D661F829F2227B00D81
:1028A000A11D621F739FB00DA11D621F839FA00D0C
:1028B000611D221F749F3327A00D611D231F849F5C
:1028C000600D211D822F762F6A2F11249F575040B3
:1028D0009AF0F1F088234AF0EE0FFF1FBB1F661F2E
:1028E000771F881F91505040A9F79E3F510580F0F7
:1028F0000C94CC130C9417145F3FE4F3983ED4F37C
:10290000869577956795B795F795E7959F5FC1F79A
:10291000FE2B880F911D9695879597F90895FA01DA
:10292000EE0FFF1F309621053105A1F161157105EC
:1029300061F48038BFE39B0749F1689490388105C2
:1029400061F08038BFEF9B0741F099234AF5FF3FC4
:10295000E1053105210519F1E8940894E795D901BD
:10296000AA2329F4AB2FBE2FF85FD0F310C0FF5F6E
:1029700070F4A695E0F7F73950F019F0FF3A38F403
:102980009F779F930DD00F9007FC9058089546F0C5
:102990000C94D21360E070E080E89FE308954FE765
:1029A0009F775F934F933F932F930E948A152F91A8
:1029B0003F914F915F910E9422140C94E71429F4E7
:1029C00016F00C94CC130C9416140C94D2130E9491
:1029D000FC13A8F39638A0F707F80F92E8942BE3BE
:1029E0003AEA48EB5FE70E9438140F920F920F9279
:1029F0004DB75EB70F920E94D215ECEAF0E00E944C
:102A000019154F915F91EF91FF91E595EE1FFF1F13
:102A100049F0FE57E0684427EE0F441FFA95E1F7AE
:102A20004195550B0E944C150F9007FE0C944015D4
:102A30000895DF93CF931F930F93FF92EF92DF924E
:102A40007B018C01689406C0DA2EEF010E943514D8
:102A5000FE01E894A5912591359145915591A6F3F4
:102A6000EF010E949F12FE019701A801DA9469F715
:102A7000DF90EF90FF900F911F91CF91DF9108951C
:102A80009B01AC0160E070E080E89FE30C94F912D8
:102A90000C94CC130C9406160E94FC13D8F39923C3
:102AA000C9F3940F511DA3F39150504094F059F085
:102AB000882332F0660F771F881F91505040C1F76E
:102AC0009E3F51052CF7880F911D9695879597F994
:102AD00008955F3FACF0983E9CF0BB2786957795B4
:102AE0006795B79508F4B1609395C1F7BB0F58F798
:102AF00011F460FFE8CF6F5F7F4F8F4F9F4FE3CFA1
:102B00000C94171416F00C9406160C94D2136894B7
:102B10000C94CC130E94FC13A8F39923C1F3AEF3D9
:102B2000DF93CF931F930F93FF92C92FDD27882345
:102B30002AF02197660F771F881FDAF720E030E030
:102B400040E85FEB9FE3883920F0803E38F0219623
:102B50008F770E948812E4EDF0E004C00E94881292
:102B6000E1E0F1E00E9419158B01BE01EC01FB2EA2
:102B70006F5771097595771F880B990B0E946D131C
:102B800028E132E741E35FE30E943514AF2D98015D
:102B9000AE01FF900F911F91CF91DF910E949F1284
:102BA0000C94E313FA01DC01AA0FBB1F9B01AC01DB
:102BB000BF5728F4222733274427507820C0B75125
:102BC00090F4AB2F0024469537952795011CA395CB
:102BD000D2F3002071F0220F331F441FB395DAF3B4
:102BE0000ED00C94871261307105A0E88A07B946AF
:102BF00030F49B01AC0166277727882790783096C0
:102C000021F0208331834283538308959F3F31F025
:102C1000915020F4879577956795B795880F911D0A
:102C20009695879597F90895EE0FFF1F0590F491FB
:102C3000E02D0994AEE0B0E0E0E2F6E10C945E1223
:102C40000D891E8986E08C831A8309838FEF9FE7A5
:102C50009E838D83AE01475E5F4F6F89788DCE0175
:102C600001960E949B0D2F813885020F131FF801DA
:0E2C700010822E96E4E00C947A12F894FFCFB6
:102C7E00FFFFFFFF00E10000000000004E034E03C7
:102C8E004E034E034E0300C18081000000313438E4
:102C9E0036330000000000E4045F040505FA044B1F
:102CAE00050905270573657473656E736F72203998
:102CBE002025730073657473656E736F72203130E7
:102CCE002025730073657473656E736F72203131D6
:042CDE00202573003A
:00000001FF
